112-06-2020 10:37:58
20394606112770844DALMI FERREIRA DA SILVA JUNIOR                    dalmijunior16@gmail.com                                               000034888816360034382270820000006198128473FM38703018R EDECIO P ROMAO                                  79                                                          JARDIM CENTRO                 PATOS DE MINAS                MG10000410/06/20200000045450PAC            000000495730000000000000000072025000000000000                       10/06/202000000454520000000000ISENTO      01
303946061100609890000008948     Chevrolet Collection Ed. 43                       0000200000049900000051600
303946061100609890000010585     Chevrolet Collection Ed. 62                       0000200000049900000051600
303946061100609890000011199     Os mitos da Ferrari Ed. 06                        0000200000149900000050000
303946061100609890000011202     Os mitos da Ferrari Ed. 07                        0000100000149900000050000
303946061100609890000011205     Os mitos da Ferrari Ed. 08                        0000100000149900000050000
303946061100609890000011348     Chevrolet Collection Ed. 511                      0000200000054900000051600
503946061000410/06/202011/06/2020PAGO      000400000113630000045452                                                                                                                                                                                                                                                                                                            
20394617011733551JEAN VALENS                                       jean.valens@gmail.com                                                 000005106211980062981152150000006239323922FM74210150R T 44                                            47        EDF BARRAVENTO, APTO 1504                         SETOR BUENO                   GOIANIA                       GO10000410/06/20200000053225PAC            000000584730000000000000000012028000000000000                       10/06/202000000532240000000000ISENTO      01
303946170100611510000006232     Livro Marvel Heroes Ed. 07                        0000100000047900000066800
303946170100611510000005746     Livro Graphic Novels Marvel Ed. 37                0000100000047900000068500
303946170100611510000006650     Livro Graphic Novels Marvel Ed. 54                0000100000047900000065000
303946170100611510000009863     Livro Graphic Novels Marvel Ed. 103               0000100000047900000058200
303946170100611510000009927     Livro Graphic Novels Marvel Ed. 105               0000100000047900000058200
303946170100611510000010269     Marvel Edicao Especial Limitada Vingadores Ed. 02 0000100000099900000123400
303946170100611510000010323     Marvel Edicao Especial Limitada Vingadores Ed. 03 0000100000099900000123400
303946170100611510000010317     Livro Graphic Novels Marvel Ed. 114               0000100000047900000058200
303946170100611520000010613     Marvel Edicao Especial Limitada Thor Ed. 01       0000100000099900000123400
303946170100611520000010623     Marvel Edicao Especial Limitada Thor Ed. 02       0000100000099900000123400
303946170100611520000010729     Marvel Edicao Especial Limitada Thor Ed. 03       0000100000099900000123400
303946170100611520000010873     Marvel Edicao Especial Limitada Capitao America - 0000100000099900000097600
303946170100611520000010891     Marvel Edicao Especial Limitada Capitao America - 0000100000099900000076800
303946170100611520000010876     Marvel Edicao Especial Limitada Capitao America - 0000100000029900000015000
303946170100611520000011446     Livro Marvel Heroes Ed. 93                        0000100000047900000058200
503946170000410/06/202011/06/2020PAGO      000400000133060000053224                                                                                                                                                                                                                                                                                                            
20394627913438564EMANUEL FELIPE DOS SANTOS LIMA                    fleupa_@hotmail.com                                                   000962232193340085981427520000000000000000FM52050390R AMAPA                                           77        APTO 608                                          ENCRUZILHADA                  RECIFE                        PE10000410/06/20200000031750PAC            000000541430000000000000000022024000000000000                       10/06/202000000317520000000000ISENTO      01
303946279100613490000005748     Livro Graphic Novels Marvel Ed. 38                0000100000047900000063200
303946279100613490000007044     Livro Graphic Novels Marvel Ed. 59                0000100000047900000070000
303946279100613490000009226     Livro Graphic Novels Marvel Ed. 93                0000100000047900000064700
303946279100613490000009402     Livro Graphic Novels Marvel Ed. 96                0000100000047900000058200
303946279100613490000009414     Livro Graphic Novels Marvel Ed. 98                0000100000047900000058200
303946279100613490000010449     Livro Graphic Novels Marvel Ed. 117               0000100000047900000058200
303946279100613500000010349     Livro Graphic Novels Marvel Ed. 116               0000100000047900000058200
303946279100613500000010613     Marvel Edicao Especial Limitada Thor Ed. 01       0000100000099900000123400
303946279100613500000010623     Marvel Edicao Especial Limitada Thor Ed. 02       0000100000099900000123400
303946279100613500000010729     Marvel Edicao Especial Limitada Thor Ed. 03       0000100000099900000123400
503946279000410/06/202011/06/2020PAGO      000400000079380000031752                                                                                                                                                                                                                                                                                                            
20394638910730729RENATO DE ABREU LIMA CORREA                       renatoalcorrea@bol.com.br                                             000461261046680000000000000000003599919-79FM37200234RUA DO INSTITUTO                                  420       CASA                                              CENTRO                        LAVRAS                        MG10000410/06/20200000030940PAC            000000529730000000000000000032026000000000000                       10/06/202000000309400000000000ISENTO      01
303946389100613680000008948     Chevrolet Collection Ed. 43                       0000400000049900000051600
303946389100613680000010585     Chevrolet Collection Ed. 62                       0000400000049900000051600
303946389100613680000011348     Chevrolet Collection Ed. 511                      0000400000054900000051600
503946389000410/06/202010/06/2020PAGO      000400000077350000030940                                                                                                                                                                                                                                                                                                            
20394643113438564EMANUEL FELIPE DOS SANTOS LIMA                    fleupa_@hotmail.com                                                   000962232193340085981427520000000000000000FM52050390R AMAPA                                           77        APTO 608                                          ENCRUZILHADA                  RECIFE                        PE10000410/06/20200000033530PAC            000000541430000000000000000022024000000000000                       10/06/202000000335320000000000ISENTO      01
303946431100616490000008578     Livro Homem-Aranha Ed. 01                         0000100000047900000061700
303946431100616500000008580     Livro Homem-Aranha Ed. 02                         0000100000047900000061700
303946431100616500000008582     Livro Homem-Aranha Ed. 03                         0000100000047900000061700
303946431100616500000008584     Livro Homem-Aranha Ed. 04                         0000100000047900000061700
303946431100616500000009678     Livro Homem-Aranha Ed. 07                         0000100000047900000061700
303946431100616500000009680     Livro Homem-Aranha Ed. 08                         0000100000047900000061700
303946431100616500000009775     Livro Homem-Aranha Ed. 10                         0000100000047900000061700
303946431100616500000009899     Livro Homem-Aranha Ed. 12                         0000100000047900000061700
303946431100616500000010193     Livro Homem-Aranha Ed. 17                         0000100000047900000061700
303946431100616500000010465     Livro Homem-Aranha Ed. 23                         0000100000047900000061700
303946431100616500000010327     Livro Homem-Aranha Ed. 22                         0000100000047900000061700
303946431100616510000010325     Livro Homem-Aranha Ed. 21                         0000100000047900000061700
303946431100616510000010615     Livro Homem-Aranha Ed. 25                         0000100000047900000061700
303946431100616510000010745     Livro Homem-Aranha Ed. 27                         0000100000047900000061700
503946431000410/06/202011/06/2020PAGO      000400000083830000033532                                                                                                                                                                                                                                                                                                            
20394646010867802DUARTE SALVADOR ROSA                              duarte_dsr@yahoo.com.br                                               000080054908280011212877350000001199414072FM09520630R RIO BRANCO                                      283       APTO 34                                           FUNDACAO                      SAO CAETANO DO SUL            SP10000410/06/20200000032135SEDEX          000000228130000000000000000012024000000000000                       10/06/202000000321360000000000ISENTO      01
303946460100617020000008684     Turma da Monica - Colecao Oficial de Miniaturas - 0000100000049900000037000
303946460100617020000010267     Livro Homem-Aranha Ed. 20                         0000100000047900000061700
303946460100617020000010337     Turma da Monica Ed. 45                            0000100000049900000037000
303946460100617020000010327     Livro Homem-Aranha Ed. 22                         0000100000047900000061700
303946460100617020000010325     Livro Homem-Aranha Ed. 21                         0000100000047900000061700
303946460100617020000010707     Turma da Monica - Colecao Oficial de Miniaturas Ed0000100000049900000037000
303946460100617020000010882     LIVRO TEX ED. 18                                  0000100000049900000058200
303946460100617020000010983     LIVRO TEX ED. 20                                  0000100000049900000058200
303946460100617020000010989     LIVRO TEX ED. 21                                  0000100000049900000058200
303946460100617020000010992     LIVRO TEX ED. 22                                  0000100000049900000058200
303946460100617030000011078     LIVRO TEX ED. 23                                  0000100000049900000058200
303946460100617030000011081     LIVRO TEX ED. 24                                  0000100000049900000058200
303946460100617030000011470     Livro Tex Ed. 26                                  0000100000049900000058200
503946460000410/06/202010/06/2020PAGO      000400000080340000032136                                                                                                                                                                                                                                                                                                            
20394650312482673DEIVE OLIVEIRA SANTOS                             deivesantos@yahoo.com.br                                              000574252052200091372137150000009198100751FM68742450R CEL LEAL                                        509                                                         NOVA OLINDA                   CASTANHAL                     PA10000310/06/20200000021555PAC            000000658430000000000000000032027000000000000                       10/06/202000000215550000000000ISENTO      01
303946503100617860000006900     Livro Graphic Novels Marvel Ed. 58                0000100000047900000070000
303946503100617860000009402     Livro Graphic Novels Marvel Ed. 96                0000100000047900000058200
303946503100617860000009414     Livro Graphic Novels Marvel Ed. 98                0000100000047900000058200
303946503100617860000009680     Livro Homem-Aranha Ed. 08                         0000100000047900000061700
303946503100617860000010449     Livro Graphic Novels Marvel Ed. 117               0000100000047900000058200
303946503100617860000011461     Livro Homem Aranha Ed. 37                         0000100000047900000061700
503946503000310/06/202010/06/2020PAGO      000300000071850000021555                                                                                                                                                                                                                                                                                                            
20394651613442176IVAN MIRANDA                                      ivanleonelmiranda@gmail.com                                           000325151958140013337186190000001398805861FM11500220R MANOEL C SOBRINHO                               126                                                         JARDIM SAO FRANCISCO          CUBATAO                       SP10000410/06/20200000031135SEDEX          000000235520000000000000000072022000000000000                       10/06/202000000311360000000000ISENTO      01
303946516100618070000007778     Livro Graphic Novels Marvel Ed. 69                0000100000047900000064700
303946516100618070000008582     Livro Homem-Aranha Ed. 03                         0000100000047900000061700
303946516100618070000009602     Livro Homem-Aranha Ed. 06                         0000100000047900000061700
303946516100618070000009678     Livro Homem-Aranha Ed. 07                         0000100000047900000061700
303946516100618070000010193     Livro Homem-Aranha Ed. 17                         0000100000047900000061700
303946516100618070000010267     Livro Homem-Aranha Ed. 20                         0000100000047900000061700
303946516100618070000010265     Livro Homem-Aranha Ed. 19                         0000100000047900000061700
303946516100618070000010327     Livro Homem-Aranha Ed. 22                         0000100000047900000061700
303946516100618070000010325     Livro Homem-Aranha Ed. 21                         0000100000047900000061700
303946516100618070000010615     Livro Homem-Aranha Ed. 25                         0000100000047900000061700
303946516100618080000010745     Livro Homem-Aranha Ed. 27                         0000100000047900000061700
303946516100618080000011093     Livro Homem Aranha Ed. 36                         0000100000047900000061700
303946516100618080000011461     Livro Homem Aranha Ed. 37                         0000100000047900000061700
503946516000410/06/202010/06/2020PAGO      000400000077840000031136                                                                                                                                                                                                                                                                                                            
20394659613234746JOAO VICTOR LIRA TORRES GALINDO                   vitor_ltgt@hotmail.com                                                000705679084450081342835280000008199244249FM50830420R ESC ALVARO LINS                                 90                                                          AFOGADOS                      RECIFE                        PE10000310/06/20200000035925PAC            000000559610000000000000000062021000000000000                       10/06/202000000359250000000000ISENTO      01
303946596100619810000005658     Livro Graphic Novels Marvel Ed. 35                0000100000047900000063500
303946596100619810000005660     Livro Graphic Novels Marvel Ed. 36                0000100000047900000063500
303946596100619810000006314     Livro Graphic Novels Marvel Ed. 48                0000100000047900000068500
303946596100619810000006430     Livro Graphic Novels Marvel Ed. 50                0000100000047900000068000
303946596100619810000007328     Livro Graphic Novels Marvel Ed. 63                0000100000047900000064700
303946596100619810000007398     Livro Graphic Novels Marvel Ed. 65                0000100000047900000064700
303946596100619820000007400     Livro Graphic Novels Marvel Ed. 66                0000100000047900000064700
303946596100619820000007654     Livro Graphic Novels Marvel Ed. 68                0000100000047900000064700
303946596100619820000008982     Livro Graphic Novels Marvel Ed. 92                0000100000047900000064700
303946596100619820000008992     Livro Marvel Heroes Ed. 53                        0000100000047900000058200
303946596100619820000009400     Livro Graphic Novels Marvel Ed. 95                0000100000047900000064700
303946596100619820000009716     Livro Graphic Novels Marvel Ed. 101               0000100000047900000058200
303946596100619820000009927     Livro Graphic Novels Marvel Ed. 105               0000100000047900000058200
303946596100619820000010349     Livro Graphic Novels Marvel Ed. 116               0000100000047900000058200
303946596100619820000010799     Livro Graphic Novels Marvel Ed. 121               0000100000047900000058200
503946596000310/06/202010/06/2020PAGO      000300000119750000035925                                                                                                                                                                                                                                                                                                            
20394659813429614YLGUEM DORIA COSTA                                ylguem@yahoo.com.br                                                   000015636175280084999226980000008499922698FM59022545AV PRUDENTE DE MORAIS                             2164      AP 205 COND MONTANA I                             BARRO VERMELHO                NATAL                         RN10000410/06/20200000033530PAC            000001261130000000000000000072023000000000000                       10/06/202000000335320000000000ISENTO      01
303946598100619830000005494     Livro Graphic Novels Marvel Ed. 32                0000100000047900000070300
303946598100619830000005828     Livro Graphic Novels Marvel Ed. 40                0000100000047900000063200
303946598100619830000006314     Livro Graphic Novels Marvel Ed. 48                0000100000047900000068500
303946598100619830000006898     Livro Graphic Novels Marvel Ed. 57                0000100000047900000070000
303946598100619830000008578     Livro Homem-Aranha Ed. 01                         0000100000047900000061700
303946598100619840000009602     Livro Homem-Aranha Ed. 06                         0000100000047900000061700
303946598100619840000009420     Livro Marvel Heroes Ed. 59                        0000100000047900000058200
303946598100619840000009674     Livro Marvel Heroes Ed. 61                        0000100000047900000058200
303946598100619840000009899     Livro Homem-Aranha Ed. 12                         0000100000047900000061700
303946598100619840000010801     Livro Graphic Novels Marvel Ed. 122               0000100000047900000058200
303946598100619840000011093     Livro Homem Aranha Ed. 36                         0000100000047900000061700
303946598100619840000011165     Livro Graphic Novels Marvel Ed. 129               0000100000047900000058200
303946598100619840000011461     Livro Homem Aranha Ed. 37                         0000100000047900000061700
303946598100619840000011524     Livro Graphic Novels Marvel Ed. 135               0000100000047900000058200
503946598000410/06/202010/06/2020PAGO      000400000083830000033532                                                                                                                                                                                                                                                                                                            
20394662210886424DANIEL FONTES KIKUTS BAPTISTA                     dankikuts@hotmail.com                                                 000055639697970021321798260000002197935971FM22725031EST DO CAFUNDA                                    3234      CASA 6                                            TAQUARA                       RIO DE JANEIRO                RJ10000410/06/20200000031260PAC            000000393130000000000000000122023000000000000                       10/06/202000000312600000000000ISENTO      01
303946622100620510000008980     Livro Graphic Novels Marvel Ed. 91                0000100000047900000064700
303946622100620510000009400     Livro Graphic Novels Marvel Ed. 95                0000100000047900000064700
303946622100620510000010269     Marvel Edicao Especial Limitada Vingadores Ed. 02 0000100000099900000123400
303946622100620510000010323     Marvel Edicao Especial Limitada Vingadores Ed. 03 0000100000099900000123400
303946622100620510000010613     Marvel Edicao Especial Limitada Thor Ed. 01       0000100000099900000123400
303946622100620510000010623     Marvel Edicao Especial Limitada Thor Ed. 02       0000100000099900000123400
303946622100620510000010729     Marvel Edicao Especial Limitada Thor Ed. 03       0000100000099900000123400
303946622100620510000010876     Marvel Edicao Especial Limitada Capitao America - 0000100000029900000015000
503946622000410/06/202010/06/2020PAGO      000400000078150000031260                                                                                                                                                                                                                                                                                                            
20394662910594423LUIS FELIPE DE AZEVEDO ARAUJO                     aconceitual@gmail.com                                                 000965637107000021225911230000002199769247FM22441120R RNH GUILHERMINA                                 39        101                                               LEBLON                        RIO DE JANEIRO                RJ10000410/06/20200000031135PAC            000000393120000000000000000102024000000000000                       10/06/202000000311360000000000ISENTO      01
303946629100620530000009777     Livro Marvel Heroes Ed. 63                        0000100000047900000058200
303946629100620530000007650     Livro Marvel Heroes Ed. 68                        0000100000047900000058200
303946629100620540000010449     Livro Graphic Novels Marvel Ed. 117               0000100000047900000058200
303946629100620540000010627     Livro Graphic Novels Marvel Ed. 120               0000100000047900000058200
303946629100620540000010861     Livro Graphic Novels Marvel Ed. 124               0000100000047900000058200
303946629100620540000010904     Livro Graphic Novels Marvel Ed. 125               0000100000047900000058200
303946629100620540000010910     Livro Graphic Novels Marvel Ed. 126               0000100000047900000058200
303946629100620540000011171     Livro Graphic Novels Marvel Ed. 127               0000100000047900000058200
303946629100620540000011174     Livro Graphic Novels Marvel Ed. 128               0000100000047900000058200
303946629100620540000011165     Livro Graphic Novels Marvel Ed. 129               0000100000047900000058200
303946629100620540000011434     Livro Graphic Novels Marvel Ed. 132               0000100000047900000058200
303946629100620540000011437     Livro Graphic Novels Marvel Ed. 134               0000100000047900000058200
303946629100620550000011446     Livro Marvel Heroes Ed. 93                        0000100000047900000058200
503946629000410/06/202010/06/2020PAGO      000400000077840000031136                                                                                                                                                                                                                                                                                                            
20394666013442708TIAGO MONTEIRO                                    tiagobenin@yahoo.com.br                                               000110214357080021357662030000002199615827FM20241330R LEOPOLDO FROIS                                  91                                                          SANTA TERESA                  RIO DE JANEIRO                RJ10000410/06/20200000038320PAC            000000479120000000000000000122023000000000000                       10/06/202000000383200000000000ISENTO      01
303946660100621480000006732     Livro Marvel Heroes Ed. 17                        0000100000047900000066800
303946660100621480000006734     Livro Marvel Heroes Ed. 18                        0000100000047900000065800
303946660100621480000007098     Livro Marvel Heroes Ed. 21                        0000100000047900000058300
303946660100621490000007100     Livro Marvel Heroes Ed. 22                        0000100000047900000058300
303946660100621490000005108     Livro Graphic Novels Marvel Ed. 27                0000100000047900000075600
303946660100621490000006312     Livro Graphic Novels Marvel Ed. 47                0000100000047900000068500
303946660100621490000006314     Livro Graphic Novels Marvel Ed. 48                0000100000047900000068500
303946660100621490000006900     Livro Graphic Novels Marvel Ed. 58                0000100000047900000070000
303946660100621490000007260     Livro Graphic Novels Marvel Ed. 61                0000100000047900000064700
303946660100621490000010199     Livro Graphic Novels Marvel Ed. 112               0000100000047900000058200
303946660100621490000010451     Livro Graphic Novels Marvel Ed. 118               0000100000047900000058200
303946660100621490000010347     Livro Graphic Novels Marvel Ed. 115               0000100000047900000058200
303946660100621490000010859     Livro Graphic Novels Marvel Ed. 123               0000100000047900000058200
303946660100621500000010861     Livro Graphic Novels Marvel Ed. 124               0000100000047900000058200
303946660100621500000010904     Livro Graphic Novels Marvel Ed. 125               0000100000047900000058200
303946660100621500000011165     Livro Graphic Novels Marvel Ed. 129               0000100000047900000058200
503946660000410/06/202010/06/2020PAGO      000400000095800000038320                                                                                                                                                                                                                                                                                                            
20394666713425291FRANCINATE GOMES DE ARAUJO                        francinate@yahoo.com.br                                               000037660766120041984506500000004198450650FM83705250R OTAVIO M SANTIAGO                               149       CASA                                              ESTACAO                       ARAUCARIA                     PR10000410/06/20200000031135PAC            000000682520000000000000000072021000000000000                       10/06/202000000311360000000000ISENTO      01
303946667100621680000007366     Livro Marvel Heroes Ed. 26                        0000100000047900000058300
303946667100621680000007574     Livro Marvel Heroes Ed. 27                        0000100000047900000058300
303946667100621680000005658     Livro Graphic Novels Marvel Ed. 35                0000100000047900000063500
303946667100621690000007044     Livro Graphic Novels Marvel Ed. 59                0000100000047900000070000
303946667100621690000008584     Livro Homem-Aranha Ed. 04                         0000100000047900000061700
303946667100621690000009927     Livro Graphic Novels Marvel Ed. 105               0000100000047900000058200
303946667100621690000010317     Livro Graphic Novels Marvel Ed. 114               0000100000047900000058200
303946667100621690000010285     Livro Marvel Heroes Ed. 76                        0000100000047900000058200
303946667100621690000010615     Livro Homem-Aranha Ed. 25                         0000100000047900000061700
303946667100621690000010745     Livro Homem-Aranha Ed. 27                         0000100000047900000061700
303946667100621690000010859     Livro Graphic Novels Marvel Ed. 123               0000100000047900000058200
303946667100621690000010861     Livro Graphic Novels Marvel Ed. 124               0000100000047900000058200
303946667100621690000010904     Livro Graphic Novels Marvel Ed. 125               0000100000047900000058200
503946667000410/06/202010/06/2020PAGO      000400000077840000031136                                                                                                                                                                                                                                                                                                            
20394681513147236WENDER PEREIRA DA SILVA                           wender.rex@gmail.com                                                  000719844611680061334569040000006199912511FM70658554Q SHCES                                           1505      BLOCO D APARTAMENTO 402                           CRUZEIRO NOVO                 BRASILIA                      DF10000110/06/20200000016286PAC            000000258420000000000000000122021000000000000                       11/06/202000000162860000000000ISENTO      01
303946815100616860000006984     Livro Marvel Heroes Ed. 20                        0000100000047900000069600
303946815100616870000005658     Livro Graphic Novels Marvel Ed. 35                0000100000047900000063500
303946815100616870000007044     Livro Graphic Novels Marvel Ed. 59                0000100000047900000070000
303946815100616870000011512     Livro Marvel Heroes Ed. 100                       0000100000047900000058200
503946815000110/06/202011/06/2020PAGO      000100000162860000016286                                                                                                                                                                                                                                                                                                            
20394681610722313EDENILSON LUIZ GOMES                              edenilsonl@yahoo.com.br                                               000821961256870031256447240000003199756845FM32372200R SARA KUBITSCHEK                                 140                                                         DARCY VARGAS                  CONTAGEM                      MG10000210/06/20200000042925PAC            000000393130000000000000000062020000000000000                       11/06/202000000429260000000000ISENTO      01
303946816100621640000008948     Chevrolet Collection Ed. 43                       0000200000049900000051600
303946816100621640000010585     Chevrolet Collection Ed. 62                       0000800000049900000051600
303946816100621640000010587     Chevrolet Collection Ed. 63                       0000200000049900000051600
303946816100621640000011199     Os mitos da Ferrari Ed. 06                        0000100000149900000050000
303946816100621640000011348     Chevrolet Collection Ed. 511                      0000200000054900000051600
503946816000210/06/202011/06/2020PAGO      000200000214630000042926                                                                                                                                                                                                                                                                                                            
20394719412797686ALAN FURLAN CALLEGARI                             alan.furlan@yahoo.com.br                                              000089842587500027305311860000002799999844FM29145620AV JERUSALEM                                      357       FUNDOS                                            VILA PALESTINA                CARIACICA                     ES30000105/06/20200000007319PAC            000000232900000000000000000000000000000000000      71098807         10/06/202000000073190000000000ISENTO      01
303947194100535460000010697     Chevrolet Collection Ed. 68                       0000100000049900000051600
503947194000110/06/202011/06/2020PAGO      000100000073190000007319                                                                                                                                                                                                                                                                                                            
20394719511749925CARLOS ANTONIO CABRAL CORDEIRO CALADO             cabralcalado@gmail.com                                                000371868685680071992129020000000000000000FM41650010AV ORLANDO GOMES                                  2306      CASA 09                                           PIATA                         SALVADOR                      BA30000105/06/20200000016966PAC            000000289400000000000000000000000000000000000      71098904         10/06/202000000169660000000000ISENTO      01
303947195100537880000011081     LIVRO TEX ED. 24                                  0000100000049900000058200
303947195100537880000011473     LIVRO TEX ED. 25                                  0000100000049900000058200
303947195100537880000011470     Livro Tex Ed. 26                                  0000100000049900000058200
303947195100537880000011467     Livro Tex Ed. 27                                  0000100000049900000058200
503947195000110/06/202011/06/2020PAGO      000100000169660000016966                                                                                                                                                                                                                                                                                                            
20394719613437466ELTON JOSE DE SOUZA COSTA                         eltonjsc@yahoo.com.br                                                 000569084749680043332100060000004399604900FM86010450R PARA                                            115       APTO 403                                          CENTRO                        LONDRINA                      PR30000105/06/20200000007489PAC            000000219900000000000000000000000000000000000      71098970         10/06/202000000074890000000000ISENTO      01
303947196100539470000011343     Ford F100 Ed. 26                                  0000100000052900000020000
503947196000110/06/202011/06/2020PAGO      000100000074890000007489                                                                                                                                                                                                                                                                                                            
20394719710778555FERNANDO GUILHOBEL ROSAS TRIGUEIRO                focus@focustrigueiro.com.br                                           0000373641540000813432-7300000008199278-78FM53050090R CATULO DA P CEARENSE                            393       101                                               JARDIM ATLANTICO              OLINDA                        PE30000105/06/20200000032725PAC            000000564100000000000000000000000000000000000      71098983         10/06/202000000327250000000000ISENTO      01
303947197100539680000011196     Os mitos da Ferrari Ed. 05                        0000100000149900000050000
303947197100539680000011199     Os mitos da Ferrari Ed. 06                        0000100000149900000050000
303947197100539690000011202     Os mitos da Ferrari Ed. 07                        0000100000149900000050000
303947197100539690000011205     Os mitos da Ferrari Ed. 08                        0000100000149900000050000
303947197100539690000011348     Chevrolet Collection Ed. 511                      0000100000054900000051600
503947197000110/06/202011/06/2020PAGO      000100000327250000032725                                                                                                                                                                                                                                                                                                            
20394719813357468RODRIGO CARLOS DA SILVA                           rodrigo.fastshop@gmail.com                                            000227296478800011960978950000000000000000FM06364000ESTRADA FAZENDINHA                                4430      CASA 06                                           JARDIM ANA ESTELA             CARAPICUIBA                   SP30000105/06/20200000006158SEDEX          000000116800000000000000000000000000000000000      71099200         10/06/202000000061580000000000ISENTO      01
303947198100545960000010697     Chevrolet Collection Ed. 68                       0000100000049900000051600
503947198000110/06/202011/06/2020PAGO      000100000061580000006158                                                                                                                                                                                                                                                                                                            
20394719913438445LIANI M. CARDOSO PIERINE ANDRADE                  lianibonovox@yahoo.com.br                                             000154953878050019367143510000001999892671FF13700000RUA DAS ACACIAS                                   115       ****************                                  JD. RAFAELA                   CASA BRANCA                   SP30000106/06/20200000011721PAC            000000174100000000000000000000000000000000000      71099521         10/06/202000000117210000000000ISENTO      01
303947199100554110000008948     Chevrolet Collection Ed. 43                       0000100000049900000051600
303947199100554110000010585     Chevrolet Collection Ed. 62                       0000100000049900000051600
503947199000111/06/202011/06/2020PAGO      000100000117210000011721                                                                                                                                                                                                                                                                                                            
20394720013439226REGINALDO JORGE                                   rnreginaldo@gmail.com                                                 000060218424050087999883160000008799988316FM56308210AV CEL CLEMENTINO COELHO                          1261      BLOCO 11 APT 201                                  ATRAS DA BANCA                PETROLINA                     PE30000107/06/20200000038320PAC            000001029800000000000000000000000000000000000      71100027         10/06/202000000383200000000000ISENTO      01
303947200100570690000006366     Livro Marvel Heroes Ed. 09                        0000100000047900000069600
303947200100570690000006488     Livro Marvel Heroes Ed. 13                        0000100000047900000065900
303947200100570690000006732     Livro Marvel Heroes Ed. 17                        0000100000047900000066800
303947200100570690000006734     Livro Marvel Heroes Ed. 18                        0000100000047900000065800
303947200100570690000007100     Livro Marvel Heroes Ed. 22                        0000100000047900000058300
303947200100570690000007366     Livro Marvel Heroes Ed. 26                        0000100000047900000058300
303947200100570700000007702     Livro Marvel Heroes Ed. 30                        0000100000047900000058300
303947200100570700000007962     Livro Marvel Heroes Ed. 34                        0000100000047900000058300
303947200100570700000008496     Livro Marvel Heroes Ed. 44                        0000100000047900000058300
303947200100570700000008648     Livro Marvel Heroes Ed. 45                        0000100000047900000058300
303947200100570700000006368     Livro Marvel Heroes Ed. 10                        0000100000047900000069600
303947200100570700000008930     Livro Marvel Heroes Ed. 51                        0000100000047900000058200
303947200100570700000009420     Livro Marvel Heroes Ed. 59                        0000100000047900000058200
303947200100570700000009422     Livro Marvel Heroes Ed. 60                        0000100000047900000058200
303947200100570700000009674     Livro Marvel Heroes Ed. 61                        0000100000047900000058200
303947200100570700000010285     Livro Marvel Heroes Ed. 76                        0000100000047900000058200
503947200000112/06/202011/06/2020PAGO      000100000383200000038320                                                                                                                                                                                                                                                                                                            
20394720112343679ANTONIO DE ANDRADE ROSA                           toninho.andrade@gmail.com                                             000033940988650017354321460000001799142162FM14960000RUA LOURIVAL ALONSO                               64                                                          IV CENTENARIO                 NOVO HORIZONTE                SP30000108/06/20200000016711PAC            000000174100000000000000000000000000000000000      71100587         10/06/202000000167110000000000ISENTO      01
303947201100587580000011570     LIVRO TEX ED. 36                                  0000100000049900000058200
303947201100587580000011575     LIVRO TEX ED. 37                                  0000100000049900000058200
303947201100587580000011607     LIVRO TEX ED. 39                                  0000100000049900000058200
503947201000113/06/202011/06/2020PAGO      000100000167110000016711                                                                                                                                                                                                                                                                                                            
20394720213249618HEWERTON BONALDO                                  hewerton657@gmail.com                                                 000057703799440041342285630000004199696775FM83206225R BRA DO CERRO AZUL                               1851      CASA                                              CAMPO GRANDE                  PARANAGUA                     PR30000108/06/20200000034504PAC            000000276400000000000000000000000000000000000      71100635         10/06/202000000345040000000000ISENTO      01
303947202100589310000011343     Ford F100 Ed. 26                                  0000100000052900000020000
303947202100589310000011564     Ford F100 Ed. 27                                  0000100000052900000020000
303947202100589310000011567     Ford F100 Ed. 28                                  0000100000052900000020000
303947202100589310000011627     Ford F100 Ed. 29                                  0000100000052900000020000
303947202100589310000011665     Ford F100 Ed. 31                                  0000100000052900000020000
303947202100589320000011668     Ford F100 Ed. 32                                  0000100000052900000020000
503947202000113/06/202011/06/2020PAGO      000100000345040000034504                                                                                                                                                                                                                                                                                                            
20394720313440891AMANDA ROSA                                       acklesamanda@gmail.com                                                000155405367620021248219530000002198684640FF21220340R IANDU                                           220       CASA 4                                            IRAJA                         RIO DE JANEIRO                RJ30000109/06/20200000006826PAC            000000183600000000000000000000000000000000000      71100765         10/06/202000000068260000000000ISENTO      01
303947203100592690000009953     One Piece Ed. 15                                  0000100000049900000030000
503947203000114/06/202011/06/2020PAGO      000100000068260000006826                                                                                                                                                                                                                                                                                                            
20394720413441097JAILTON GONCALVES PRATES                          pratesjg@hotmail.com                                                  000028681239880042362723290000004299823898FM85015050TV EURALINA                                       319       CASA                                              SANTA CRUZ                    GUARAPUAVA                    PR30000109/06/20200000012744PAC            000000276400000000000000000000000000000000000      71100931         10/06/202000000127440000000000ISENTO      01
303947204100598740000008948     Chevrolet Collection Ed. 43                       0000100000049900000051600
303947204100598740000010585     Chevrolet Collection Ed. 62                       0000100000049900000051600
503947204000114/06/202011/06/2020PAGO      000100000127440000012744                                                                                                                                                                                                                                                                                                            
20394720511775580JOAO EUDES RAMOS JUNIOR                           tomebastiao@yahoo.com.br                                              000002516503830099331725160000008699470922FM64049680R DES ADALBERTO C LIMA                            845                                                         ININGA                        TERESINA                      PI30000110/06/20200000044135PAC            000001442800000000000000000000000000000000000      71101196         10/06/202000000441350000000000ISENTO      01
303947205100606860000010627     Livro Graphic Novels Marvel Ed. 120               0000100000047900000058200
303947205100606860000010613     Marvel Edicao Especial Limitada Thor Ed. 01       0000200000099900000123400
303947205100606860000010623     Marvel Edicao Especial Limitada Thor Ed. 02       0000100000099900000123400
303947205100606860000010729     Marvel Edicao Especial Limitada Thor Ed. 03       0000200000099900000123400
303947205100606860000010799     Livro Graphic Novels Marvel Ed. 121               0000100000047900000058200
303947205100606860000010801     Livro Graphic Novels Marvel Ed. 122               0000100000047900000058200
303947205100606860000010859     Livro Graphic Novels Marvel Ed. 123               0000100000047900000058200
303947205100606860000010910     Livro Graphic Novels Marvel Ed. 126               0000100000047900000058200
303947205100606860000011171     Livro Graphic Novels Marvel Ed. 127               0000100000047900000058200
303947205100606860000011174     Livro Graphic Novels Marvel Ed. 128               0000100000047900000058200
303947205100606870000011168     Livro Graphic Novels Marvel Ed. 130               0000100000047900000058200
503947205000115/06/202011/06/2020PAGO      000100000441350000044135                                                                                                                                                                                                                                                                                                            
20394720610774981GUSTAVO ADOLFO DE OLIVEIRA SILVA                  gaos98cris@gmail.com                                                  000780201311910061310316160000006198185515FM70257010Q SQS                                             309       SQS 408, BLOCO A, APT 309                         ASA SUL                       BRASILIA                      DF30000110/06/20200000033530PAC            000000412500000000000000000000000000000000000      71101276         10/06/202000000335300000000000ISENTO      01
303947206100608890000010197     Livro Graphic Novels Marvel Ed. 111               0000100000047900000058200
303947206100608890000010801     Livro Graphic Novels Marvel Ed. 122               0000100000047900000058200
303947206100608890000010859     Livro Graphic Novels Marvel Ed. 123               0000100000047900000058200
303947206100608900000010861     Livro Graphic Novels Marvel Ed. 124               0000100000047900000058200
303947206100608900000010904     Livro Graphic Novels Marvel Ed. 125               0000100000047900000058200
303947206100608900000010910     Livro Graphic Novels Marvel Ed. 126               0000100000047900000058200
303947206100608900000011171     Livro Graphic Novels Marvel Ed. 127               0000100000047900000058200
303947206100608900000011174     Livro Graphic Novels Marvel Ed. 128               0000100000047900000058200
303947206100608900000011165     Livro Graphic Novels Marvel Ed. 129               0000100000047900000058200
303947206100608900000011168     Livro Graphic Novels Marvel Ed. 130               0000100000047900000058200
303947206100608900000011428     Livro Graphic Novels Marvel Ed. 131               0000100000047900000058200
303947206100608900000011434     Livro Graphic Novels Marvel Ed. 132               0000100000047900000058200
303947206100608900000011437     Livro Graphic Novels Marvel Ed. 134               0000100000047900000058200
303947206100608910000011524     Livro Graphic Novels Marvel Ed. 135               0000100000047900000058200
503947206000115/06/202011/06/2020PAGO      000100000335300000033530                                                                                                                                                                                                                                                                                                            
20394720711688045SIDNEI LUIZ ZAVAREZZI                             sidneilz@yahoo.com.br                                                 000101842228500011384593450000001196550471FM04545042R STA JUSTINA                                     458       CASA 02                                           VILA OLIMPIA                  SAO PAULO                     SP30000110/06/20200000031525SEDEX          000000191000000000000000000000000000000000000      71101363         10/06/202000000315250000000000ISENTO      01
303947207100610380000004962     Instrumentos Musicais Ed. 63                      0000100000039900000014900
303947207100610380000005644     Instrumentos Musicais Ed. 74                      0000100000039900000014900
303947207100610380000008098     Guitar Collection Ed. 61                          0000100000044900000018500
303947207100610380000007420     Guitar Collection Ed. 305                         0000100000029900000018500
303947207100610380000008100     Guitar Collection Ed. 62                          0000100000044900000018500
303947207100610380000004593     Guitar Collection Ed. 04                          0000100000044900000018200
303947207100610380000008724     Guitar Collection Ed. 73                          0000100000044900000018500
303947207100610380000008814     Livro Marvel Heroes Ed. 50                        0000100000047900000058200
303947207100610380000009408     Descobrindo A Filosofia - Ed. 09                  0000100000036900000035000
303947207100610380000007650     Livro Marvel Heroes Ed. 68                        0000100000047900000058200
303947207100610390000010083     Descobrindo A Filosofia - Ed. 36                  0000100000036900000035000
303947207100610390000010809     Descobrindo A Filosofia - Ed. 60                  0000100000036900000035000
303947207100610390000011455     Livro Homem Aranha Ed. 39                         0000100000047900000061700
303947207100610390000010275     Descobrindo A Filosofia - Ed. 41                  0000100000036900000025000
303947207100610390000011607     LIVRO TEX ED. 39                                  0000100000049900000058200
503947207000115/06/202011/06/2020PAGO      000100000315250000031525                                                                                                                                                                                                                                                                                                            
20394720813442005RENATO FERNANDES LORDELLO                         renato.lordello@hotmail.com                                           000418666548610011945097440000001194509744FM02040090R AG GOMES                                        216       AP 24                                             JARDIM SAO PAULO(ZONA NORTE)  SAO PAULO                     SP30000110/06/20200000032085SEDEX          000000176800000000000000000000000000000000000      71101423         10/06/202000000320850000000000ISENTO      01
303947208100611960000008614     One Piece Ed. 01                                  0000100000044900000030000
303947208100611960000009544     One Piece Ed. 06                                  0000100000044900000030000
303947208100611970000009767     One Piece Ed. 10                                  0000100000049900000030000
303947208100611970000009951     One Piece Ed. 14                                  0000100000049900000030000
303947208100611970000009953     One Piece Ed. 15                                  0000100000049900000030000
303947208100611970000009957     One Piece Ed. 17                                  0000100000049900000030000
303947208100611970000009963     One Piece Ed. 20                                  0000100000049900000030000
303947208100611970000010547     ONE PIECE ED. 22                                  0000100000049900000030000
303947208100611970000009959     ONE PIECE ED. 18                                  0000100000049900000030000
303947208100611970000010775     ONE PIECE ED. 27                                  0000100000049900000030000
303947208100611970000010651     ONE PIECE ED. 25                                  0000100000049900000030000
303947208100611970000010894     ONE PIECE ED. 31                                  0000100000049900000030000
303947208100611980000011243     One Piece Ed. 39                                  0000100000052900000030000
503947208000115/06/202011/06/2020PAGO      000100000320850000032085                                                                                                                                                                                                                                                                                                            
20394720912733107SAMUEL DA CUNHA SANCHES                           rojenelson@outlook.com                                                000049224001920000000000000000006799187831FM79621130R ODONALDO F DUTRA                                187                                                         PARQUE SAO CARLOS             TRES LAGOAS                   MS30000110/06/20200000033530PAC            000000715700000000000000000000000000000000000      71101445         10/06/202000000335300000000000ISENTO      01
303947209100612470000005404     Livro Marvel Heroes Ed. 01                        0000100000047900000081700
303947209100612470000005412     Livro Marvel Heroes Ed. 03                        0000100000047900000066600
303947209100612470000005414     Livro Marvel Heroes Ed. 04                        0000100000047900000066700
303947209100612480000006232     Livro Marvel Heroes Ed. 07                        0000100000047900000066800
303947209100612480000006234     Livro Marvel Heroes Ed. 08                        0000100000047900000066800
303947209100612480000006366     Livro Marvel Heroes Ed. 09                        0000100000047900000069600
303947209100612480000006444     Livro Marvel Heroes Ed. 11                        0000100000047900000065900
303947209100612480000006446     Livro Marvel Heroes Ed. 12                        0000100000047900000065900
303947209100612480000007098     Livro Marvel Heroes Ed. 21                        0000100000047900000058300
303947209100612480000007100     Livro Marvel Heroes Ed. 22                        0000100000047900000058300
303947209100612480000007256     Livro Marvel Heroes Ed. 23                        0000100000047900000058300
303947209100612480000007364     Livro Marvel Heroes Ed. 25                        0000100000047900000058300
303947209100612480000007366     Livro Marvel Heroes Ed. 26                        0000100000047900000058300
303947209100612490000006368     Livro Marvel Heroes Ed. 10                        0000100000047900000069600
503947209000115/06/202011/06/2020PAGO      000100000335300000033530                                                                                                                                                                                                                                                                                                            
20394721010900330RICHARD DE PAULA OLIVEIRA                         richard.shampoo@gmail.com                                             000274392798400011986444550000001198464455FM01514001R DO GLICERIO                                     765       APTO 105                                          LIBERDADE                     SAO PAULO                     SP30000110/06/20200000065020SEDEX          000000240800000000000000000000000000000000000      71101542         10/06/202000000650200000000000ISENTO      01
303947210100616190000006974     Turma da Monica - Colecao Oficial de Miniaturas - 0000100000049900000037000
303947210100616190000007026     Turma da Monica - Colecao Oficial de Miniaturas - 0000100000049900000037000
303947210100616190000008182     Turma da Monica - Colecao Oficial de Miniaturas - 0000100000049900000037000
303947210100616190000008184     Turma da Monica - Colecao Oficial de Miniaturas - 0000100000049900000037000
303947210100616190000008524     Turma da Monica - Colecao Oficial de Miniaturas - 0000100000049900000037000
303947210100616190000008694     Turma da Monica - Colecao Oficial de Miniaturas - 0000100000049900000037000
303947210100616190000009236     Turma da Monica - Colecao Oficial de Miniaturas - 0000100000049900000037000
303947210100616200000008696     Turma da Monica - Colecao Oficial de Miniaturas - 0000100000049900000037000
303947210100616200000008890     Turma da Monica - Colecao Oficial de Miniaturas - 0000100000049900000037000
303947210100616200000009282     Turma da Monica - Colecao Oficial de Miniaturas - 0000100000049900000037000
303947210100616200000009751     Turma da Monica - Colecao Oficial de Miniaturas - 0000100000049900000037000
303947210100616200000009755     Turma da Monica - Colecao Oficial de Miniaturas - 0000100000049900000037000
303947210100616200000009991     Turma da Monica - Colecao Oficial de Miniaturas Ed0000100000049900000037000
303947210100616200000009995     Turma da Monica - Colecao Oficial de Miniaturas Ed0000100000049900000037000
303947210100616200000009997     Turma da Monica - Colecao Oficial de Miniaturas Ed0000100000049900000037000
303947210100616200000010329     Turma da Monica - Colecao Oficial de Miniaturas Ed0000100000049900000037000
303947210100616200000010331     Turma da Monica - Colecao Oficial de Miniaturas Ed0000100000049900000037000
303947210100616210000010337     Turma da Monica Ed. 45                            0000100000049900000037000
303947210100616210000010705     Turma da Monica - Colecao Oficial de Miniaturas Ed0000100000049900000037000
303947210100616210000010649     Turma da Monica - Colecao Oficial de Miniaturas Ed0000100000049900000037000
303947210100616210000010647     Turma da Monica - Colecao Oficial de Miniaturas Ed0000100000049900000037000
303947210100616210000010645     Turma da Monica - Colecao Oficial de Miniaturas Ed0000100000049900000037000
303947210100616210000010825     Turma da Monica - Colecao Oficial de Miniaturas Ed0000100000049900000037000
303947210100616210000010707     Turma da Monica - Colecao Oficial de Miniaturas Ed0000100000049900000037000
303947210100616210000010833     Turma da Monica - Colecao Oficial de Miniaturas Ed0000100000052900000037000
303947210100616210000010831     Turma da Monica Ed. 54                            0000100000049900000037000
503947210000115/06/202011/06/2020PAGO      000100000650200000065020                                                                                                                                                                                                                                                                                                            
20394721113121049RODRIGO COCHRANE ESTEVES                          rcecochrane@yahoo.com.br                                              000118901237570021981831130000002198183113FM20780200R FERREIRA DE ANDRADE                             537       BL3AP1206                                         CACHAMBI                      RIO DE JANEIRO                RJ30000110/06/20200000060490PAC            000000743100000000000000000000000000000000000      71101549         10/06/202000000604900000000000ISENTO      01
303947211100616310000006488     Livro Marvel Heroes Ed. 13                        0000100000047900000065900
303947211100616310000007100     Livro Marvel Heroes Ed. 22                        0000100000047900000058300
303947211100616310000007960     Livro Marvel Heroes Ed. 33                        0000100000047900000058300
303947211100616310000007962     Livro Marvel Heroes Ed. 34                        0000100000047900000058300
303947211100616310000008072     Livro Marvel Heroes Ed. 35                        0000100000047900000058300
303947211100616320000006368     Livro Marvel Heroes Ed. 10                        0000100000047900000069600
303947211100616320000007260     Livro Graphic Novels Marvel Ed. 61                0000100000047900000064700
303947211100616320000008932     Livro Marvel Heroes Ed. 52                        0000100000047900000058200
303947211100616320000008994     Livro Marvel Heroes Ed. 54                        0000100000047900000058200
303947211100616320000008704     Livro Marvel Heroes Ed. 47                        0000100000047900000058200
303947211100616320000009716     Livro Graphic Novels Marvel Ed. 101               0000100000047900000058200
303947211100616320000009420     Livro Marvel Heroes Ed. 59                        0000100000047900000058200
303947211100616320000007648     Livro Marvel Heroes Ed. 67                        0000100000047900000058200
303947211100616320000009927     Livro Graphic Novels Marvel Ed. 105               0000100000047900000058200
303947211100616320000009833     Livro Marvel Heroes Ed. 66                        0000100000047900000058200
303947211100616330000010451     Livro Graphic Novels Marvel Ed. 118               0000100000047900000058200
303947211100616330000010613     Marvel Edicao Especial Limitada Thor Ed. 01       0000100000099900000123400
303947211100616330000010623     Marvel Edicao Especial Limitada Thor Ed. 02       0000100000099900000123400
303947211100616330000010729     Marvel Edicao Especial Limitada Thor Ed. 03       0000100000099900000123400
303947211100616330000010801     Livro Graphic Novels Marvel Ed. 122               0000100000047900000058200
303947211100616330000011165     Livro Graphic Novels Marvel Ed. 129               0000100000047900000058200
303947211100616330000011509     Livro Marvel Heroes Ed. 99                        0000100000047900000058200
503947211000115/06/202011/06/2020PAGO      000100000604900000060490                                                                                                                                                                                                                                                                                                            
20394721213139245CESAR LACERDA                                     crlacerda01@gmail.com                                                 000836477087040000000000000000002799962176FM29101200R JOAO J DA MOTA                                  320       AP 303                                            PRAIA DA COSTA                VILA VELHA                    ES30000110/06/20200000032135PAC            000000682500000000000000000000000000000000000      71101590         10/06/202000000321350000000000ISENTO      01
303947212100617370000007044     Livro Graphic Novels Marvel Ed. 59                0000100000047900000070000
303947212100617370000009400     Livro Graphic Novels Marvel Ed. 95                0000100000047900000064700
303947212100617370000009680     Livro Homem-Aranha Ed. 08                         0000100000047900000061700
303947212100617370000010383     LIVRO TEX ED. 09                                  0000100000049900000058200
303947212100617370000010989     LIVRO TEX ED. 21                                  0000100000049900000058200
303947212100617370000010992     LIVRO TEX ED. 22                                  0000100000049900000058200
303947212100617370000011081     LIVRO TEX ED. 24                                  0000100000049900000058200
303947212100617380000011473     LIVRO TEX ED. 25                                  0000100000049900000058200
303947212100617380000011470     Livro Tex Ed. 26                                  0000100000049900000058200
303947212100617380000011467     Livro Tex Ed. 27                                  0000100000049900000058200
303947212100617380000011570     LIVRO TEX ED. 36                                  0000100000049900000058200
303947212100617380000011575     LIVRO TEX ED. 37                                  0000100000049900000058200
303947212100617380000011607     LIVRO TEX ED. 39                                  0000100000049900000058200
503947212000115/06/202011/06/2020PAGO      000100000321350000032135                                                                                                                                                                                                                                                                                                            
20394731313398888ARINELHO DE ARAUJO XAVIER                         arinelhoxavieraj@gmail.com                                            000427753534870083866951580000000000000000FM58407363R MANOEL G GUIMARAES                              19        5                                                 JOSE PINHEIRO                 CAMPINA GRANDE                PB10000111/06/20200000021831PAC            000000686130000000000000000112026000000000000                       11/06/202000000218310000000000ISENTO      01
303947313100625880000010319     LIVRO TEX ED. 07                                  0000100000049900000058200
303947313100625890000010741     LIVRO TEX ED. 13                                  0000100000049900000058200
303947313100625890000010992     LIVRO TEX ED. 22                                  0000100000049900000058200
503947313000111/06/202011/06/2020PAGO      000100000218310000021831                                                                                                                                                                                                                                                                                                            
20394735713271745TIAGO SALVIATTI                                   tsalviatti@gmail.com                                                  000323544298780000000000000000001999289784FM13480700AV NOVE DE JULHO                                  525       CASA                                              PARQUE REAL                   LIMEIRA                       SP10000111/06/20200000011835SEDEX          000000163630000000000000000032028000000000000                       11/06/202000000118350000000000ISENTO      01
303947357100626720000010079     Descobrindo A Filosofia - Ed. 34                  0000100000036900000035000
303947357100626730000010623     Marvel Edicao Especial Limitada Thor Ed. 02       0000100000099900000123400
303947357100626730000010729     Marvel Edicao Especial Limitada Thor Ed. 03       0000100000099900000123400
503947357000111/06/202011/06/2020PAGO      000100000118350000011835                                                                                                                                                                                                                                                                                                            
20394738213094435CLAUDIO ITO                                       PREVIDENCIARISTA@HOTMAIL.COM                                          000993756489150043991165130000000000000000FM86058100AV GIL DE A SOUZA                                 1770      CASA 70                                           ESPERANCA                     LONDRINA                      PR10000111/06/20200000012344PAC            000000276420000000000000000102024000000000000                       11/06/202000000123440000000000ISENTO      01
303947382100627490000011509     Livro Marvel Heroes Ed. 99                        0000100000047900000058200
303947382100627490000011512     Livro Marvel Heroes Ed. 100                       0000100000047900000058200
503947382000111/06/202011/06/2020PAGO      000100000123440000012344                                                                                                                                                                                                                                                                                                            
20394739613414616ADRIANO FERREIRA DE SOUSA                         adrianoferreiradesousa@yahoo.com.br                                   000364145298850011256686260000001198821798FM08141720R ORVALHEIRA                                      80        CASA                                              JARDIM CAMARGO NOVO           SAO PAULO                     SP10000111/06/20200000011975SEDEX          000000176830000000000000000102027000000000000                       11/06/202000000119750000000000ISENTO      01
303947396100627680000007960     Livro Marvel Heroes Ed. 33                        0000100000047900000058300
303947396100627680000005492     Livro Graphic Novels Marvel Ed. 31                0000100000047900000070300
303947396100627680000006038     Livro Graphic Novels Marvel Ed. 44                0000100000047900000070000
303947396100627680000007260     Livro Graphic Novels Marvel Ed. 61                0000100000047900000064700
303947396100627680000009634     Livro Graphic Novels Marvel Ed. 100               0000100000047900000058200
503947396000111/06/202011/06/2020PAGO      000100000119750000011975                                                                                                                                                                                                                                                                                                            
20394755911727089VINICIUS RODRIGUES QUEIROZ                        viniciusrqueiroz@yahoo.com.br                                         000987232431040065361527830000006198283816FM70670110Q SQSW                                            101       SQSW 101 BL. J AP 404                             SETOR SUDOESTE                BRASILIA                      DF10000409/06/20200000090860PAC            000001059930000000000000000082028000000000000                       11/06/202000000908600000000000ISENTO      01
303947559100605810000006488     Livro Marvel Heroes Ed. 13                        0000100000047900000065900
303947559100605810000007998     Guitar Collection Ed. 57                          0000100000044900000018500
303947559100605810000008496     Livro Marvel Heroes Ed. 44                        0000100000047900000058300
303947559100605810000008992     Livro Marvel Heroes Ed. 53                        0000100000047900000058200
303947559100605810000008994     Livro Marvel Heroes Ed. 54                        0000100000047900000058200
303947559100605820000008704     Livro Marvel Heroes Ed. 47                        0000100000047900000058200
303947559100605820000009716     Livro Graphic Novels Marvel Ed. 101               0000100000047900000058200
303947559100605820000009676     Livro Marvel Heroes Ed. 62                        0000100000047900000058200
303947559100605820000007648     Livro Marvel Heroes Ed. 67                        0000100000047900000058200
303947559100605820000010197     Livro Graphic Novels Marvel Ed. 111               0000100000047900000058200
303947559100605820000010199     Livro Graphic Novels Marvel Ed. 112               0000100000047900000058200
303947559100605820000010451     Livro Graphic Novels Marvel Ed. 118               0000100000047900000058200
303947559100605820000010449     Livro Graphic Novels Marvel Ed. 117               0000100000047900000058200
303947559100605820000010145     Livro Marvel Heroes Ed. 72                        0000100000047900000058200
303947559100605820000010285     Livro Marvel Heroes Ed. 76                        0000100000047900000058200
303947559100605830000010627     Livro Graphic Novels Marvel Ed. 120               0000100000047900000058200
303947559100605830000010799     Livro Graphic Novels Marvel Ed. 121               0000100000047900000058200
303947559100605830000010735     Livro Marvel Heroes Ed. 82                        0000100000047900000058200
303947559100605830000010801     Livro Graphic Novels Marvel Ed. 122               0000100000047900000058200
303947559100605830000010737     Livro Marvel Heroes Ed. 83                        0000100000047900000058200
303947559100605830000010859     Livro Graphic Novels Marvel Ed. 123               0000100000047900000058200
303947559100605830000010861     Livro Graphic Novels Marvel Ed. 124               0000100000047900000058200
303947559100605830000010904     Livro Graphic Novels Marvel Ed. 125               0000100000047900000058200
303947559100605830000010910     Livro Graphic Novels Marvel Ed. 126               0000100000047900000058200
303947559100605830000011171     Livro Graphic Novels Marvel Ed. 127               0000100000047900000058200
303947559100605840000011174     Livro Graphic Novels Marvel Ed. 128               0000100000047900000058200
303947559100605840000011165     Livro Graphic Novels Marvel Ed. 129               0000100000047900000058200
303947559100605840000011168     Livro Graphic Novels Marvel Ed. 130               0000100000047900000058200
303947559100605840000011428     Livro Graphic Novels Marvel Ed. 131               0000100000047900000058200
303947559100605840000011434     Livro Graphic Novels Marvel Ed. 132               0000100000047900000058200
303947559100605840000011437     Livro Graphic Novels Marvel Ed. 134               0000100000047900000058200
303947559100605840000011446     Livro Marvel Heroes Ed. 93                        0000100000047900000058200
303947559100605840000011440     Livro Marvel Heroes Ed. 95                        0000100000047900000058200
303947559100605840000011506     Livro Marvel Heroes Ed. 97                        0000100000047900000058200
303947559100605840000011515     Livro Marvel Heroes Ed. 98                        0000100000047900000058200
303947559100605850000011509     Livro Marvel Heroes Ed. 99                        0000100000047900000058200
303947559100605850000011512     Livro Marvel Heroes Ed. 100                       0000100000047900000058200
303947559100605850000011524     Livro Graphic Novels Marvel Ed. 135               0000100000047900000058200
503947559000409/06/202011/06/2020PAGO      000400000227150000090860                                                                                                                                                                                                                                                                                                            
20394756013197716RODRIGO CARVALHO PASSOS                           rodrigopassos@yahoo.com.br                                            000962240966000035347118170000003598428557FM37540000PRACA SANTA RITA                                  113       SALA 07                                           CENTRO                        SANTA RITA DO SAPUCAI         MG10000410/06/20200000093405PAC            000000835010000000000000000022022000000000000                       11/06/202000000934040000000000ISENTO      01
303947560100607050000004968     Livro Graphic Novels Marvel Ed. 24                0000100000047900000068500
303947560100607050000005660     Livro Graphic Novels Marvel Ed. 36                0000100000047900000063500
303947560100607050000005826     Livro Graphic Novels Marvel Ed. 39                0000100000047900000063200
303947560100607050000005828     Livro Graphic Novels Marvel Ed. 40                0000100000047900000063200
303947560100607050000005988     Livro Graphic Novels Marvel Ed. 41                0000100000047900000070300
303947560100607050000006036     Livro Graphic Novels Marvel Ed. 43                0000100000047900000070000
303947560100607050000006038     Livro Graphic Novels Marvel Ed. 44                0000100000047900000070000
303947560100607060000006206     Livro Graphic Novels Marvel Ed. 46                0000100000047900000063500
303947560100607060000006312     Livro Graphic Novels Marvel Ed. 47                0000100000047900000068500
303947560100607060000006314     Livro Graphic Novels Marvel Ed. 48                0000100000047900000068500
303947560100607060000006428     Livro Graphic Novels Marvel Ed. 49                0000100000047900000068000
303947560100607060000006430     Livro Graphic Novels Marvel Ed. 50                0000100000047900000068000
303947560100607060000006648     Livro Graphic Novels Marvel Ed. 53                0000100000047900000065000
303947560100607060000006650     Livro Graphic Novels Marvel Ed. 54                0000100000047900000065000
303947560100607060000006898     Livro Graphic Novels Marvel Ed. 57                0000100000047900000070000
303947560100607060000006900     Livro Graphic Novels Marvel Ed. 58                0000100000047900000070000
303947560100607060000007044     Livro Graphic Novels Marvel Ed. 59                0000100000047900000070000
303947560100607070000007046     Livro Graphic Novels Marvel Ed. 60                0000100000047900000070000
303947560100607070000007262     Livro Graphic Novels Marvel Ed. 62                0000100000047900000064700
303947560100607070000009777     Livro Marvel Heroes Ed. 63                        0000100000047900000058200
303947560100607070000009779     Livro Marvel Heroes Ed. 64                        0000100000047900000058200
303947560100607070000007648     Livro Marvel Heroes Ed. 67                        0000100000047900000058200
303947560100607070000007650     Livro Marvel Heroes Ed. 68                        0000100000047900000058200
303947560100607070000009831     Livro Marvel Heroes Ed. 65                        0000100000047900000058200
303947560100607070000009833     Livro Marvel Heroes Ed. 66                        0000100000047900000058200
303947560100607070000010145     Livro Marvel Heroes Ed. 72                        0000100000047900000058200
303947560100607070000010285     Livro Marvel Heroes Ed. 76                        0000100000047900000058200
303947560100607080000010735     Livro Marvel Heroes Ed. 82                        0000100000047900000058200
303947560100607080000010737     Livro Marvel Heroes Ed. 83                        0000100000047900000058200
303947560100607080000011084     Livro Marvel Heroes Ed. 91                        0000100000047900000058200
303947560100607080000011087     Livro Marvel Heroes Ed. 92                        0000100000047900000058200
303947560100607080000011446     Livro Marvel Heroes Ed. 93                        0000100000047900000058200
303947560100607080000011443     Livro Marvel Heroes Ed. 94                        0000100000047900000058200
303947560100607080000011440     Livro Marvel Heroes Ed. 95                        0000100000047900000058200
303947560100607080000011449     Livro Marvel Heroes Ed. 96                        0000100000047900000058200
303947560100607080000011506     Livro Marvel Heroes Ed. 97                        0000100000047900000058200
303947560100607080000011515     Livro Marvel Heroes Ed. 98                        0000100000047900000058200
303947560100607090000011509     Livro Marvel Heroes Ed. 99                        0000100000047900000058200
303947560100607090000011512     Livro Marvel Heroes Ed. 100                       0000100000047900000058200
503947560000410/06/202011/06/2020PAGO      000400000233510000093404                                                                                                                                                                                                                                                                                                            
20394759113443047ALEX SOARES PIRES MARTINS                         eaealex@gmail.com                                                     000101749147090022273733150000002299940679FM28024492R CARDOSO MOREIRA                                 382       CS 7                                              TURF CLUB                     CAMPOS DOS GOYTACAZES         RJ10000111/06/20200000013239PAC            000000276420000000000000000102024000000000000                       11/06/202000000132390000000000ISENTO      01
303947591100630760000009953     One Piece Ed. 15                                  0000100000049900000030000
303947591100630760000009955     One Piece Ed. 16                                  0000100000049900000030000
303947591100630760000009957     One Piece Ed. 17                                  0000100000049900000030000
303947591100630760000010775     ONE PIECE ED. 27                                  0000100000049900000030000
303947591100630770000010894     ONE PIECE ED. 31                                  0000100000049900000030000
503947591000111/06/202011/06/2020PAGO      000100000132390000013239                                                                                                                                                                                                                                                                                                            
20394761412842425FILIPE PRADO MENCARI                              fmencari@gmail.com                                                    000078411997080021260166450000002199433847FM24451590R MARIO RUCH                                      75        APTO 106                                          COLUBANDE                     SAO GONCALO                   RJ10000111/06/20200000014061PAC            000000408630000000000000000022028000000000000                       11/06/202000000140610000000000ISENTO      01
303947614100631290000005414     Livro Marvel Heroes Ed. 04                        0000100000047900000066700
303947614100631290000008278     Livro Marvel Heroes Ed. 40                        0000100000047900000058300
303947614100631290000007916     Livro Graphic Novels Marvel Ed. 72                0000100000047900000064700
303947614100631290000009718     Livro Graphic Novels Marvel Ed. 102               0000100000047900000058200
303947614100631300000010347     Livro Graphic Novels Marvel Ed. 115               0000100000047900000058200
503947614000111/06/202011/06/2020PAGO      000100000140610000014061                                                                                                                                                                                                                                                                                                            
20394764113443080HIGOR COELHO ALMEIDA MATOS                        coelhohigor84@gmail.com                                               000106999257700021967264720000002196726472FM20770070R SALES GUIMARAES                                 31                                                          ENGENHO DE DENTRO             RIO DE JANEIRO                RJ10000111/06/20200000018049PAC            000000258430000000000000000062027000000000000                       11/06/202000000180490000000000ISENTO      01
303947641100631910000009282     Turma da Monica - Colecao Oficial de Miniaturas - 0000100000049900000037000
303947641100631910000009991     Turma da Monica - Colecao Oficial de Miniaturas Ed0000100000049900000037000
303947641100631920000009995     Turma da Monica - Colecao Oficial de Miniaturas Ed0000100000049900000037000
303947641100631920000010647     Turma da Monica - Colecao Oficial de Miniaturas Ed0000100000049900000037000
303947641100631920000010645     Turma da Monica - Colecao Oficial de Miniaturas Ed0000100000049900000037000
303947641100631920000010829     Turma da Monica - Colecao Oficial de Miniaturas Ed0000100000049900000037000
303947641100631920000010707     Turma da Monica - Colecao Oficial de Miniaturas Ed0000100000049900000037000
503947641000111/06/202011/06/2020PAGO      000100000180490000018049                                                                                                                                                                                                                                                                                                            
9000044
