113-05-2020 10:38:03
20384940113356431ROBERVALDO VENTURA PINTO                          venturafn@gmail.com                                                   000725652687340082996858760000008299685876FM57081205R EDITH B BRITO                                   91        CONJUNTO SALVADOR LIRA, QD. 03                    TABULEIRO DO MARTINS          MACEIO                        AL30000131/03/20200000006131PAC            000000613100000000000000000000000000000000000      71060551         31/03/202000000061310000000000ISENTO      01
503849401000105/04/202001/04/2020PAGO      000100000061310000006131                                                                                                                                                                                                                                                                                                            
20390084513408099RAFAEL MARQUES SANSAO BORGES                      rafaelsansao123@gmail.com                                             000368988258360011345908840000001195649664FM04010200R DOMINGOS DE MORAIS                              1338      92C                                               VILA MARIANA                  SAO PAULO                     SP10000410/05/20200000031135SEDEX          000000000020000000000000000112026000000000000                       10/05/202000000311360000000000ISENTO      01
303900845100118940000007260     Livro Graphic Novels Marvel Ed. 61                0000100000047900000064700
303900845100118950000007654     Livro Graphic Novels Marvel Ed. 68                0000100000047900000064700
303900845100118950000008620     Livro Graphic Novels Marvel Ed. 84                0000100000047900000064700
303900845100118950000008744     Livro Graphic Novels Marvel Ed. 86                0000100000047900000064700
303900845100118950000008780     Livro Graphic Novels Marvel Ed. 88                0000100000047900000064700
303900845100118950000008980     Livro Graphic Novels Marvel Ed. 91                0000100000047900000064700
303900845100118950000008982     Livro Graphic Novels Marvel Ed. 92                0000100000047900000064700
303900845100118950000009402     Livro Graphic Novels Marvel Ed. 96                0000100000047900000058200
303900845100118950000009414     Livro Graphic Novels Marvel Ed. 98                0000100000047900000058200
303900845100118950000009632     Livro Graphic Novels Marvel Ed. 99                0000100000047900000058200
303900845100118950000009716     Livro Graphic Novels Marvel Ed. 101               0000100000047900000058200
303900845100118960000009718     Livro Graphic Novels Marvel Ed. 102               0000100000047900000058200
303900845100118960000009863     Livro Graphic Novels Marvel Ed. 103               0000100000047900000058200
503900845000410/05/202011/05/2020PAGO      000400000077840000031136                                                                                                                                                                                                                                                                                                            
20390085013408099RAFAEL MARQUES SANSAO BORGES                      rafaelsansao123@gmail.com                                             000368988258360011345908840000001195649664FM04010200R DOMINGOS DE MORAIS                              1338      92C                                               VILA MARIANA                  SAO PAULO                     SP10000410/05/20200000033530SEDEX          000000000020000000000000000112026000000000000                       10/05/202000000335320000000000ISENTO      01
303900850100119210000010799     Livro Graphic Novels Marvel Ed. 121               0000100000047900000058200
303900850100119210000010801     Livro Graphic Novels Marvel Ed. 122               0000100000047900000058200
303900850100119210000010859     Livro Graphic Novels Marvel Ed. 123               0000100000047900000058200
303900850100119210000010861     Livro Graphic Novels Marvel Ed. 124               0000100000047900000058200
303900850100119210000010904     Livro Graphic Novels Marvel Ed. 125               0000100000047900000058200
303900850100119210000010910     Livro Graphic Novels Marvel Ed. 126               0000100000047900000058200
303900850100119220000011171     Livro Graphic Novels Marvel Ed. 127               0000100000047900000058200
303900850100119220000011174     Livro Graphic Novels Marvel Ed. 128               0000100000047900000058200
303900850100119220000011165     Livro Graphic Novels Marvel Ed. 129               0000100000047900000058200
303900850100119220000011168     Livro Graphic Novels Marvel Ed. 130               0000100000047900000058200
303900850100119220000011428     Livro Graphic Novels Marvel Ed. 131               0000100000047900000058200
303900850100119220000011434     Livro Graphic Novels Marvel Ed. 132               0000100000047900000058200
303900850100119220000011437     Livro Graphic Novels Marvel Ed. 134               0000100000047900000058200
303900850100119220000011524     Livro Graphic Novels Marvel Ed. 135               0000100000047900000058200
503900850000410/05/202011/05/2020PAGO      000400000083830000033532                                                                                                                                                                                                                                                                                                            
20390208713408942GABRIEL BERNARDINA                                gabriel.formigoni.db@gmail.com                                        000182562167510000000000000000002799644410FM29701600R ARNALDO COTTA                                   393       INTERCOL TELECOMUNICACOES                         MOACIR BROTAS                 COLATINA                      ES10000111/05/20200000007119PAC            000000232930000000000000000122026000000000000                       11/05/202000000071190000000000ISENTO      01
303902087100134190000007846     Livro Marvel Heroes Ed. 31                        0000100000047900000058300
503902087000111/05/202011/05/2020PAGO      000100000071190000007119                                                                                                                                                                                                                                                                                                            
20390220312901624AUREO GOMES ZANATTA                               aureozas@yahoo.com.br                                                 000468326370040031334704200000003199590052FM30882630R AGILIO C DE SOUZA                               815       AP 301                                            SERRANO                       BELO HORIZONTE                MG10000111/05/20200000015970PAC            000000000030000000000000000102024000000000000                       11/05/202000000159700000000000ISENTO      01
303902203100136320000011607     LIVRO TEX ED. 39                                  0000100000049900000058200
303902203100136320000011604     LIVRO TEX ED. 40                                  0000100000049900000058200
303902203100136320000011722     LIVRO TEX ED. 41                                  0000100000059900000058200
503902203000111/05/202011/05/2020PAGO      000100000159700000015970                                                                                                                                                                                                                                                                                                            
20390225012624456RHAULIM ARAUJO ROLIM                              Rhaulim@hotmail.com                                                   000005796831410062996640130000000000000000FM76410000AVENIDA MARANHAO                                  459       RR ADVOCACIA                                      CENTRO                        CAMPINORTE                    GO10000211/05/20200000010493PAC            000000000020000000000000000032025000000000000                       11/05/202000000104940000000000ISENTO      01
303902250100137120000011205     Os mitos da Ferrari Ed. 08                        0000100000149900000050000
503902250000211/05/202011/05/2020PAGO      000200000052470000010494                                                                                                                                                                                                                                                                                                            
20390229912210212LUCILENE RODRIGUES DE FREITAS                     lucysp67@gmail.com                                                    00008760245840001199173-410000001199173-41FF03242060R PRF EURICO VILELA                               105       PQ S LUCAS                                        CIDADE CONTINENTAL            SAO PAULO                     SP10000111/05/20200000045829SEDEX          000000000030000000000000000102024000000000000                       11/05/202000000458290000000000ISENTO      01
303902299100137900000009282     Turma da Monica - Colecao Oficial de Miniaturas - 0000100000049900000037000
303902299100137900000009755     Turma da Monica - Colecao Oficial de Miniaturas - 0000100000049900000037000
303902299100137900000009995     Turma da Monica - Colecao Oficial de Miniaturas Ed0000100000049900000037000
303902299100137900000009997     Turma da Monica - Colecao Oficial de Miniaturas Ed0000100000049900000037000
303902299100137900000010705     Turma da Monica - Colecao Oficial de Miniaturas Ed0000100000049900000037000
303902299100137900000010649     Turma da Monica - Colecao Oficial de Miniaturas Ed0000100000049900000037000
303902299100137910000010647     Turma da Monica - Colecao Oficial de Miniaturas Ed0000100000049900000037000
303902299100137910000010829     Turma da Monica - Colecao Oficial de Miniaturas Ed0000100000049900000037000
303902299100137910000010827     Turma da Monica - Colecao Oficial de Miniaturas Ed0000100000049900000037000
303902299100137910000010825     Turma da Monica - Colecao Oficial de Miniaturas Ed0000100000049900000037000
303902299100137910000010833     Turma da Monica - Colecao Oficial de Miniaturas Ed0000100000052900000037000
303902299100137910000010835     Turma da Monica - Colecao Oficial de Miniaturas Ed0000100000052900000037000
303902299100137910000010831     Turma da Monica Ed. 54                            0000100000049900000037000
503902299000111/05/202011/05/2020PAGO      000100000458290000045829                                                                                                                                                                                                                                                                                                            
20390230113409093PAULO ROBERTO DE AZEVEDO FELIX                    felixpaulo76@gmail.com                                                000388825038280011979582410000000000000000FM05821150R SEBASTIAO M DE SOUSA                            418       CASA                                              PARQUE SANTO ANTONIO          SAO PAULO                     SP10000111/05/20200000005958SEDEX          000000116820000000000000000092023000000000000                       11/05/202000000059580000000000ISENTO      01
303902301100137910000005826     Livro Graphic Novels Marvel Ed. 39                0000100000047900000063200
503902301000111/05/202011/05/2020PAGO      000100000059580000005958                                                                                                                                                                                                                                                                                                            
20390235413409451FERNANDO GARCIA ALGARTE FILHO                     Fernandinhogarcia00@gmail.com                                         000045663159320043342217290000004399913211FM86800190R PIO XII                                         283       CASA                                              BARRA FUNDA                   APUCARANA                     PR10000111/05/20200000009315PAC            000000232930000000000000000052027000000000000                       11/05/202000000093150000000000ISENTO      01
303902354100138530000008890     Turma da Monica - Colecao Oficial de Miniaturas - 0000100000049900000037000
303902354100138530000010831     Turma da Monica Ed. 54                            0000100000049900000037000
503902354000111/05/202011/05/2020PAGO      000100000093150000009315                                                                                                                                                                                                                                                                                                            
20390236812828938LENIMAR NUNES DE ANDRADE                          rnpatu@gmail.com                                                      000299457474870083302436480000008399330212FM58052060R DOS EUCALIPTOS                                  227       CASA                                              ANATOLIA                      JOAO PESSOA                   PB10000111/05/20200000025950PAC            000000000030000000000000000102024000000000000                       11/05/202000000259500000000000ISENTO      01
303902368100138780000010989     LIVRO TEX ED. 21                                  0000100000049900000058200
303902368100138790000010992     LIVRO TEX ED. 22                                  0000100000049900000058200
303902368100138790000011467     Livro Tex Ed. 27                                  0000100000049900000058200
303902368100138790000011464     LIivro Tex Ed. 28                                 0000100000049900000058200
303902368100138790000011722     LIVRO TEX ED. 41                                  0000100000059900000058200
503902368000111/05/202011/05/2020PAGO      000100000259500000025950                                                                                                                                                                                                                                                                                                            
20390257413404677ALEXANDRE FREITAS ARAUJO                          alexandrefaraujo83@outlook.com                                        000910416863150088988411510000008898841151FM62570000RUA PADRE ODECIO                                  1331      A                                                 CORREGUINHO                   BELA CRUZ                     CE10000106/05/20200000021460PAC            000000000030000000000000000122021000000000000                       12/05/202000000214600000000000ISENTO      01
303902574100070200000010041     Chevrolet Collection Ed. 505                      0000100000054900000051600
303902574100070200000010791     Chevrolet Collection Ed. 509                      0000100000054900000051600
303902574100070200000010691     Chevrolet Collection Ed. 65                       0000100000049900000051600
303902574100070200000011348     Chevrolet Collection Ed. 511                      0000100000054900000051600
503902574000106/05/202012/05/2020PAGO      000100000214600000021460                                                                                                                                                                                                                                                                                                            
20390257513388971ALEX SANDRO NUNES GOMES                           ale-xis13@hotmail.com                                                 000224083838890000000000000000001196403110FM08527090R MINIE                                           629       CASA 40                                           PARQUE DOURADO                FERRAZ DE VASCONCELOS         SP10000106/05/20200000021160SEDEX          000000000030000000000000000082027000000000000                       12/05/202000000211600000000000ISENTO      01
303902575100073180000011665     Ford F100 Ed. 31                                  0000100000052900000020000
303902575100073180000011668     Ford F100 Ed. 32                                  0000100000052900000020000
303902575100073180000011670     Ford F100 Ed. 33                                  0000100000052900000020000
303902575100073180000011672     Ford F100 Ed. 34                                  0000100000052900000020000
503902575000106/05/202012/05/2020PAGO      000100000211600000021160                                                                                                                                                                                                                                                                                                            
20390257610779717CLAUDIO ROMERO                                    claudio.romero7@gmail.com                                             0001077775687000114362-3960000001198344-55FM09626000AV MIN OSWALDO ARANHA                             23        APTO 52 A                                         RUDGE RAMOS                   SAO BERNARDO DO CAMPO         SP10000108/05/20200000042763SEDEX          000000000030000000000000000012025000000000000                       12/05/202000000427630000000000ISENTO      01
303902576100091300000010697     Chevrolet Collection Ed. 68                       0000100000049900000051600
303902576100091300000011275     Ford F100 Ed. 13                                  0000200000052900000020000
303902576100091300000011680     Ford F100 Ed. 35                                  0000400000056900000020000
303902576100091300000011686     Ford F100 Ed. 36                                  0000400000056900000020000
503902576000108/05/202012/05/2020PAGO      000100000427630000042763                                                                                                                                                                                                                                                                                                            
20390257713407187JONAS HENRIQUE MIRA                               jonas.mira@hotmail.com                                                000406166808050016337418120000001699735993FM13569390R DR ASTOLFO DE ARAUJO                            215                                                         JARDIM NOSSA SENHORA APARECIDASAO CARLOS                    SP10000109/05/20200000086220PAC            000000000030000000000000000012027000000000000                       12/05/202000000862200000000000ISENTO      01
303902577100102620000010109     Livro Graphic Novels Marvel Ed. 109               0000100000047900000058200
303902577100102620000010111     Livro Graphic Novels Marvel Ed. 110               0000100000047900000058200
303902577100102630000010197     Livro Graphic Novels Marvel Ed. 111               0000100000047900000058200
303902577100102630000010317     Livro Graphic Novels Marvel Ed. 114               0000100000047900000058200
303902577100102630000010451     Livro Graphic Novels Marvel Ed. 118               0000100000047900000058200
303902577100102630000010449     Livro Graphic Novels Marvel Ed. 117               0000100000047900000058200
303902577100102630000010349     Livro Graphic Novels Marvel Ed. 116               0000100000047900000058200
303902577100102630000010627     Livro Graphic Novels Marvel Ed. 120               0000100000047900000058200
303902577100102630000010799     Livro Graphic Novels Marvel Ed. 121               0000100000047900000058200
303902577100102630000010801     Livro Graphic Novels Marvel Ed. 122               0000100000047900000058200
303902577100102630000010861     Livro Graphic Novels Marvel Ed. 124               0000100000047900000058200
303902577100102630000010904     Livro Graphic Novels Marvel Ed. 125               0000100000047900000058200
303902577100102640000011165     Livro Graphic Novels Marvel Ed. 129               0000100000047900000058200
303902577100102640000011168     Livro Graphic Novels Marvel Ed. 130               0000100000047900000058200
303902577100102640000011428     Livro Graphic Novels Marvel Ed. 131               0000100000047900000058200
303902577100102640000011434     Livro Graphic Novels Marvel Ed. 132               0000100000047900000058200
303902577100102640000011437     Livro Graphic Novels Marvel Ed. 134               0000100000047900000058200
303902577100102640000011524     Livro Graphic Novels Marvel Ed. 135               0000100000047900000058200
503902577000109/05/202012/05/2020PAGO      000100000862200000086220                                                                                                                                                                                                                                                                                                            
20390257812386744IVAN FERREIRA DE SOUZA                            ivax2000@gmail.com                                                    000116472718430011994190290000001199419029FM13283510RUA ENRICO PERINI                                 93                                                          BOSQUE                        VINHEDO                       SP10000109/05/20200000015470SEDEX          000000000030000000000000000112027000000000000                       12/05/202000000154700000000000ISENTO      01
303902578100105110000010587     Chevrolet Collection Ed. 63                       0000100000049900000051600
303902578100105110000010691     Chevrolet Collection Ed. 65                       0000100000049900000051600
303902578100105110000011348     Chevrolet Collection Ed. 511                      0000100000054900000051600
503902578000109/05/202012/05/2020PAGO      000100000154700000015470                                                                                                                                                                                                                                                                                                            
20390257913405651IGOR GUEDES DE CARVALHO                           guedesenfermagem@gmail.com                                            000050732236320032372138530000003298804743FM36016260PC DO CRUZEIRO                                    25        603                                               PAINEIRAS                     JUIZ DE FORA                  MG10000107/05/20200000010479PAC            000000000030000000000000000032027000000000000                       12/05/202000000104790000000000ISENTO      01
303902579100082090000008184     Turma da Monica - Colecao Oficial de Miniaturas - 0000100000049900000037000
303902579100082090000008188     Turma da Monica - Colecao Oficial de Miniaturas - 0000100000049900000037000
303902579100082100000008522     Turma da Monica - Colecao Oficial de Miniaturas - 0000100000049900000037000
503902579000111/05/202012/05/2020PAGO      000100000104790000010479                                                                                                                                                                                                                                                                                                            
20390325211955580JOEL VALTER SANCHES                               professorjoel@outlook.com                                             000052227838800017338618400000001799142671FM15820000R. CANTIDIO F. RIBEIRO                            60        CRECHE                                            CENTRO                        PIRANGI                       SP30000105/05/20200000032440PAC            000000000000000000000000000000000000000000000      71081004         11/05/202000000324400000000000ISENTO      01
303903252100060920000010221     LIVRO TEX ED. 05                                  0000100000049900000058200
303903252100060920000010223     LIVRO TEX ED. 06                                  0000100000049900000058200
303903252100060920000011561     LIVRO TEX ED. 35                                  0000100000049900000058200
303903252100060920000011570     LIVRO TEX ED. 36                                  0000100000049900000058200
303903252100060920000011575     LIVRO TEX ED. 37                                  0000100000049900000058200
303903252100060920000011607     LIVRO TEX ED. 39                                  0000100000049900000058200
303903252100060920000011604     LIVRO TEX ED. 40                                  0000100000049900000058200
303903252100060920000011722     LIVRO TEX ED. 41                                  0000100000059900000058200
303903252100060920000011739     LIVRO TEX ED. 42                                  0000100000059900000058200
303903252100060930000011751     LIVRO TEX ED. 43                                  0000100000059900000058200
303903252100060930000011753     LIVRO TEX ED. 44                                  0000100000059900000058200
303903252100060930000011891     LIVRO TEX ED. 45                                  0000100000059900000058200
503903252000110/05/202012/05/2020PAGO      000100000324400000032440                                                                                                                                                                                                                                                                                                            
20390325310723418VICENTE MAURO FERRARI                             vicentermpa@hotmail.com                                               000485512446040035996931020000003599693102FM37552009RUA MONSENHOR DUTRA                               238       0                                                 CHACARA PRIMAVERA I           POUSO ALEGRE                  MG30000107/05/20200000021378PAC            000000000000000000000000000000000000000000000      71081745         11/05/202000000213780000000000ISENTO      01
303903253100077770000010829     Turma da Monica - Colecao Oficial de Miniaturas Ed0000100000049900000037000
303903253100077770000010827     Turma da Monica - Colecao Oficial de Miniaturas Ed0000100000049900000037000
303903253100077770000010825     Turma da Monica - Colecao Oficial de Miniaturas Ed0000100000049900000037000
303903253100077780000010833     Turma da Monica - Colecao Oficial de Miniaturas Ed0000100000052900000037000
303903253100077780000010835     Turma da Monica - Colecao Oficial de Miniaturas Ed0000100000052900000037000
303903253100077780000010831     Turma da Monica Ed. 54                            0000100000049900000037000
503903253000112/05/202012/05/2020PAGO      000100000213780000021378                                                                                                                                                                                                                                                                                                            
20390325412224665MARC ERNEST BRULE                                 alibrule@terra.com.br                                                 000093559078180019342410660000001999736121FM13422210AV CDOR LEOPOLDO DEDINI                           377                                                         UNILESTE                      PIRACICABA                    SP30000108/05/20200000039930SEDEX          000000000000000000000000000000000000000000000      71082283         11/05/202000000399300000000000ISENTO      01
303903254100093020000011607     LIVRO TEX ED. 39                                  0000100000049900000058200
303903254100093020000011604     LIVRO TEX ED. 40                                  0000100000049900000058200
303903254100093020000011722     LIVRO TEX ED. 41                                  0000100000059900000058200
303903254100093020000011739     LIVRO TEX ED. 42                                  0000100000059900000058200
303903254100093020000011751     LIVRO TEX ED. 43                                  0000100000059900000058200
303903254100093020000011753     LIVRO TEX ED. 44                                  0000100000059900000058200
303903254100093030000011891     LIVRO TEX ED. 45                                  0000100000059900000058200
503903254000113/05/202012/05/2020PAGO      000100000399300000039930                                                                                                                                                                                                                                                                                                            
20390325513406481RICARDO NOGUEIRA DE SOUSA                         flavyanenogueira24@outlook.com                                        000042977236030031339433280000003198611946FM32143360AV INTEGRACAO                                     2358      AO LADO DA GNF PNEUS                              COLORADO                      CONTAGEM                      MG30000108/05/20200000006826PAC            000000183600000000000000000000000000000000000      71082347         11/05/202000000068260000000000ISENTO      01
303903255100094410000009280     Turma da Monica - Colecao Oficial de Miniaturas - 0000100000049900000037000
503903255000113/05/202012/05/2020PAGO      000100000068260000006826                                                                                                                                                                                                                                                                                                            
20390325613407190PATRICIA EIKO YAMAKAWA                            patricia_yamakawa@yahoo.com.br                                        000003929741180061981030550000006198103055FF70673407Q SQSW                                            304       BLOCO G AP 208                                    SETOR SUDOESTE                BRASILIA                      DF30000109/05/20200000006758PAC            000000196800000000000000000000000000000000000      71082660         11/05/202000000067580000000000ISENTO      01
303903256100102740000009897     Livro Homem-Aranha Ed. 11                         0000100000047900000061700
503903256000114/05/202012/05/2020PAGO      000100000067580000006758                                                                                                                                                                                                                                                                                                            
20390325713407199MARCELO ROCHA DE SOUZA                            marc.souza2077@gmail.com                                              000079058427110021358040100000002197666428FM21040330R JULIO RIBEIRO                                   294       APTO 201                                          BONSUCESSO                    RIO DE JANEIRO                RJ30000109/05/20200000006958PAC            000000196800000000000000000000000000000000000      71082666         11/05/202000000069580000000000ISENTO      01
303903257100102900000011470     Livro Tex Ed. 26                                  0000100000049900000058200
503903257000114/05/202012/05/2020PAGO      000100000069580000006958                                                                                                                                                                                                                                                                                                            
20390325810600491JEAN CARLOS ADRIANO                               je.adri@bol.com.br                                                    000699134719150047306553660000004799218604FM88370534R NATIVIDADE COSTA                                533       CASA                                              SAO DOMINGOS                  NAVEGANTES                    SC30000109/05/20200000010980PAC            000000000000000000000000000000000000000000000      71082952         11/05/202000000109800000000000ISENTO      01
303903258100112160000010043     Chevrolet Collection Ed. 506                      0000100000054900000051600
303903258100112160000011354     Chevrolet Collection Ed. 513                      0000100000054900000051600
503903258000114/05/202012/05/2020PAGO      000100000109800000010980                                                                                                                                                                                                                                                                                                            
20390325911741089AMANDA RODRIGUES                                  amandarodrigg@gmail.com                                               000083729487800021254988280000002199684480FF22031072R SIQUEIRA CAMPOS                                 16        203                                               COPACABANA                    RIO DE JANEIRO                RJ30000110/05/20200000006826PAC            000000183600000000000000000000000000000000000      71083038         11/05/202000000068260000000000ISENTO      01
303903259100114970000010894     ONE PIECE ED. 31                                  0000100000049900000030000
503903259000115/05/202012/05/2020PAGO      000100000068260000006826                                                                                                                                                                                                                                                                                                            
20390326013407929JEFERSON REZENDE DA SILVA                         Contadorjeferson@hotmail.com                                          000000234706740035992132220000003599213222FM37200000RUA JANIO QUADROS                                 552       APTO 101                                          RETIRO                        LAVRAS                        MG30000110/05/20200000007319PAC            000000232900000000000000000000000000000000000      71083060         11/05/202000000073190000000000ISENTO      01
303903260100115270000006874     Chevrolet Collection  Ed. 01                      0000100000049900000057600
503903260000115/05/202012/05/2020PAGO      000100000073190000007319                                                                                                                                                                                                                                                                                                            
20390326113160927RIBAMAR VINICIUS BANASZEWSKI                      rbvini@gmail.com                                                      000924995469720011983273660000001198327366FM04444000AV MIGUEL YUNES                                   485       APTO 176 T 1                                      USINA PIRATININGA             SAO PAULO                     SP30000110/05/20200000006658SEDEX          000000116800000000000000000000000000000000000      71083126         11/05/202000000066580000000000ISENTO      01
303903261100116620000011354     Chevrolet Collection Ed. 513                      0000100000054900000051600
503903261000115/05/202012/05/2020PAGO      000100000066580000006658                                                                                                                                                                                                                                                                                                            
20390326213160927RIBAMAR VINICIUS BANASZEWSKI                      rbvini@gmail.com                                                      000924995469720011983273660000001198327366FM04444000AV MIGUEL YUNES                                   485       APTO 176 T 1                                      USINA PIRATININGA             SAO PAULO                     SP30000110/05/20200000015970SEDEX          000000000000000000000000000000000000000000000      71083142         11/05/202000000159700000000000ISENTO      01
303903262100117200000008176     Chevrolet Collection Ed. 23                       0000100000049900000051600
303903262100117200000010227     Chevrolet Collection Ed. 507                      0000100000054900000051600
303903262100117200000010791     Chevrolet Collection Ed. 509                      0000100000054900000051600
503903262000115/05/202012/05/2020PAGO      000100000159700000015970                                                                                                                                                                                                                                                                                                            
20390326313408029LEONARDO FURONIDE OLIVEIRA                        samsung200pode@gmail.com                                              000454571328970000000000000000001599834811FM18401000R LAUDELINA L DE MELO                             234       FUNDO 3                                           VILA APARECIDA                ITAPEVA                       SP30000110/05/20200000006033PAC            000000154300000000000000000000000000000000000      71083156         11/05/202000000060330000000000ISENTO      01
303903263100117440000008720     Guitar Collection Ed. 71                          0000100000044900000018500
503903263000115/05/202012/05/2020PAGO      000100000060330000006033                                                                                                                                                                                                                                                                                                            
20390326413408043RONE CRUZ                                         ronecruz.pe@gmail.com                                                 000095074097770021383054320000002199610906FM22770233R PRF HENRIQUE COSTA                              296       APTO 403                                          PECHINCHA                     RIO DE JANEIRO                RJ30000110/05/20200000006826PAC            000000183600000000000000000000000000000000000      71083168         11/05/202000000068260000000000ISENTO      01
303903264100117860000010853     Ford F100 Ed. 8                                   0000100000049900000020000
503903264000115/05/202012/05/2020PAGO      000100000068260000006826                                                                                                                                                                                                                                                                                                            
20390326513408154BIANCA DECOURT                                    decourt.bia@gmail.com                                                 000365543428690015557912820000001595928034FF04040001R LOEFGREN                                        1408                                                        VILA CLEMENTINO               SAO PAULO                     SP30000110/05/20200000004584SEDEX          000000109100000000000000000000000000000000000      71083258         11/05/202000000045840000000000ISENTO      01
303903265100120070000010831     Turma da Monica Ed. 54                            0000100000049900000037000
503903265000115/05/202012/05/2020PAGO      000100000045840000004584                                                                                                                                                                                                                                                                                                            
20390326610956066LUIZ HENRIQUE PIRES                               i.bilforever@gmail.com                                                000021096377810021275952330000002199761405FM25041245TV MOACIR DE ALMEIDA                              04        CASA                                              PARQUE FLUMINENSE             DUQUE DE CAXIAS               RJ30000110/05/20200000010479PAC            000000000000000000000000000000000000000000000      71083318         11/05/202000000104790000000000ISENTO      01
303903266100121880000008888     Turma da Monica - Colecao Oficial de Miniaturas - 0000100000049900000037000
303903266100121880000010329     Turma da Monica - Colecao Oficial de Miniaturas Ed0000100000049900000037000
303903266100121880000010831     Turma da Monica Ed. 54                            0000100000049900000037000
503903266000115/05/202012/05/2020PAGO      000100000104790000010479                                                                                                                                                                                                                                                                                                            
20390326713408582CASSANDRA CAIADO                                  cassandracaiado@uol.com.br                                            000293277638070011999755440000000000000000FF09669020R STA CATARINA                                    125                                                         TABOAO                        SAO BERNARDO DO CAMPO         SP30000110/05/20200000049390SEDEX          000000000000000000000000000000000000000000000      71083389         11/05/202000000493900000000000ISENTO      01
303903267100123690000007212     Guitar Collection Ed. 46                          0000100000044900000018500
303903267100123690000007298     Guitar Collection Ed. 47                          0000100000044900000016500
303903267100123690000007418     Guitar Collection Ed. 50                          0000100000044900000018500
303903267100123690000007236     Guitar Collection Ed. 51                          0000100000044900000018500
303903267100123690000007726     Guitar Collection Ed. 53                          0000100000044900000018500
303903267100123690000008098     Guitar Collection Ed. 61                          0000100000044900000018500
303903267100123690000008100     Guitar Collection Ed. 62                          0000100000044900000018500
303903267100123690000008320     Guitar Collection Ed. 63                          0000100000044900000018500
303903267100123690000008322     Guitar Collection Ed. 64                          0000100000044900000018500
303903267100123700000008324     Guitar Collection Ed. 65                          0000100000044900000018500
303903267100123700000008726     Guitar Collection Ed. 74                          0000100000044900000018500
503903267000115/05/202012/05/2020PAGO      000100000493900000049390                                                                                                                                                                                                                                                                                                            
20390326813409032JOAO LAPA JR                                      jjlapajr@gmail.com                                                    000420582793870000000000000000008699982459FM64049250R SEN CANDIDO FERRAZ                              1645      ED.CLAUDE MONET.AP 1101                           JOQUEI                        TERESINA                      PI30000111/05/20200000062270PAC            000000000000000000000000000000000000000000000      71083835         11/05/202000000622700000000000ISENTO      01
303903268100136640000005346     Livro Graphic Novels Marvel Ed. 29                0000100000047900000071300
303903268100136640000005494     Livro Graphic Novels Marvel Ed. 32                0000100000047900000070300
303903268100136650000006314     Livro Graphic Novels Marvel Ed. 48                0000100000047900000068500
303903268100136650000006492     Livro Graphic Novels Marvel Ed. 51                0000100000047900000075600
303903268100136650000007044     Livro Graphic Novels Marvel Ed. 59                0000100000047900000070000
303903268100136650000007262     Livro Graphic Novels Marvel Ed. 62                0000100000047900000064700
303903268100136650000010197     Livro Graphic Novels Marvel Ed. 111               0000100000047900000058200
303903268100136650000010451     Livro Graphic Novels Marvel Ed. 118               0000100000047900000058200
303903268100136650000010449     Livro Graphic Novels Marvel Ed. 117               0000100000047900000058200
303903268100136650000010349     Livro Graphic Novels Marvel Ed. 116               0000100000047900000058200
303903268100136650000010627     Livro Graphic Novels Marvel Ed. 120               0000100000047900000058200
303903268100136650000010861     Livro Graphic Novels Marvel Ed. 124               0000100000047900000058200
303903268100136660000010904     Livro Graphic Novels Marvel Ed. 125               0000100000047900000058200
503903268000116/05/202012/05/2020PAGO      000100000622700000062270                                                                                                                                                                                                                                                                                                            
20390328312788445MARCIA ELISA MAINARDI                             mainardi.marcia@yahoo.com.br                                          000489515600150000000000000000005199914298FF96820040R RIO BRANCO                                      294       APTO. 701                                         CENTRO                        SANTA CRUZ DO SUL             RS10000112/05/20200000028950PAC            000000000020000000000000000112021000000000000                       12/05/202000000289500000000000ISENTO      01
303903283100141570000011464     LIivro Tex Ed. 28                                 0000100000049900000058200
303903283100141570000011739     LIVRO TEX ED. 42                                  0000100000059900000058200
303903283100141580000011751     LIVRO TEX ED. 43                                  0000100000059900000058200
303903283100141580000011753     LIVRO TEX ED. 44                                  0000100000059900000058200
303903283100141580000011891     LIVRO TEX ED. 45                                  0000100000059900000058200
503903283000112/05/202012/05/2020PAGO      000100000289500000028950                                                                                                                                                                                                                                                                                                            
20390328613409626CARLOS ROBERTO JUNGES                             cjunges.cj@gmail.com                                                  000661938699720000000000000000004599933541FM85950000AV INDEPENDENCIA                                  1162                                                        CENTRO                        PALOTINA                      PR10000112/05/20200000028950PAC            000000000020000000000000000102022000000000000                       12/05/202000000289500000000000ISENTO      01
303903286100141600000011604     LIVRO TEX ED. 40                                  0000100000049900000058200
303903286100141600000011722     LIVRO TEX ED. 41                                  0000100000059900000058200
303903286100141600000011751     LIVRO TEX ED. 43                                  0000100000059900000058200
303903286100141600000011753     LIVRO TEX ED. 44                                  0000100000059900000058200
303903286100141600000011891     LIVRO TEX ED. 45                                  0000100000059900000058200
503903286000112/05/202012/05/2020PAGO      000100000289500000028950                                                                                                                                                                                                                                                                                                            
20390329013409631EDUARDO MEDINA                                    medinme@hotmail.com                                                   000024689186650032321669450000003298874699FM36026500AV BR DO RIO BRANCO                               4330      600                                               PASSOS                        JUIZ DE FORA                  MG10000112/05/20200000007119PAC            000000232920000000000000000072028000000000000                       12/05/202000000071190000000000ISENTO      01
303903290100141630000008582     Livro Homem-Aranha Ed. 03                         0000100000047900000061700
503903290000112/05/202012/05/2020PAGO      000100000071190000007119                                                                                                                                                                                                                                                                                                            
20390351010730768TARIK DIANI                                       tarik.diani@gmail.com                                                 000224292608080000000000000000001699996052FM14300087BARAO DE COTEGIPE                                 427                                                         CENTRO                        BATATAIS                      SP10000112/05/20200000010479PAC            000000000030000000000000000102024000000000000                       12/05/202000000104790000000000ISENTO      01
303903510100144140000010585     Chevrolet Collection Ed. 62                       0000100000049900000051600
303903510100144140000010587     Chevrolet Collection Ed. 63                       0000100000049900000051600
303903510100144140000010691     Chevrolet Collection Ed. 65                       0000100000049900000051600
503903510000112/05/202012/05/2020PAGO      000100000104790000010479                                                                                                                                                                                                                                                                                                            
20390363913409811GUSTAVO CUNHA SALVADOR                            gustavocunhasalvador@gmail.com                                        000008568639550048991564220000000000000000FM88040620R PRF MILTON SULLIVAN                             50        APTO 501                                          CARVOEIRA                     FLORIANOPOLIS                 SC10000312/05/20200000041175PAC            000000000020000000000000000122021000000000000                       12/05/202000000411750000000000ISENTO      01
303903639100146380000010041     Chevrolet Collection Ed. 505                      0001000000054900000051600
503903639000312/05/202012/05/2020PAGO      000300000137250000041175                                                                                                                                                                                                                                                                                                            
20390371111751247MARCELO ALMEIDA NUNES                             Manunes1965@gmail.com                                                 000561255426530034321995810000003499976473FM38408050AV ALEXANDRE R GUIMARAES                          500       APTO 1002                                         SARAIVA                       UBERLANDIA                    MG10000112/05/20200000012744PAC            000000276430000000000000000092024000000000000                       12/05/202000000127440000000000ISENTO      01
303903711100147620000011518     LIVRO TEX Ed. 30                                  0000100000049900000058200
303903711100147620000011570     LIVRO TEX ED. 36                                  0000100000049900000058200
503903711000112/05/202012/05/2020PAGO      000100000127440000012744                                                                                                                                                                                                                                                                                                            
20390376110969377JEFERSON SALES DA SILVA                           jeff_salles@hotmail.com                                               000221397508610012997957700000001299733433FM12316420R EXP HEITOR A BAGATTINI                          342       CASA                                              JARDIM PARAISO                JACAREI                       SP10000112/05/20200000010493SEDEX          000000000030000000000000000072022000000000000                       12/05/202000000104930000000000ISENTO      01
303903761100147330000011196     Os mitos da Ferrari Ed. 05                        0000100000149900000050000
503903761000112/05/202012/05/2020PAGO      000100000104930000010493                                                                                                                                                                                                                                                                                                            
9000040
