102-06-2020 10:38:03
20384940113356431ROBERVALDO VENTURA PINTO                          venturafn@gmail.com                                                   000725652687340082996858760000008299685876FM57081205R EDITH B BRITO                                   91        CONJUNTO SALVADOR LIRA, QD. 03                    TABULEIRO DO MARTINS          MACEIO                        AL30000131/03/20200000006131PAC            000000613100000000000000000000000000000000000      71060551         31/03/202000000061310000000000ISENTO      01
503849401000105/04/202001/04/2020PAGO      000100000061310000006131                                                                                                                                                                                                                                                                                                            
20393247010803316GABRIEL P DUARTE                                  duartesul@gmail.com                                                   000824876180000053327315120000005398422445FM96065460R STO ANTONIO                                     75        PORTOES BRANCOS                                   TRES VENDAS                   PELOTAS                       RS10000131/05/20200000052690PAC            000001070520000000000000000052028000000000000                       31/05/202000000526900000000000ISENTO      01
303932470100450290000005346     Livro Graphic Novels Marvel Ed. 29                0000200000047900000071300
303932470100450290000005826     Livro Graphic Novels Marvel Ed. 39                0000300000047900000063200
303932470100450290000006204     Livro Graphic Novels Marvel Ed. 45                0000300000047900000063500
303932470100450290000006492     Livro Graphic Novels Marvel Ed. 51                0000100000047900000075600
303932470100450290000007044     Livro Graphic Novels Marvel Ed. 59                0000200000047900000070000
303932470100450290000009975     Livro Graphic Novels Marvel Ed. 108               0000300000047900000058200
303932470100450290000010349     Livro Graphic Novels Marvel Ed. 116               0000800000047900000058200
503932470000131/05/202031/05/2020PAGO      000100000526900000052690                                                                                                                                                                                                                                                                                                            
20393257310879049MARCUS VINICIUS DA COSTA                          ninehellz@gmail.com                                                   000290304008700011989329710000001198932971FM02017000R ALFREDO PUJOL                                   432       AP52 TORRE 2                                      SANTANA                       SAO PAULO                     SP10000231/05/20200000020357SEDEX          000000163630000000000000000062021000000000000                       31/05/202000000203580000000000ISENTO      01
303932573100457920000010910     Livro Graphic Novels Marvel Ed. 126               0000100000047900000058200
303932573100457920000011171     Livro Graphic Novels Marvel Ed. 127               0000100000047900000058200
303932573100457920000011174     Livro Graphic Novels Marvel Ed. 128               0000100000047900000058200
303932573100457920000011165     Livro Graphic Novels Marvel Ed. 129               0000100000047900000058200
303932573100457930000011524     Livro Graphic Novels Marvel Ed. 135               0000100000047900000058200
503932573000231/05/202031/05/2020PAGO      000200000101790000020358                                                                                                                                                                                                                                                                                                            
20393259713423702JOSE ERINALDO DANTAS FILHO                        erinaldodantas@hotmail.com                                            000472079813680085999834040000000000000000FM60811655R ALBERTO JUNIOR                                  100       CASA 41 COND ROYAL PARK                           EDSON QUEIROZ                 FORTALEZA                     CE10000231/05/20200000016286PAC            000000323020000000000000000122024000000000000                       31/05/202000000162860000000000ISENTO      01
303932597100458450000007046     Livro Graphic Novels Marvel Ed. 60                0000100000047900000070000
303932597100458450000008580     Livro Homem-Aranha Ed. 02                         0000100000047900000061700
303932597100458450000009775     Livro Homem-Aranha Ed. 10                         0000100000047900000061700
303932597100458450000011461     Livro Homem Aranha Ed. 37                         0000100000047900000061700
503932597000231/05/202031/05/2020PAGO      000200000081430000016286                                                                                                                                                                                                                                                                                                            
20393266111909711RODRIGO ARCO E FLEXA                              raflexa@yahoo.com                                                     000147675358080011991084390000000000000000FM01415001R BELA CINTRA                                     1450      AP. 168                                           CONSOLACAO                    SAO PAULO                     SP10000425/05/20200000057480SEDEX          000000390330000000000000000012026000000000000                       31/05/202000000574800000000000ISENTO      01
303932661100351660000005404     Livro Marvel Heroes Ed. 01                        0000100000047900000081700
303932661100351660000006234     Livro Marvel Heroes Ed. 08                        0000100000047900000066800
303932661100351660000006490     Livro Marvel Heroes Ed. 14                        0000100000047900000065900
303932661100351660000006982     Livro Marvel Heroes Ed. 19                        0000100000047900000069600
303932661100351670000007100     Livro Marvel Heroes Ed. 22                        0000100000047900000058300
303932661100351670000007364     Livro Marvel Heroes Ed. 25                        0000100000047900000058300
303932661100351670000007574     Livro Marvel Heroes Ed. 27                        0000100000047900000058300
303932661100351670000007702     Livro Marvel Heroes Ed. 30                        0000100000047900000058300
303932661100351670000007962     Livro Marvel Heroes Ed. 34                        0000100000047900000058300
303932661100351670000008276     Livro Marvel Heroes Ed. 39                        0000100000047900000058300
303932661100351670000008278     Livro Marvel Heroes Ed. 40                        0000100000047900000058300
303932661100351670000008366     Livro Marvel Heroes Ed. 42                        0000100000047900000058300
303932661100351670000008496     Livro Marvel Heroes Ed. 44                        0000100000047900000058300
303932661100351670000008650     Livro Marvel Heroes Ed. 46                        0000100000047900000058300
303932661100351680000008992     Livro Marvel Heroes Ed. 53                        0000100000047900000058200
303932661100351680000008814     Livro Marvel Heroes Ed. 50                        0000100000047900000058200
303932661100351680000008930     Livro Marvel Heroes Ed. 51                        0000100000047900000058200
303932661100351680000009300     Livro Marvel Heroes Ed. 57                        0000100000047900000058200
303932661100351680000009302     Livro Marvel Heroes Ed. 58                        0000100000047900000058200
303932661100351680000007648     Livro Marvel Heroes Ed. 67                        0000100000047900000058200
303932661100351680000010145     Livro Marvel Heroes Ed. 72                        0000100000047900000058200
303932661100351680000010735     Livro Marvel Heroes Ed. 82                        0000100000047900000058200
303932661100351680000010737     Livro Marvel Heroes Ed. 83                        0000100000047900000058200
303932661100351680000011084     Livro Marvel Heroes Ed. 91                        0000100000047900000058200
503932661000431/05/202031/05/2020PAGO      000400000143700000057480                                                                                                                                                                                                                                                                                                            
20393277610719959LINDOMAR ALVES DE OLIVEIRA                        laominiaturas1954@yahoo.com.br                                        000038559546820021321423390000000000000000FM36060300R DIVA GARCIA                                     4220      4220                                              LINHARES                      JUIZ DE FORA                  MG10000431/05/20200000032440PAC            000000529730000000000000000012027000000000000                       31/05/202000000324400000000000ISENTO      01
303932776100460100000010587     Chevrolet Collection Ed. 63                       0000200000049900000051600
303932776100460100000011348     Chevrolet Collection Ed. 511                      0001000000054900000051600
503932776000431/05/202031/05/2020PAGO      000400000081100000032440                                                                                                                                                                                                                                                                                                            
20393288513216230MOISES ALVES GARCIA                               moisesagarcia@yahoo.com.br                                            000031668264080084360856820000008499215100FM59158150AV DAS AMERICAS                                   500       CASA 291                                          PARQUE DAS NACOES             PARNAMIRIM                    RN10000431/05/20200000032335PAC            000001229820000000000000000042028000000000000                       31/05/202000000323360000000000ISENTO      01
303932885100461910000009833     Livro Marvel Heroes Ed. 66                        0000100000047900000058200
303932885100461910000010823     LIVRO TEX ED. 16                                  0000100000049900000058200
303932885100461910000010879     LIVRO TEX ED. 17                                  0000100000049900000058200
303932885100461910000010980     LIVRO TEX ED. 19                                  0000100000049900000058200
303932885100461910000010983     LIVRO TEX ED. 20                                  0000100000049900000058200
303932885100461910000010989     LIVRO TEX ED. 21                                  0000100000049900000058200
303932885100461910000010992     LIVRO TEX ED. 22                                  0000100000049900000058200
303932885100461910000011078     LIVRO TEX ED. 23                                  0000100000049900000058200
303932885100461910000011081     LIVRO TEX ED. 24                                  0000100000049900000058200
303932885100461910000011473     LIVRO TEX ED. 25                                  0000100000049900000058200
303932885100461920000011470     Livro Tex Ed. 26                                  0000100000049900000058200
303932885100461920000011570     LIVRO TEX ED. 36                                  0000100000049900000058200
303932885100461920000011575     LIVRO TEX ED. 37                                  0000100000049900000058200
503932885000431/05/202031/05/2020PAGO      000400000080840000032336                                                                                                                                                                                                                                                                                                            
20393298612842425FILIPE PRADO MENCARI                              fmencari@gmail.com                                                    000078411997080021260166450000002199433847FM24451590R MARIO RUCH                                      75        APTO 106                                          COLUBANDE                     SAO GONCALO                   RJ10000431/05/20200000040715PAC            000000804430000000000000000022028000000000000                       31/05/202000000407160000000000ISENTO      01
303932986100464220000006366     Livro Marvel Heroes Ed. 09                        0000100000047900000069600
303932986100464220000007574     Livro Marvel Heroes Ed. 27                        0000100000047900000058300
303932986100464220000005826     Livro Graphic Novels Marvel Ed. 39                0000100000047900000063200
303932986100464220000005988     Livro Graphic Novels Marvel Ed. 41                0000100000047900000070300
303932986100464220000007044     Livro Graphic Novels Marvel Ed. 59                0000100000047900000070000
303932986100464220000008994     Livro Marvel Heroes Ed. 54                        0000100000047900000058200
303932986100464220000008580     Livro Homem-Aranha Ed. 02                         0000100000047900000061700
303932986100464230000009402     Livro Graphic Novels Marvel Ed. 96                0000100000047900000058200
303932986100464230000009600     Livro Homem-Aranha Ed. 05                         0000100000047900000061700
303932986100464230000009422     Livro Marvel Heroes Ed. 60                        0000100000047900000058200
303932986100464230000009775     Livro Homem-Aranha Ed. 10                         0000100000047900000061700
303932986100464230000010327     Livro Homem-Aranha Ed. 22                         0000100000047900000061700
303932986100464230000010615     Livro Homem-Aranha Ed. 25                         0000100000047900000061700
303932986100464230000010745     Livro Homem-Aranha Ed. 27                         0000100000047900000061700
303932986100464230000011461     Livro Homem Aranha Ed. 37                         0000100000047900000061700
303932986100464230000011458     Livro Homem Aranha Ed. 38                         0000100000047900000061700
303932986100464230000011428     Livro Graphic Novels Marvel Ed. 131               0000100000047900000058200
503932986000431/05/202031/05/2020PAGO      000400000101790000040716                                                                                                                                                                                                                                                                                                            
20393313213145269ITLAS DA SILVA HOLANDA                            itlas.holanda@bol.com.br                                              000634242823910085987059220000008598705922FM60421070R D CARLOTO TAVORA                                369       CASA                                              ITAOCA                        FORTALEZA                     CE10000431/05/20200000034555PAC            000000516030000000000000000092024000000000000                       31/05/202000000345560000000000ISENTO      01
303933132100466200000009400     Livro Graphic Novels Marvel Ed. 95                0000100000047900000064700
303933132100466210000009716     Livro Graphic Novels Marvel Ed. 101               0000100000047900000058200
303933132100466210000010613     Marvel Edicao Especial Limitada Thor Ed. 01       0000100000099900000123400
303933132100466210000010623     Marvel Edicao Especial Limitada Thor Ed. 02       0000100000099900000123400
303933132100466210000010729     Marvel Edicao Especial Limitada Thor Ed. 03       0000100000099900000123400
303933132100466210000010873     Marvel Edicao Especial Limitada Capitao America - 0000100000099900000097600
303933132100466210000010891     Marvel Edicao Especial Limitada Capitao America - 0000100000099900000076800
303933132100466210000010995     Livro Marvel Heroes Ed. 87                        0000100000047900000058200
303933132100466210000011087     Livro Marvel Heroes Ed. 92                        0000100000047900000058200
503933132000431/05/202031/05/2020PAGO      000400000086390000034556                                                                                                                                                                                                                                                                                                            
20393329710740583JOSUE BATISTA                                     josue.bat@gmail.com                                                   000302007568850000000000000000001198016395FM09230170R VATICANO                                        56                                                          UTINGA                        SANTO ANDRE                   SP10000401/06/20200000030440SEDEX          000000215830000000000000000062023000000000000                       01/06/202000000304400000000000ISENTO      01
303933297100467580000009757     Chevrolet Collection Ed. 503                      0000200000054900000051600
303933297100467580000010697     Chevrolet Collection Ed. 68                       0001000000049900000051600
503933297000401/06/202001/06/2020PAGO      000400000076100000030440                                                                                                                                                                                                                                                                                                            
20393329810740583JOSUE BATISTA                                     josue.bat@gmail.com                                                   000302007568850000000000000000001198016395FM09230170R VATICANO                                        56                                                          UTINGA                        SANTO ANDRE                   SP10000101/06/20200000030190SEDEX          000000215830000000000000000062023000000000000                       01/06/202000000301900000000000ISENTO      01
303933298100467580000008948     Chevrolet Collection Ed. 43                       0000100000049900000051600
303933298100467580000010585     Chevrolet Collection Ed. 62                       0001000000049900000051600
303933298100467580000011348     Chevrolet Collection Ed. 511                      0000100000054900000051600
503933298000101/06/202001/06/2020PAGO      000100000301900000030190                                                                                                                                                                                                                                                                                                            
20393330113216230MOISES ALVES GARCIA                               moisesagarcia@yahoo.com.br                                            000031668264080084360856820000008499215100FM59158150AV DAS AMERICAS                                   500       CASA 291 GREEN CLUB 3                             PARQUE DAS NACOES             PARNAMIRIM                    RN10000431/05/20200000034830PAC            000001261120000000000000000042028000000000000                       31/05/202000000348320000000000ISENTO      01
303933301100467600000009833     Livro Marvel Heroes Ed. 66                        0000100000047900000058200
303933301100467610000010823     LIVRO TEX ED. 16                                  0000100000049900000058200
303933301100467610000010879     LIVRO TEX ED. 17                                  0000100000049900000058200
303933301100467610000010980     LIVRO TEX ED. 19                                  0000100000049900000058200
303933301100467610000010983     LIVRO TEX ED. 20                                  0000100000049900000058200
303933301100467610000010989     LIVRO TEX ED. 21                                  0000100000049900000058200
303933301100467610000010992     LIVRO TEX ED. 22                                  0000100000049900000058200
303933301100467610000011078     LIVRO TEX ED. 23                                  0000100000049900000058200
303933301100467610000011081     LIVRO TEX ED. 24                                  0000100000049900000058200
303933301100467610000011473     LIVRO TEX ED. 25                                  0000100000049900000058200
303933301100467610000011470     Livro Tex Ed. 26                                  0000100000049900000058200
303933301100467620000011549     LIVRO TEX Ed. 31                                  0000100000049900000058200
303933301100467620000011570     LIVRO TEX ED. 36                                  0000100000049900000058200
303933301100467620000011575     LIVRO TEX ED. 37                                  0000100000049900000058200
503933301000431/05/202001/06/2020PAGO      000400000087080000034832                                                                                                                                                                                                                                                                                                            
20393337610126261WILIAN DOUGLAS ALTELINO                           wilian.altelino@gmail.com                                             0003324400481400123424-8750000001298146-44FM12081680R DR ADOLFO B DE MENEZES                          540       CASA                                              TERRA NOVA                    TAUBATE                       SP10000101/06/20200000011721PAC            000000174110000000000000000072024000000000000                       01/06/202000000117210000000000ISENTO      01
303933376100467620000010697     Chevrolet Collection Ed. 68                       0000200000049900000051600
503933376000101/06/202001/06/2020PAGO      000100000117210000011721                                                                                                                                                                                                                                                                                                            
20393339013432485ANDREI BARROS DE SA FONSECA                       andreibsf@yahoo.com.br                                                000077939587560027376819720000002799941075FM29845000AV. DEMOCRATA                                     357                                                         CENTRO                        BOA ESPERANCA                 ES10000101/06/20200000007319PAC            000000232920000000000000000102024000000000000                       01/06/202000000073190000000000ISENTO      01
303933390100467840000010697     Chevrolet Collection Ed. 68                       0000100000049900000051600
503933390000101/06/202001/06/2020PAGO      000100000073190000007319                                                                                                                                                                                                                                                                                                            
20393384512224146MARIA ALESSANDRA                                  Gblizzard131@hotmail.com                                              000471172733720000000000000000009899971369FF65070790R TRINTA E TRES                                   17        QUADRA 20                                         VINHAIS                       SAO LUIS                      MA30000124/05/20200000020979PAC            000000848100000000000000000000000000000000000      71090515         29/05/202000000209790000000000ISENTO      01
303933845100315340000010613     Marvel Edicao Especial Limitada Thor Ed. 01       0000100000099900000123400
303933845100315340000010623     Marvel Edicao Especial Limitada Thor Ed. 02       0000100000099900000123400
303933845100315340000010729     Marvel Edicao Especial Limitada Thor Ed. 03       0000100000099900000123400
503933845000129/05/202001/06/2020PAGO      000100000209790000020979                                                                                                                                                                                                                                                                                                            
20393384613423343CHRISTIAN MENDONCA RAUBER                         Christian_rauber@creci.org.br                                         000603857230910051363714150000005199988847FM95770000RUA SANTA CATARINA                                114       CASA                                              CENTRO                        FELIZ                         RS30000124/05/20200000051574PAC            000000276400000000000000000000000000000000000      71090663         29/05/202000000515740000000000ISENTO      01
303933846100320070000011564     Ford F100 Ed. 27                                  0000100000052900000020000
303933846100320070000011567     Ford F100 Ed. 28                                  0000100000052900000020000
303933846100320070000011627     Ford F100 Ed. 29                                  0000100000052900000020000
303933846100320070000011665     Ford F100 Ed. 31                                  0000100000052900000020000
303933846100320070000011670     Ford F100 Ed. 33                                  0000100000052900000020000
303933846100320070000011672     Ford F100 Ed. 34                                  0000100000052900000020000
303933846100320080000011680     Ford F100 Ed. 35                                  0000100000056900000020000
303933846100320080000011686     Ford F100 Ed. 36                                  0000100000056900000020000
303933846100320080000011688     Ford F100 Ed. 37                                  0000100000056900000020000
503933846000129/05/202001/06/2020PAGO      000100000515740000051574                                                                                                                                                                                                                                                                                                            
20393384713424040CARLOS ALBERTO ZIOLI                              carloszioli@hotmail.com                                               000524970979680000000000000000004599823796FM85900970RUA LEONARDO JULIO PERNA 59                       12        CORREIOS                                          CENTRO                        TOLEDO                        PR30000124/05/20200000020734PAC            000000276400000000000000000000000000000000000      71090976         29/05/202000000207340000000000ISENTO      01
303933847100330180000011739     LIVRO TEX ED. 42                                  0000100000059900000058200
303933847100330180000011753     LIVRO TEX ED. 44                                  0000100000059900000058200
303933847100330180000011891     LIVRO TEX ED. 45                                  0000100000059900000058200
503933847000129/05/202001/06/2020PAGO      000100000207340000020734                                                                                                                                                                                                                                                                                                            
20393384813423703MARCELO FARIAS DA SILVA                           kamyu_galshimus@hotmail.com                                           000012752642040000000000000000009198018465FM67010510PSG OSEAS SILVA                                   682       PROXIMO A PARAGAS                                 GUANABARA                     ANANINDEUA                    PA30000125/05/20200000020979PAC            000000658400000000000000000000000000000000000      71091212         29/05/202000000209790000000000ISENTO      01
303933848100335530000010613     Marvel Edicao Especial Limitada Thor Ed. 01       0000100000099900000123400
303933848100335530000010623     Marvel Edicao Especial Limitada Thor Ed. 02       0000100000099900000123400
303933848100335530000010729     Marvel Edicao Especial Limitada Thor Ed. 03       0000100000099900000123400
503933848000130/05/202001/06/2020PAGO      000100000209790000020979                                                                                                                                                                                                                                                                                                            
20393384911691919JARDEL GONCALVES MEDEIROS                         jgmedeiros@gmail.com                                                  000020847659860048210165360000004898801848FM88705738R WENCESLAU C DE SOUZA                            134       CASA                                              RECIFE                        TUBARAO                       SC30000125/05/20200000010059PAC            000000276400000000000000000000000000000000000      71091517         29/05/202000000100590000000000ISENTO      01
303933849100343640000006898     Livro Graphic Novels Marvel Ed. 57                0000100000047900000070000
303933849100343640000010451     Livro Graphic Novels Marvel Ed. 118               0000100000047900000058200
303933849100343640000010347     Livro Graphic Novels Marvel Ed. 115               0000100000047900000058200
503933849000130/05/202001/06/2020PAGO      000100000100590000010059                                                                                                                                                                                                                                                                                                            
20393385011024268RAFAEL OLEKSISSIYN DA SILVA                       rafael.oleks@yahoo.com.br                                             0000302125892100413350-8160000004199195-98FM82600030R HILARIO MORO                                    526       T5 AP608                                          TINGUI                        CURITIBA                      PR30000125/05/20200000006958PAC            000000196800000000000000000000000000000000000      71091655         29/05/202000000069580000000000ISENTO      01
303933850100347300000011464     LIivro Tex Ed. 28                                 0000100000049900000058200
503933850000130/05/202001/06/2020PAGO      000100000069580000006958                                                                                                                                                                                                                                                                                                            
20393385111752232RONALDO MANZI FILHO                               manzifilho@hotmail.com                                                0008985302418700113862-4090000001198609-06FM74180040AV 136                                            480       AP. 1200                                          SETOR MARISTA                 GOIANIA                       GO30000126/05/20200000022462PAC            000000258400000000000000000000000000000000000      71091924         29/05/202000000224620000000000ISENTO      01
303933851100355810000011722     LIVRO TEX ED. 41                                  0000100000059900000058200
303933851100355810000011739     LIVRO TEX ED. 42                                  0000100000059900000058200
303933851100355810000011751     LIVRO TEX ED. 43                                  0000100000059900000058200
303933851100355820000011753     LIVRO TEX ED. 44                                  0000100000059900000058200
303933851100355820000011891     LIVRO TEX ED. 45                                  0000100000059900000058200
503933851000131/05/202001/06/2020PAGO      000100000224620000022462                                                                                                                                                                                                                                                                                                            
20393385213426190RAFAEL HIGINO DE OLIVEIRA SOUSA                   rafael_az_21@hotmail.com                                              000227809428940017991294070000001798106317FM15056750AV JOSE DA S SE                                   305       CASA 324                                          CONDOMINIO RESIDENCIAL PARQUE SAO JOSE DO RIO PRETO         SP30000126/05/20200000031750PAC            000000278100000000000000000000000000000000000      71092511         29/05/202000000317500000000000ISENTO      01
303933852100370840000007960     Livro Marvel Heroes Ed. 33                        0000100000047900000058300
303933852100370850000008072     Livro Marvel Heroes Ed. 35                        0000100000047900000058300
303933852100370850000007650     Livro Marvel Heroes Ed. 68                        0000100000047900000058200
303933852100370850000009831     Livro Marvel Heroes Ed. 65                        0000100000047900000058200
303933852100370850000007774     Livro Marvel Heroes Ed. 69                        0000100000047900000058200
303933852100370850000010285     Livro Marvel Heroes Ed. 76                        0000100000047900000058200
303933852100370850000010613     Marvel Edicao Especial Limitada Thor Ed. 01       0000100000099900000123400
303933852100370850000010623     Marvel Edicao Especial Limitada Thor Ed. 02       0000100000099900000123400
303933852100370850000010729     Marvel Edicao Especial Limitada Thor Ed. 03       0000100000099900000123400
303933852100370850000011449     Livro Marvel Heroes Ed. 96                        0000100000047900000058200
503933852000131/05/202001/06/2020PAGO      000100000317500000031750                                                                                                                                                                                                                                                                                                            
20393385313427374KAYKE LEONEL                                      cakeman1234@hotmail.com                                               000447447368070011969459400000001196945940FM01046000AV S LUIS                                         268       APTO PG                                           REPUBLICA                     SAO PAULO                     SP30000127/05/20200000005963SEDEX          000000097300000000000000000000000000000000000      71093205         29/05/202000000059630000000000ISENTO      01
303933853100387910000009955     One Piece Ed. 16                                  0000100000049900000030000
503933853000101/06/202001/06/2020PAGO      000100000059630000005963                                                                                                                                                                                                                                                                                                            
20393385413429059TIAGO JOSE PEREIRA COSTA                          tjpc33@hotmail.com                                                    000327878508800019992059960000000000000000FM13465030R RIO BRANCO                                      70        SALA 25                                           CENTRO                        AMERICANA                     SP30000128/05/20200000016966SEDEX          000000146700000000000000000000000000000000000      71094089         29/05/202000000169660000000000ISENTO      01
303933854100409720000006974     Turma da Monica - Colecao Oficial de Miniaturas - 0000100000049900000037000
303933854100409720000007026     Turma da Monica - Colecao Oficial de Miniaturas - 0000100000049900000037000
303933854100409720000009755     Turma da Monica - Colecao Oficial de Miniaturas - 0000100000049900000037000
303933854100409720000010705     Turma da Monica - Colecao Oficial de Miniaturas Ed0000100000049900000037000
503933854000102/06/202001/06/2020PAGO      000100000169660000016966                                                                                                                                                                                                                                                                                                            
20393385513429451CLAUDIO DA COSTA LEAO                             claudiocleao@gmail.com                                                000764284601060000000000000000006298550559FM74360150R F 18                                            00        RUA F-18, QUADRA 111, LOTE 11                     SETOR FAICALVILLE             GOIANIA                       GO30000129/05/20200000005526PAC            000000183600000000000000000000000000000000000      71094363         29/05/202000000055260000000000ISENTO      01
303933855100415290000010809     Descobrindo A Filosofia - Ed. 60                  0000100000036900000035000
503933855000103/06/202001/06/2020PAGO      000100000055260000005526                                                                                                                                                                                                                                                                                                            
20393385613429456DORVALINA PELZL PONTES                            dorvalinapelzl@hotmail.com                                            000256926581000067991510570000006799151057FF79037090R RIO CLARO                                       263       CASA 25                                           JARDIM VERANEIO               CAMPO GRANDE                  MS30000129/05/20200000037430PAC            000000408600000000000000000000000000000000000      71094371         29/05/202000000374300000000000ISENTO      01
303933856100415360000009638     SUPER MOTO ED. 02                                 0000200000054900000030000
303933856100415360000009696     SUPER MOTO ED. 04                                 0000200000054900000030000
303933856100415360000011289     Ford F100 Ed. 17                                  0000100000052900000020000
303933856100415360000011291     Ford F100 Ed. 18                                  0000100000052900000020000
303933856100415360000011293     Ford F100 Ed. 19                                  0000100000052900000020000
303933856100415360000011295     Ford F100 Ed. 20                                  0000100000052900000020000
303933856100415360000011333     Ford F100 Ed. 21                                  0000100000052900000020000
303933856100415360000011335     Ford F100 Ed. 22                                  0000100000052900000020000
303933856100415360000011337     Ford F100 Ed. 23                                  0000100000052900000020000
303933856100415370000011339     Ford F100 Ed. 24                                  0000100000052900000020000
303933856100415370000011341     Ford F100 Ed. 25                                  0000100000052900000020000
303933856100415370000011343     Ford F100 Ed. 26                                  0000100000052900000020000
503933856000103/06/202001/06/2020PAGO      000100000374300000037430                                                                                                                                                                                                                                                                                                            
20393385713377583CANDIDO LUIZ DE SOUZA PINHEIRO                    candidolspinheiro@hotmail.com                                         000975864985040079302332030000007999812664FM49032000AV BEIRA-MAR                                      460       APT 1101                                          FAROLANDIA                    ARACAJU                       SE30000129/05/20200000013201SEDEX          000000791100000000000000000000000000000000000      71094408         29/05/202000000132010000000000ISENTO      01
303933857100416410000011293     Ford F100 Ed. 19                                  0000100000052900000020000
503933857000103/06/202001/06/2020PAGO      000100000132010000013201                                                                                                                                                                                                                                                                                                            
20393385813429672ROMULO MENDES FARIA                               romulofoxmulder02@gmail.com                                           000015389736850000000000000000006498139897FM75711120R 35                                              40                                                          VILA MARGON                   CATALAO                       GO30000129/05/20200000032826PAC            000000408600000000000000000000000000000000000      71094569         29/05/202000000328260000000000ISENTO      01
303933858100420330000010197     Livro Graphic Novels Marvel Ed. 111               0000100000047900000058200
303933858100420330000010451     Livro Graphic Novels Marvel Ed. 118               0000100000047900000058200
303933858100420330000010449     Livro Graphic Novels Marvel Ed. 117               0000100000047900000058200
303933858100420330000010349     Livro Graphic Novels Marvel Ed. 116               0000100000047900000058200
303933858100420330000011171     Livro Graphic Novels Marvel Ed. 127               0000100000047900000058200
303933858100420330000011524     Livro Graphic Novels Marvel Ed. 135               0000100000047900000058200
503933858000103/06/202001/06/2020PAGO      000100000328260000032826                                                                                                                                                                                                                                                                                                            
20393392713432527RAFAEL FRANCESCHINI                               rafael.franceschini@gmail.com                                         000303271598980011982939590000001198293959FM03213110R MENDES ALEMAO                                   112                                                         VILA CALIFORNIA               SAO PAULO                     SP10000101/06/20200000006158SEDEX          000000116830000000000000000022025000000000000                       01/06/202000000061580000000000ISENTO      01
303933927100469420000010697     Chevrolet Collection Ed. 68                       0000100000049900000051600
503933927000101/06/202001/06/2020PAGO      000100000061580000006158                                                                                                                                                                                                                                                                                                            
20393395513224227KELVIN DUARTE DE CARVALHO                         kelvinkdc@hotmail.com                                                 000010551173000085987777380000000000000000FM60361010R PE PERDIGAO SAMPAIO                             872       CASA                                              ANTONIO BEZERRA               FORTALEZA                     CE10000101/06/20200000007450PAC            000000246030000000000000000012028000000000000                       01/06/202000000074500000000000ISENTO      01
303933955100470350000009797     Chevrolet Collection Ed. 52                       0000100000049900000051600
503933955000101/06/202001/06/2020PAGO      000100000074500000007450                                                                                                                                                                                                                                                                                                            
20393403711704806LUIS FELIPE LOBAO DE SOUZA MACARIO                lfelipemacario@uol.com.br                                             000031309897220021976145950000002198151301FM24903815AV ROBERTO DA SILVEIRA                            2158      CASA 23                                           FLAMENGO                      MARICA                        RJ10000101/06/20200000005889PAC            000000219920000000000000000092023000000000000                       01/06/202000000058890000000000ISENTO      01
303934037100471520000009871     Descobrindo A Filosofia - Ed. 23                  0000100000036900000035000
503934037000101/06/202001/06/2020PAGO      000100000058890000005889                                                                                                                                                                                                                                                                                                            
20393412613432662IASMIM MACHADO SANTOS                             iasmim_mim_machado@icloud.com                                         000031704411750000000000000000006798101454FF79500000JOSE DE FREITAS OLIVEIRA                          2090      CASA                                              JARDIM AMERICA                PARANAIBA                     MS10000101/06/20200000007119PAC            000000232930000000000000000012028000000000000                       01/06/202000000071190000000000ISENTO      01
303934126100473310000010193     Livro Homem-Aranha Ed. 17                         0000100000047900000061700
503934126000101/06/202001/06/2020PAGO      000100000071190000007119                                                                                                                                                                                                                                                                                                            
20393427812909184ROSANA CRISTINA DUARTE                            rosanac20146@gmail.com                                                000277511878080011482017140000001195317753FF09450000RUA PIAUI                                         125                                                         VILA SAO JOAO                 RIO GRANDE DA SERRA           SP10000101/06/20200000006263SEDEX          000000097330000000000000000122023000000000000                       01/06/202000000062630000000000ISENTO      01
303934278100475210000011627     Ford F100 Ed. 29                                  0000100000052900000020000
503934278000101/06/202001/06/2020PAGO      000100000062630000006263                                                                                                                                                                                                                                                                                                            
20393433810878942MARIO CORREIA DA SILVA                            doutor.mario@globo.com                                                000012152828690011221366620000001199200958FM03264040R ROQUE B LIMA                                    73                                                          VILA PAULO SILAS              SAO PAULO                     SP10000101/06/20200000014370SEDEX          000000146730000000000000000012026000000000000                       01/06/202000000143700000000000ISENTO      01
303934338100476180000009400     Livro Graphic Novels Marvel Ed. 95                0000100000047900000064700
303934338100476180000010109     Livro Graphic Novels Marvel Ed. 109               0000100000047900000058200
303934338100476180000010799     Livro Graphic Novels Marvel Ed. 121               0000100000047900000058200
503934338000101/06/202001/06/2020PAGO      000100000143700000014370                                                                                                                                                                                                                                                                                                            
9000034
