101-06-2020 10:38:16
20384940113356431ROBERVALDO VENTURA PINTO                          venturafn@gmail.com                                                   000725652687340082996858760000008299685876FM57081205R EDITH B BRITO                                   91        CONJUNTO SALVADOR LIRA, QD. 03                    TABULEIRO DO MARTINS          MACEIO                        AL30000131/03/20200000006131PAC            000000613100000000000000000000000000000000000      71060551         31/03/202000000061310000000000ISENTO      01
503849401000105/04/202001/04/2020PAGO      000100000061310000006131                                                                                                                                                                                                                                                                                                            
20391511511909711RODRIGO ARCO E FLEXA                              raflexa@yahoo.com                                                     000147675358080011991084390000000000000000FM01415001R BELA CINTRA                                     1450      AP. 168                                           CONSOLACAO                    SAO PAULO                     SP10000116/05/20200000053648SEDEX          000000240830000000000000000032028000000000000                       20/05/202000000536480000000000ISENTO      01
303915115100212750000006682     Livro Marvel Heroes Ed. 16                        0000100000047900000064700
303915115100212750000006984     Livro Marvel Heroes Ed. 20                        0000100000047900000069600
303915115100212750000006648     Livro Graphic Novels Marvel Ed. 53                0000100000047900000065000
303915115100212750000007914     Livro Graphic Novels Marvel Ed. 71                0000100000047900000064700
303915115100212750000008460     Livro Graphic Novels Marvel Ed. 82                0000100000047900000064700
303915115100212750000008744     Livro Graphic Novels Marvel Ed. 86                0000100000047900000064700
303915115100212750000008706     Livro Marvel Heroes Ed. 48                        0000100000047900000058200
303915115100212750000008814     Livro Marvel Heroes Ed. 50                        0000100000047900000058200
303915115100212750000009400     Livro Graphic Novels Marvel Ed. 95                0000100000047900000064700
303915115100212750000009716     Livro Graphic Novels Marvel Ed. 101               0000100000047900000058200
303915115100212760000009422     Livro Marvel Heroes Ed. 60                        0000100000047900000058200
303915115100212760000007650     Livro Marvel Heroes Ed. 68                        0000100000047900000058200
303915115100212760000009927     Livro Graphic Novels Marvel Ed. 105               0000100000047900000058200
303915115100212760000010349     Livro Graphic Novels Marvel Ed. 116               0000100000047900000058200
303915115100212760000010285     Livro Marvel Heroes Ed. 76                        0000100000047900000058200
303915115100212760000011437     Livro Graphic Novels Marvel Ed. 134               0000100000047900000058200
503915115000116/05/202029/05/2020PAGO      000100000536480000053648                                                                                                                                                                                                                                                                                                            
20392139913424242BRENO GIOVANNI ADAID CASTRO                       brenoadaid@gmail.com                                                  000047828736460061982221700000006198222170FM70874020Q SQN                                             607       APARTAMENTO                                       ASA NORTE                     BRASILIA                      DF10000125/05/20200000036235SEDEX          000000597420000000000000000112021000000000000                       25/05/202000000362350000000000ISENTO      01
303921399100334080000010799     Livro Graphic Novels Marvel Ed. 121               0000100000047900000058200
303921399100334080000010801     Livro Graphic Novels Marvel Ed. 122               0000100000047900000058200
303921399100334080000010859     Livro Graphic Novels Marvel Ed. 123               0000100000047900000058200
303921399100334080000010861     Livro Graphic Novels Marvel Ed. 124               0000100000047900000058200
303921399100334080000010904     Livro Graphic Novels Marvel Ed. 125               0000100000047900000058200
303921399100334080000010910     Livro Graphic Novels Marvel Ed. 126               0000100000047900000058200
303921399100334090000011171     Livro Graphic Novels Marvel Ed. 127               0000100000047900000058200
303921399100334090000011174     Livro Graphic Novels Marvel Ed. 128               0000100000047900000058200
303921399100334090000011165     Livro Graphic Novels Marvel Ed. 129               0000100000047900000058200
303921399100334090000011168     Livro Graphic Novels Marvel Ed. 130               0000100000047900000058200
503921399000125/05/202025/05/2020PAGO      000100000362350000036235                                                                                                                                                                                                                                                                                                            
20392142912642432JULIO CESAR DA SILVA RODRIGUES                    rodrigues.jcs@hotmail.com                                             000071079847480021345741530000002196415173FM21371220R ALICE FREITAS                                   176       FUNDOS                                            VAZ LOBO                      RIO DE JANEIRO                RJ10000125/05/20200000006631SEDEX          000000294130000000000000000012026000000000000                       25/05/202000000066310000000000ISENTO      01
303921429100334550000010635     Descobrindo A Filosofia - Ed. 56                  0000100000036900000035000
503921429000125/05/202025/05/2020PAGO      000100000066310000006631                                                                                                                                                                                                                                                                                                            
20392147313424268ANDERSON ANDRADE RADSACK ALENCAR                  falecomradsack@gmail.com                                              000086793757210031990943110000003199909431FM31545100AV CARLOS D COSTA                                 210       CASA                                              CEU AZUL / GARCAS             BELO HORIZONTE                MG10000125/05/20200000013658PAC            000000216220000000000000000092023000000000000                       25/05/202000000136580000000000ISENTO      01
303921473100335030000010193     Livro Homem-Aranha Ed. 17                         0000100000047900000061700
303921473100335030000010195     Livro Homem-Aranha Ed. 18                         0000100000047900000061700
303921473100335030000011452     Livro Homem Aranha Ed. 40                         0000100000047900000061700
503921473000125/05/202025/05/2020PAGO      000100000136580000013658                                                                                                                                                                                                                                                                                                            
20392149713291506ANDRE LUIZ DOS REIS DE OLIVEIRA                   dedtrance@gmail.com                                                   000063683206640000000000000000001299756313FM12225460R GIOVANNI B CAPELLOTTO                           283       CASA                                              JARDIM NOVA MICHIGAN          SAO JOSE DOS CAMPOS           SP10000125/05/20200000004521SEDEX          000000116830000000000000000032023000000000000                       25/05/202000000045210000000000ISENTO      01
303921497100335440000010193     Livro Homem-Aranha Ed. 17                         0000100000047900000061700
503921497000125/05/202025/05/2020PAGO      000100000045210000004521                                                                                                                                                                                                                                                                                                            
20392169613253331CHANTAL GARNERO                                   chantalgarnero@yahoo.com.br                                           000091174568860011361141480000001197118914FF05065060R RAMO DE RUMOS                                   65                                                          PARQUE RESIDENCIAL DA LAPA    SAO PAULO                     SP10000225/05/20200000042576SEDEX          000000163630000000000000000052022000000000000                       25/05/202000000425760000000000ISENTO      01
303921696100338710000010041     Chevrolet Collection Ed. 505                      0000100000054900000051600
303921696100338710000009638     SUPER MOTO ED. 02                                 0000100000054900000030000
303921696100338720000010585     Chevrolet Collection Ed. 62                       0000100000049900000051600
303921696100338720000010691     Chevrolet Collection Ed. 65                       0000100000049900000051600
303921696100338720000010829     Turma da Monica - Colecao Oficial de Miniaturas Ed0000100000049900000037000
303921696100338720000011208     Os mitos da Ferrari Ed. 10                        0000100000149900000050000
503921696000225/05/202025/05/2020PAGO      000200000212880000042576                                                                                                                                                                                                                                                                                                            
20392170212905394ANTONIO CARLOS SANTOS                             kal2s@hotmail.com                                                     000000196627850011266987200000001194153149FM09771050R FREDERICO AMMON                                 40        24A                                               NOVA PETROPOLIS               SAO BERNARDO DO CAMPO         SP10000125/05/20200000004521SEDEX          000000116830000000000000000082023000000000000                       25/05/202000000045210000000000ISENTO      01
303921702100338870000010349     Livro Graphic Novels Marvel Ed. 116               0000100000047900000058200
503921702000125/05/202025/05/2020PAGO      000100000045210000004521                                                                                                                                                                                                                                                                                                            
20392180613424443THIAGO ABREU DE OLIVEIRA                          thiagoabreu2006@ig.com.br                                             000057647867970021994617210000002196415428FM21310460R S GERALDO                                       74        AO 301 OU BAR                                     MADUREIRA                     RIO DE JANEIRO                RJ10000125/05/20200000050295PAC            000000412520000000000000000082020000000000000                       25/05/202000000502950000000000ISENTO      01
303921806100340350000010285     Livro Marvel Heroes Ed. 76                        0000100000047900000058200
303921806100340350000010733     Livro Marvel Heroes Ed. 81                        0000100000047900000058200
303921806100340350000010735     Livro Marvel Heroes Ed. 82                        0000100000047900000058200
303921806100340350000010737     Livro Marvel Heroes Ed. 83                        0000100000047900000058200
303921806100340350000010841     Livro Marvel Heroes Ed. 86                        0000100000047900000058200
303921806100340350000011084     Livro Marvel Heroes Ed. 91                        0000100000047900000058200
303921806100340350000011087     Livro Marvel Heroes Ed. 92                        0000100000047900000058200
303921806100340350000011446     Livro Marvel Heroes Ed. 93                        0000100000047900000058200
303921806100340360000011443     Livro Marvel Heroes Ed. 94                        0000100000047900000058200
303921806100340360000011440     Livro Marvel Heroes Ed. 95                        0000100000047900000058200
303921806100340360000011449     Livro Marvel Heroes Ed. 96                        0000100000047900000058200
303921806100340360000011506     Livro Marvel Heroes Ed. 97                        0000100000047900000058200
303921806100340360000011515     Livro Marvel Heroes Ed. 98                        0000100000047900000058200
303921806100340360000011509     Livro Marvel Heroes Ed. 99                        0000100000047900000058200
303921806100340360000011512     Livro Marvel Heroes Ed. 100                       0000100000047900000058200
503921806000125/05/202025/05/2020PAGO      000100000502950000050295                                                                                                                                                                                                                                                                                                            
20392182913424457JOAO ANTONIO BEZERRA ZECA                         joaobezerrazeca@outlook.com                                           000121638918790017991779410000001799177941FM15170000RUA CORONEL MILITAO,                              768       BANCA                                             CENTRO                        TANABI                        SP10000125/05/20200000006833PAC            000000154330000000000000000022026000000000000                       25/05/202000000068330000000000ISENTO      01
303921829100340640000010857     Ford F100 Ed. 10                                  0000100000052900000020000
503921829000125/05/202025/05/2020PAGO      000100000068330000006833                                                                                                                                                                                                                                                                                                            
20392191313407550WALDOMIRO VERGUEIRO                               wdcsverg@usp.br                                                       000855595048150011557929560000001199121950FM04126000R JORGE TIBIRICA                                  266                                                         VILA MARIANA                  SAO PAULO                     SP10000125/05/20200000013412SEDEX          000000163630000000000000000122027000000000000                       25/05/202000000134120000000000ISENTO      01
303921913100341660000008980     Livro Graphic Novels Marvel Ed. 91                0000100000047900000064700
303921913100341660000007774     Livro Marvel Heroes Ed. 69                        0000100000047900000058200
303921913100341660000010197     Livro Graphic Novels Marvel Ed. 111               0000100000047900000058200
303921913100341660000010737     Livro Marvel Heroes Ed. 83                        0000100000047900000058200
503921913000125/05/202025/05/2020PAGO      000100000134120000013412                                                                                                                                                                                                                                                                                                            
20392198410983925JORGE GONCALVES FONSECA                           jfonsca@uol.com.br                                                    000380911947490021262064680000002198425873FM24220400R DR PAULO CESAR                                  200       APTO 805                                          ICARAI                        NITEROI                       RJ10000125/05/20200000010059PAC            000000276410000000000000000122024000000000000                       25/05/202000000100590000000000ISENTO      01
303921984100342010000007044     Livro Graphic Novels Marvel Ed. 59                0000100000047900000070000
303921984100342010000011452     Livro Homem Aranha Ed. 40                         0000100000047900000061700
303921984100342010000011512     Livro Marvel Heroes Ed. 100                       0000100000047900000058200
503921984000125/05/202025/05/2020PAGO      000100000100590000010059                                                                                                                                                                                                                                                                                                            
20392198913424525FELIPE SARAIVA DE AZEVEDO BARBOZA                 felipe.saraiva888@gmail.com                                           000018191152320092994623950000009299462395FM69735000RUA DAS CUTIAS                                    17        QUADRA 03                                         GALO DA SERRA                 PRESIDENTE FIGUEIREDO         AM10000125/05/20200000016765PAC            000000848130000000000000000122021000000000000                       25/05/202000000167650000000000ISENTO      01
303921989100342070000007046     Livro Graphic Novels Marvel Ed. 60                0000100000047900000070000
303921989100342070000010197     Livro Graphic Novels Marvel Ed. 111               0000100000047900000058200
303921989100342070000010199     Livro Graphic Novels Marvel Ed. 112               0000100000047900000058200
303921989100342080000010861     Livro Graphic Novels Marvel Ed. 124               0000100000047900000058200
303921989100342080000010904     Livro Graphic Novels Marvel Ed. 125               0000100000047900000058200
503921989000125/05/202025/05/2020PAGO      000100000167650000016765                                                                                                                                                                                                                                                                                                            
20392207313195605PAULO MALPIGHI                                    paulomalpighi@gmail.com                                               000121427908280013981149110000001398114911FM11045230R OCTAVIO SPAGNUOLO                               15                                                          BOQUEIRAO                     SANTOS                        SP10000425/05/20200000031135SEDEX          000000235530000000000000000102027000000000000                       25/05/202000000311360000000000ISENTO      01
303922073100343270000005346     Livro Graphic Novels Marvel Ed. 29                0000300000047900000071300
303922073100343270000005826     Livro Graphic Novels Marvel Ed. 39                0000100000047900000063200
303922073100343270000005988     Livro Graphic Novels Marvel Ed. 41                0000100000047900000070300
303922073100343270000006204     Livro Graphic Novels Marvel Ed. 45                0000100000047900000063500
303922073100343270000009975     Livro Graphic Novels Marvel Ed. 108               0000200000047900000058200
303922073100343270000010111     Livro Graphic Novels Marvel Ed. 110               0000200000047900000058200
303922073100343270000010197     Livro Graphic Novels Marvel Ed. 111               0000300000047900000058200
503922073000425/05/202026/05/2020PAGO      000400000077840000031136                                                                                                                                                                                                                                                                                                            
20392209411005867RUI ALBERTO FANK                                  ruialbertofank@gmail.com                                              000317873630150051358819980000005199988168FM93048275R JACY R GUEDES                                   110                                                         CAMPESTRE                     SAO LEOPOLDO                  RS10000125/05/20200000019837PAC            000000232930000000000000000102021000000000000                       25/05/202000000198370000000000ISENTO      01
303922094100343480000011343     Ford F100 Ed. 26                                  0000100000052900000020000
303922094100343480000011564     Ford F100 Ed. 27                                  0000100000052900000020000
303922094100343480000011567     Ford F100 Ed. 28                                  0000100000052900000020000
303922094100343490000011627     Ford F100 Ed. 29                                  0000100000052900000020000
303922094100343490000011665     Ford F100 Ed. 31                                  0000100000052900000020000
503922094000125/05/202025/05/2020PAGO      000100000198370000019837                                                                                                                                                                                                                                                                                                            
20392210210513961ANTONIO MAURICIO MEDEIROS ALVES                   alves.antoniomauricio@gmail.com                                       000625582850680053981237700000000000000000FM96010530R VSC DE JAGUARY                                  111                                                         CENTRO                        PELOTAS                       RS10000225/05/20200000012979PAC            000000276420000000000000000052020000000000000                       25/05/202000000129800000000000ISENTO      01
303922102100343640000010647     Turma da Monica - Colecao Oficial de Miniaturas Ed0000100000049900000037000
303922102100343650000010645     Turma da Monica - Colecao Oficial de Miniaturas Ed0000100000049900000037000
303922102100343650000010835     Turma da Monica - Colecao Oficial de Miniaturas Ed0000100000052900000037000
503922102000225/05/202025/05/2020PAGO      000200000064900000012980                                                                                                                                                                                                                                                                                                            
20392212013424600NATHALIA CLARA                                    nathaliaclara@hotmail.com                                             000423957238000011972501100000001197250110FF06550000RUA SANTA CRUZ                                    42                                                          CENTRO                        PIRAPORA DO BOM JESUS         SP10000325/05/20200000025147SEDEX          000000191030000000000000000112027000000000000                       25/05/202000000251460000000000ISENTO      01
303922120100343850000005826     Livro Graphic Novels Marvel Ed. 39                0000100000047900000063200
303922120100343850000005988     Livro Graphic Novels Marvel Ed. 41                0000100000047900000070300
303922120100343850000007046     Livro Graphic Novels Marvel Ed. 60                0000100000047900000070000
303922120100343850000009716     Livro Graphic Novels Marvel Ed. 101               0000100000047900000058200
303922120100343850000010001     Livro Homem-Aranha Ed. 13                         0000100000047900000061700
303922120100343850000010801     Livro Graphic Novels Marvel Ed. 122               0000100000047900000058200
303922120100343850000011165     Livro Graphic Novels Marvel Ed. 129               0000100000047900000058200
503922120000325/05/202025/05/2020PAGO      000300000083820000025146                                                                                                                                                                                                                                                                                                            
20392213510902751RICARDO MARQUES LANES                             rmlanes1701@gmail.com                                                 000082899158880011433244090000001199787739FM09760280AV ARMANDO I SETTI                                417       B2 A102                                           BAETA NEVES                   SAO BERNARDO DO CAMPO         SP10000125/05/20200000020118SEDEX          000000176830000000000000000022028000000000000                       25/05/202000000201180000000000ISENTO      01
303922135100343960000008366     Livro Marvel Heroes Ed. 42                        0000100000047900000058300
303922135100343960000008496     Livro Marvel Heroes Ed. 44                        0000100000047900000058300
303922135100343960000008648     Livro Marvel Heroes Ed. 45                        0000100000047900000058300
303922135100343960000009422     Livro Marvel Heroes Ed. 60                        0000100000047900000058200
303922135100343970000007648     Livro Marvel Heroes Ed. 67                        0000100000047900000058200
303922135100343970000007650     Livro Marvel Heroes Ed. 68                        0000100000047900000058200
503922135000125/05/202025/05/2020PAGO      000100000201180000020118                                                                                                                                                                                                                                                                                                            
20392213711749551JOSINEI PERES                                     josinei.peres@me.com                                                  000801497079910041334292810000004198819321FM81020010AV BRASILIA                                       6119      AP 301 C1                                         NOVO MUNDO                    CURITIBA                      PR10000425/05/20200000030095PAC            000000360930000000000000000052021000000000000                       25/05/202000000300960000000000ISENTO      01
303922137100344020000010349     Livro Graphic Novels Marvel Ed. 116               0000100000047900000058200
303922137100344020000011464     LIivro Tex Ed. 28                                 0000100000049900000058200
303922137100344020000010113     Os Viloes Mais Poderosos da Marvel                0000100000054900000058200
303922137100344020000011570     LIVRO TEX ED. 36                                  0000100000049900000058200
303922137100344020000011607     LIVRO TEX ED. 39                                  0000100000049900000058200
303922137100344020000011604     LIVRO TEX ED. 40                                  0000100000049900000058200
303922137100344020000011722     LIVRO TEX ED. 41                                  0000100000059900000058200
303922137100344030000011739     LIVRO TEX ED. 42                                  0000100000059900000058200
303922137100344030000011751     LIVRO TEX ED. 43                                  0000100000059900000058200
303922137100344030000011753     LIVRO TEX ED. 44                                  0000100000059900000058200
303922137100344030000011891     LIVRO TEX ED. 45                                  0000100000059900000058200
503922137000425/05/202025/05/2020PAGO      000400000075240000030096                                                                                                                                                                                                                                                                                                            
20392216910902751RICARDO MARQUES LANES                             rmlanes1701@gmail.com                                                 000082899158880011433244090000001199787739FM09760280AV ARMANDO I SETTI                                417       B2 A102                                           BAETA NEVES                   SAO BERNARDO DO CAMPO         SP10000125/05/20200000022421SEDEX          000000176830000000000000000022025000000000000                       25/05/202000000224210000000000ISENTO      01
303922169100344350000010191     Marvel Edicao Especial Limitada Vingadores Caixa A0000100000029900000009500
303922169100344350000010197     Livro Graphic Novels Marvel Ed. 111               0000100000047900000058200
303922169100344350000010876     Marvel Edicao Especial Limitada Capitao America - 0000100000029900000015000
303922169100344350000011452     Livro Homem Aranha Ed. 40                         0000100000047900000061700
303922169100344350000010113     Os Viloes Mais Poderosos da Marvel                0000100000054900000058200
303922169100344350000010447     Os Viloes Mais Poderosos da Marvel                0000100000054900000058200
303922169100344350000011069     Os Viloes Mais Poderosos da Marvel                0000100000054900000058200
503922169000125/05/202025/05/2020PAGO      000100000224210000022421                                                                                                                                                                                                                                                                                                            
20392217310776059LEONARDO SERPA                                    leos1975@yahoo.com                                                    000076954597120021243917020000002198438016FM22640101AV DAS AMERICAS                                   2000      LJ31                                              BARRA DA TIJUCA               RIO DE JANEIRO                RJ10000425/05/20200000033695PAC            000000326920000000000000000012021000000000000                       25/05/202000000336960000000000ISENTO      01
303922173100344380000009755     Turma da Monica - Colecao Oficial de Miniaturas - 0000100000049900000037000
303922173100344380000010041     Chevrolet Collection Ed. 505                      0000100000054900000051600
303922173100344380000010227     Chevrolet Collection Ed. 507                      0000100000054900000051600
303922173100344380000010319     LIVRO TEX ED. 07                                  0000200000049900000058200
303922173100344380000010321     LIVRO TEX ED. 08                                  0000200000049900000058200
303922173100344380000009638     SUPER MOTO ED. 02                                 0000100000054900000030000
303922173100344380000010619     LIVRO TEX ED. 11                                  0000100000049900000058200
303922173100344380000011208     Os mitos da Ferrari Ed. 10                        0000100000149900000050000
303922173100344380000011891     LIVRO TEX ED. 45                                  0000100000059900000058200
503922173000425/05/202025/05/2020PAGO      000400000084240000033696                                                                                                                                                                                                                                                                                                            
20392218710229294ANDRE LUIZ DA CUNHA                               andcun@bol.com.br                                                     000016548397010021386857610000002196918560FM22261005R DO HUMAITA                                      275       15O ANDAR                                         HUMAITA                       RIO DE JANEIRO                RJ10000225/05/20200000030945PAC            000000326920000000000000000042024000000000000                       25/05/202000000309460000000000ISENTO      01
303922187100344550000010041     Chevrolet Collection Ed. 505                      0000100000054900000051600
303922187100344550000010227     Chevrolet Collection Ed. 507                      0000100000054900000051600
303922187100344550000009638     SUPER MOTO ED. 02                                 0000100000054900000030000
303922187100344550000009696     SUPER MOTO ED. 04                                 0000100000054900000030000
303922187100344550000011607     LIVRO TEX ED. 39                                  0000100000049900000058200
303922187100344550000011604     LIVRO TEX ED. 40                                  0000100000049900000058200
303922187100344560000011722     LIVRO TEX ED. 41                                  0000100000059900000058200
303922187100344560000011739     LIVRO TEX ED. 42                                  0000100000059900000058200
303922187100344560000011751     LIVRO TEX ED. 43                                  0000100000059900000058200
303922187100344560000011753     LIVRO TEX ED. 44                                  0000100000059900000058200
303922187100344560000011891     LIVRO TEX ED. 45                                  0000100000059900000058200
503922187000225/05/202025/05/2020PAGO      000200000154730000030946                                                                                                                                                                                                                                                                                                            
20392220012197212EDIMAR FRANCISCO DE JESUS                         francisedimar@hotmail.com                                             000086668237630027334447810000002799818545FM29134676R GETULIO VARGAS                                  35                                                          UNIVERSAL                     VIANA                         ES10000225/05/20200000013149PAC            000000276420000000000000000082020000000000000                       25/05/202000000131500000000000ISENTO      01
303922200100344880000008948     Chevrolet Collection Ed. 43                       0000100000049900000051600
303922200100344880000010041     Chevrolet Collection Ed. 505                      0000100000054900000051600
303922200100344880000010587     Chevrolet Collection Ed. 63                       0000100000049900000051600
503922200000225/05/202025/05/2020PAGO      000200000065750000013150                                                                                                                                                                                                                                                                                                            
20392222513424661ROBSON HENRIQUE DA SILVA                          robson.h.silva@gmail.com                                              000047619244700081988645280000008199746444FM543303232  TV PIO XII                                     58        C                                                 CAJUEIRO SECO                 JABOATAO DOS GUARARAPES       PE10000125/05/20200000020118PAC            000000658430000000000000000082027000000000000                       25/05/202000000201180000000000ISENTO      01
303922225100345220000005346     Livro Graphic Novels Marvel Ed. 29                0000100000047900000071300
303922225100345230000005826     Livro Graphic Novels Marvel Ed. 39                0000100000047900000063200
303922225100345230000010910     Livro Graphic Novels Marvel Ed. 126               0000100000047900000058200
303922225100345230000011171     Livro Graphic Novels Marvel Ed. 127               0000100000047900000058200
303922225100345230000011174     Livro Graphic Novels Marvel Ed. 128               0000100000047900000058200
303922225100345230000011168     Livro Graphic Novels Marvel Ed. 130               0000100000047900000058200
503922225000125/05/202025/05/2020PAGO      000100000201180000020118                                                                                                                                                                                                                                                                                                            
20392226313424679FABIO HENRIQUE SCANACAPRA                         fabio.scanacapra@gmail.com                                            000172750468220019332628740000001998172556FM13020370R DR OTAVIO MENDES                                167       APTO83                                            BOTAFOGO                      CAMPINAS                      SP10000425/05/20200000031465SEDEX          000000228120000000000000000012024000000000000                       25/05/202000000314640000000000ISENTO      01
303922263100345720000010613     Marvel Edicao Especial Limitada Thor Ed. 01       0000200000099900000123400
303922263100345720000010623     Marvel Edicao Especial Limitada Thor Ed. 02       0000200000099900000123400
303922263100345720000010729     Marvel Edicao Especial Limitada Thor Ed. 03       0000200000099900000123400
303922263100345720000010876     Marvel Edicao Especial Limitada Capitao America - 0000100000029900000015000
503922263000425/05/202025/05/2020PAGO      000400000078660000031464                                                                                                                                                                                                                                                                                                            
20392229911737888JOAO PEDRO DOS SANTOS BARROS                      dantsuoficial@gmail.com                                               000161487828550047991741980000004799174198FM89086490RUA HARTWIG REGUSE                                91        CASA                                              ENCANO                        INDAIAL                       SC10000125/05/20200000030090PAC            000000408630000000000000000122027000000000000                       25/05/202000000300900000000000ISENTO      01
303922299100346490000009765     One Piece Ed. 09                                  0000100000049900000030000
303922299100346490000009767     One Piece Ed. 10                                  0000100000049900000030000
303922299100346490000009947     One Piece Ed. 12                                  0000100000049900000030000
303922299100346490000009951     One Piece Ed. 14                                  0000100000049900000030000
303922299100346490000009955     One Piece Ed. 16                                  0000100000049900000030000
303922299100346490000009961     One Piece Ed. 19                                  0000100000049900000030000
303922299100346490000010547     ONE PIECE ED. 22                                  0000100000049900000030000
303922299100346490000009959     ONE PIECE ED. 18                                  0000100000049900000030000
303922299100346490000010775     ONE PIECE ED. 27                                  0000100000049900000030000
303922299100346500000010781     ONE PIECE ED. 30                                  0000100000049900000030000
303922299100346500000010894     ONE PIECE ED. 31                                  0000100000049900000030000
303922299100346500000011243     One Piece Ed. 39                                  0000100000052900000030000
503922299000125/05/202025/05/2020PAGO      000100000300900000030090                                                                                                                                                                                                                                                                                                            
20392231610938332ELIAS ALEXANDRINO DA SILVA JUNIOR                 junioralexandrino@hotmail.com                                         000633081854150000000000000000008199115485FM54430000AV BEIRA MAR                                      4702      402                                               CANDEIAS                      JABOATAO DOS GUARARAPES       PE10000125/05/20200000020118PAC            000000658430000000000000000032025000000000000                       25/05/202000000201180000000000ISENTO      01
303922316100346860000009600     Livro Homem-Aranha Ed. 05                         0000100000047900000061700
303922316100346860000010465     Livro Homem-Aranha Ed. 23                         0000100000047900000061700
303922316100346860000010615     Livro Homem-Aranha Ed. 25                         0000100000047900000061700
303922316100346860000010737     Livro Marvel Heroes Ed. 83                        0000100000047900000058200
303922316100346870000011093     Livro Homem Aranha Ed. 36                         0000100000047900000061700
303922316100346870000011458     Livro Homem Aranha Ed. 38                         0000100000047900000061700
503922316000125/05/202025/05/2020PAGO      000100000201180000020118                                                                                                                                                                                                                                                                                                            
20392232111691981DANIEL GERALDI                                    daniel_geraldi@yahoo.com.br                                           000322226548820015328336680000001598109666FM18500000RUA SALATIELO PIRES                               340                                                         VILA SAO JOSE                 LARANJAL PAULISTA             SP10000125/05/20200000026824PAC            000000237530000000000000000082026000000000000                       25/05/202000000268240000000000ISENTO      01
303922321100346950000010199     Livro Graphic Novels Marvel Ed. 112               0000100000047900000058200
303922321100346950000010451     Livro Graphic Novels Marvel Ed. 118               0000100000047900000058200
303922321100346960000010347     Livro Graphic Novels Marvel Ed. 115               0000100000047900000058200
303922321100346960000010799     Livro Graphic Novels Marvel Ed. 121               0000100000047900000058200
303922321100346960000010801     Livro Graphic Novels Marvel Ed. 122               0000100000047900000058200
303922321100346960000010859     Livro Graphic Novels Marvel Ed. 123               0000100000047900000058200
303922321100346960000010861     Livro Graphic Novels Marvel Ed. 124               0000100000047900000058200
303922321100346960000010904     Livro Graphic Novels Marvel Ed. 125               0000100000047900000058200
503922321000125/05/202025/05/2020PAGO      000100000268240000026824                                                                                                                                                                                                                                                                                                            
20392233013424724PAULO MATHIAS                                     psmt2007@gmail.com                                                    000152827198000011948770460000001194877046FM08223120R MANDASSAIA                                      145       CASA 1                                            CIDADE ANTONIO ESTEVAO DE CARVSAO PAULO                     SP10000125/05/20200000010071SEDEX          000000109120000000000000000032023000000000000                       25/05/202000000100710000000000ISENTO      01
303922330100347040000008100     Guitar Collection Ed. 62                          0000100000044900000018500
303922330100347040000004639     Guitar Collection Ed. 05                          0000100000044900000016200
503922330000125/05/202025/05/2020PAGO      000100000100710000010071                                                                                                                                                                                                                                                                                                            
20392236313088474PAULO SERGIO FABREGA VALDEZ                       ps.valdez@yahoo.com.br                                                000042448908230000000000000000001399723900FM11070100R DR CARVALHO DE MENDONCA                         188                                                         ENCRUZILHADA                  SANTOS                        SP10000325/05/20200000020962SEDEX          000000163620000000000000000102023000000000000                       25/05/202000000209610000000000ISENTO      01
303922363100347690000011561     LIVRO TEX ED. 35                                  0000100000049900000058200
303922363100347690000011607     LIVRO TEX ED. 39                                  0000100000049900000058200
303922363100347700000011722     LIVRO TEX ED. 41                                  0000100000059900000058200
303922363100347700000011739     LIVRO TEX ED. 42                                  0000100000059900000058200
303922363100347700000011751     LIVRO TEX ED. 43                                  0000100000059900000058200
503922363000325/05/202025/05/2020PAGO      000300000069870000020961                                                                                                                                                                                                                                                                                                            
20392237313135207AURELIO FRANCO CINTRA GARCIA                      lelo3780@hotmail.com                                                  000255774698300016991849330000001699184933FM14401426AV DR ISMAEL A Y ALONSO                           2901                                                        JARDIM PIRATININGA II         FRANCA                        SP10000425/05/20200000039940PAC            000000237530000000000000000052024000000000000                       25/05/202000000399400000000000ISENTO      01
303922373100347850000006974     Turma da Monica - Colecao Oficial de Miniaturas - 0000100000049900000037000
303922373100347860000007026     Turma da Monica - Colecao Oficial de Miniaturas - 0000100000049900000037000
303922373100347860000008182     Turma da Monica - Colecao Oficial de Miniaturas - 0000100000049900000037000
303922373100347860000008522     Turma da Monica - Colecao Oficial de Miniaturas - 0000100000049900000037000
303922373100347860000008890     Turma da Monica - Colecao Oficial de Miniaturas - 0000100000049900000037000
303922373100347860000009763     One Piece Ed. 08                                  0000100000044900000030000
303922373100347860000009947     One Piece Ed. 12                                  0000100000049900000030000
303922373100347860000009995     Turma da Monica - Colecao Oficial de Miniaturas Ed0000100000049900000037000
303922373100347860000009696     SUPER MOTO ED. 04                                 0000100000054900000030000
303922373100347860000010829     Turma da Monica - Colecao Oficial de Miniaturas Ed0000100000049900000037000
303922373100347860000011196     Os mitos da Ferrari Ed. 05                        0000100000149900000050000
303922373100347870000011208     Os mitos da Ferrari Ed. 10                        0000100000149900000050000
503922373000425/05/202025/05/2020PAGO      000400000099850000039940                                                                                                                                                                                                                                                                                                            
20392239512165363ALEXANDRE MENDES CARDOZO                          alexandre2mendes@gmail.com                                            000000155000470051322430670000005198930045FM90020006R DOS ANDRADAS                                    918       502                                               CENTRO HISTORICO              PORTO ALEGRE                  RS10000125/05/20200000010059PAC            000000216230000000000000000032027000000000000                       25/05/202000000100590000000000ISENTO      01
303922395100347970000008074     Livro Marvel Heroes Ed. 36                        0000100000047900000058300
303922395100347970000008276     Livro Marvel Heroes Ed. 39                        0000100000047900000058300
303922395100347980000008278     Livro Marvel Heroes Ed. 40                        0000100000047900000058300
503922395000125/05/202025/05/2020PAGO      000100000100590000010059                                                                                                                                                                                                                                                                                                            
20392239911703403DEMERVAL PINHEIRO DA SILVA FILHO                  demervalpinheiro@yahoo.com.br                                         000237733593490098324632380000009899968190FM65072240R DEZ                                             27        QUADRA G                                          COHASERMA                     SAO LUIS                      MA10000425/05/20200000067675PAC            000002398030000000000000000022028000000000000                       25/05/202000000676760000000000ISENTO      01
303922399100348060000006984     Livro Marvel Heroes Ed. 20                        0000100000047900000069600
303922399100348060000007846     Livro Marvel Heroes Ed. 31                        0000100000047900000058300
303922399100348060000007960     Livro Marvel Heroes Ed. 33                        0000100000047900000058300
303922399100348070000008650     Livro Marvel Heroes Ed. 46                        0000100000047900000058300
303922399100348070000007914     Livro Graphic Novels Marvel Ed. 71                0000100000047900000064700
303922399100348070000008744     Livro Graphic Novels Marvel Ed. 86                0000100000047900000064700
303922399100348070000008992     Livro Marvel Heroes Ed. 53                        0000100000047900000058200
303922399100348070000009716     Livro Graphic Novels Marvel Ed. 101               0000100000047900000058200
303922399100348070000009777     Livro Marvel Heroes Ed. 63                        0000100000047900000058200
303922399100348070000007648     Livro Marvel Heroes Ed. 67                        0000100000047900000058200
303922399100348070000007650     Livro Marvel Heroes Ed. 68                        0000100000047900000058200
303922399100348070000010315     Livro Graphic Novels Marvel Ed. 113               0000100000047900000058200
303922399100348070000010317     Livro Graphic Novels Marvel Ed. 114               0000100000047900000058200
303922399100348080000010449     Livro Graphic Novels Marvel Ed. 117               0000100000047900000058200
303922399100348080000010627     Livro Graphic Novels Marvel Ed. 120               0000100000047900000058200
303922399100348080000010613     Marvel Edicao Especial Limitada Thor Ed. 01       0000100000099900000123400
303922399100348080000010623     Marvel Edicao Especial Limitada Thor Ed. 02       0000100000099900000123400
303922399100348080000010729     Marvel Edicao Especial Limitada Thor Ed. 03       0000100000099900000123400
303922399100348080000010735     Livro Marvel Heroes Ed. 82                        0000100000047900000058200
303922399100348080000010859     Livro Graphic Novels Marvel Ed. 123               0000100000047900000058200
303922399100348080000010861     Livro Graphic Novels Marvel Ed. 124               0000100000047900000058200
303922399100348080000010904     Livro Graphic Novels Marvel Ed. 125               0000100000047900000058200
303922399100348080000011446     Livro Marvel Heroes Ed. 93                        0000100000047900000058200
303922399100348090000011512     Livro Marvel Heroes Ed. 100                       0000100000047900000058200
303922399100348090000011524     Livro Graphic Novels Marvel Ed. 135               0000100000047900000058200
503922399000425/05/202025/05/2020PAGO      000400000169190000067676                                                                                                                                                                                                                                                                                                            
20392241010747813SAMUEL MARQUES PINA                               cabomarques@yahoo.com.br                                              000564338839150043984422340000004398442234FM86340000RUA CARLOS GOMES                                  692       CASA                                              CENTRO                        SERTANEJA                     PR10000425/05/20200000030720PAC            000000318720000000000000000042024000000000000                       25/05/202000000307200000000000ISENTO      01
303922410100348210000010041     Chevrolet Collection Ed. 505                      0000100000054900000051600
303922410100348210000009638     SUPER MOTO ED. 02                                 0000100000054900000030000
303922410100348220000009696     SUPER MOTO ED. 04                                 0000100000054900000030000
303922410100348220000011196     Os mitos da Ferrari Ed. 05                        0000100000149900000050000
303922410100348220000011205     Os mitos da Ferrari Ed. 08                        0000100000149900000050000
303922410100348220000011208     Os mitos da Ferrari Ed. 10                        0000100000149900000050000
503922410000425/05/202025/05/2020PAGO      000400000076800000030720                                                                                                                                                                                                                                                                                                            
20392251213424822WESLEY TOMAZ                                      wesleytomaz@gmail.com                                                 000061500076260011946560380000001194656038FM35020330R MARTIM LUTERO                                   91                                                          ESPLANADA                     GOVERNADOR VALADARES          MG10000125/05/20200000013412PAC            000000318730000000000000000112026000000000000                       25/05/202000000134120000000000ISENTO      01
303922512100350180000004848     Livro Graphic Novels Marvel Ed. 22                0000100000047900000063500
303922512100350180000007914     Livro Graphic Novels Marvel Ed. 71                0000100000047900000064700
303922512100350180000010801     Livro Graphic Novels Marvel Ed. 122               0000100000047900000058200
303922512100350180000011437     Livro Graphic Novels Marvel Ed. 134               0000100000047900000058200
503922512000125/05/202029/05/2020PAGO      000100000134120000013412                                                                                                                                                                                                                                                                                                            
20392253713424822WESLEY TOMAZ                                      wesleytomaz@gmail.com                                                 000061500076260011946560380000001194656038FM04050020R BETEL                                           48        AP 2                                              MIRANDOPOLIS                  SAO PAULO                     SP10000125/05/20200000010059SEDEX          000000146730000000000000000112026000000000000                       25/05/202000000100590000000000ISENTO      01
303922537100350710000006204     Livro Graphic Novels Marvel Ed. 45                0000100000047900000063500
303922537100350710000009600     Livro Homem-Aranha Ed. 05                         0000100000047900000061700
303922537100350710000011524     Livro Graphic Novels Marvel Ed. 135               0000100000047900000058200
503922537000125/05/202029/05/2020PAGO      000100000100590000010059                                                                                                                                                                                                                                                                                                            
20392254310776059LEONARDO SERPA                                    leos1975@yahoo.com                                                    000076954597120021243917020000002198438016FM22640101AV DAS AMERICAS                                   2000      LJ31                                              BARRA DA TIJUCA               RIO DE JANEIRO                RJ10000425/05/20200000031135PAC            000000412520000000000000000012021000000000000                       25/05/202000000311360000000000ISENTO      01
303922543100350820000005346     Livro Graphic Novels Marvel Ed. 29                0000100000047900000071300
303922543100350820000006036     Livro Graphic Novels Marvel Ed. 43                0000100000047900000070000
303922543100350820000006650     Livro Graphic Novels Marvel Ed. 54                0000100000047900000065000
303922543100350830000007046     Livro Graphic Novels Marvel Ed. 60                0000100000047900000070000
303922543100350830000007778     Livro Graphic Novels Marvel Ed. 69                0000200000047900000064700
303922543100350830000009927     Livro Graphic Novels Marvel Ed. 105               0000100000047900000058200
303922543100350830000009929     Livro Graphic Novels Marvel Ed. 106               0000100000047900000058200
303922543100350830000010317     Livro Graphic Novels Marvel Ed. 114               0000100000047900000058200
303922543100350830000010449     Livro Graphic Novels Marvel Ed. 117               0000200000047900000058200
303922543100350830000010349     Livro Graphic Novels Marvel Ed. 116               0000200000047900000058200
503922543000425/05/202025/05/2020PAGO      000400000077840000031136                                                                                                                                                                                                                                                                                                            
20392255112901624AUREO GOMES ZANATTA                               aureozas@yahoo.com.br                                                 000468326370040031334704200000003199590052FM30882630R AGILIO C DE SOUZA                               815       AP 301 OU 302                                     SERRANO                       BELO HORIZONTE                MG10000225/05/20200000020366PAC            000000258430000000000000000102024000000000000                       25/05/202000000203660000000000ISENTO      01
303922551100350880000011739     LIVRO TEX ED. 42                                  0000100000059900000058200
303922551100350880000011751     LIVRO TEX ED. 43                                  0000100000059900000058200
303922551100350880000011753     LIVRO TEX ED. 44                                  0000100000059900000058200
303922551100350880000011891     LIVRO TEX ED. 45                                  0000100000059900000058200
503922551000225/05/202025/05/2020PAGO      000200000101830000020366                                                                                                                                                                                                                                                                                                            
20392267712768551EDUARDO DE OLIVEIRA ARAUJO                        eduardoaraujomg@gmail.com                                             000853566976000034331327760000003499250341FM38026240R STO AGOSTINHO                                   9         ESQUINA COM RUA SAO MATEUS                        VILA SAO VICENTE              UBERABA                       MG10000125/05/20200000005682PAC            000000232930000000000000000122026000000000000                       25/05/202000000056820000000000ISENTO      01
303922677100352500000010285     Livro Marvel Heroes Ed. 76                        0000100000047900000058200
503922677000125/05/202025/05/2020PAGO      000100000056820000005682                                                                                                                                                                                                                                                                                                            
20392269512849103EDUARDO FALCAO DUARTE                             snowlesskid@gmail.com                                                 000995971790910051334631910000005199991590FM90510040R HILARIO RIBEIRO                                 35        501                                               MOINHOS DE VENTO              PORTO ALEGRE                  RS10000125/05/20200000016079PAC            000000216220000000000000000112021000000000000                       25/05/202000000160790000000000ISENTO      01
303922695100352780000010191     Marvel Edicao Especial Limitada Vingadores Caixa A0000100000029900000009500
303922695100352780000010873     Marvel Edicao Especial Limitada Capitao America - 0000100000099900000097600
303922695100352780000010891     Marvel Edicao Especial Limitada Capitao America - 0000100000099900000076800
503922695000125/05/202025/05/2020PAGO      000100000160790000016079                                                                                                                                                                                                                                                                                                            
20392271713425291FRANCINATE GOMES DE ARAUJO                        francinate@yahoo.com.br                                               000037660766120041984506500000004198450650FM83705250R OTAVIO M SANTIAGO                               149       CASA                                              ESTACAO                       ARAUCARIA                     PR10000125/05/20200000010059PAC            000000276420000000000000000072021000000000000                       25/05/202000000100590000000000ISENTO      01
303922717100353260000008578     Livro Homem-Aranha Ed. 01                         0000100000047900000061700
303922717100353260000008582     Livro Homem-Aranha Ed. 03                         0000100000047900000061700
303922717100353260000009602     Livro Homem-Aranha Ed. 06                         0000100000047900000061700
503922717000125/05/202025/05/2020PAGO      000100000100590000010059                                                                                                                                                                                                                                                                                                            
20392273313175320LUCIANO GUSTAVO SOUTO                             souto.lucianogustavo@gmail.com                                        000056897109460049356112000000004999802125FM89503170RUA RICARDO FENDT                                 231       CASA B13                                          FIGUEROA                      CACADOR                       SC10000125/05/20200000016765PAC            000000318730000000000000000072027000000000000                       25/05/202000000167650000000000ISENTO      01
303922733100353670000006204     Livro Graphic Novels Marvel Ed. 45                0000100000047900000063500
303922733100353670000010910     Livro Graphic Novels Marvel Ed. 126               0000100000047900000058200
303922733100353670000011171     Livro Graphic Novels Marvel Ed. 127               0000100000047900000058200
303922733100353680000011174     Livro Graphic Novels Marvel Ed. 128               0000100000047900000058200
303922733100353680000011168     Livro Graphic Novels Marvel Ed. 130               0000100000047900000058200
503922733000125/05/202025/05/2020PAGO      000100000167650000016765                                                                                                                                                                                                                                                                                                            
20392281113121409ERASMO FERREIRA JR                                erasmoferreirajunior@gmail.com                                        000702817062470000000000000000009299202797FM69037220AL URUGUAI                                        109       CONDOMINIO JARDIM DAS AMERICAS                    PONTA NEGRA                   MANAUS                        AM10000226/05/20200000016286PAC            000000387610000000000000000112024000000000000                       26/05/202000000162860000000000ISENTO      01
303922811100354650000007100     Livro Marvel Heroes Ed. 22                        0000100000047900000058300
303922811100354650000009676     Livro Marvel Heroes Ed. 62                        0000100000047900000058200
303922811100354650000009777     Livro Marvel Heroes Ed. 63                        0000100000047900000058200
303922811100354650000010349     Livro Graphic Novels Marvel Ed. 116               0000100000047900000058200
503922811000226/05/202026/05/2020PAGO      000200000081430000016286                                                                                                                                                                                                                                                                                                            
20392285713425418HUDSON DE PAIVA BARBOSA JUNIOR                    hudsbh@hotmail.com                                                    000105447186070031975360880000003197536088FM31570040R ANTONIO ROCHID                                  106       B                                                 LETICIA                       BELO HORIZONTE                MG10000126/05/20200000006826PAC            000000183630000000000000000112026000000000000                       26/05/202000000068260000000000ISENTO      01
303922857100355300000010894     ONE PIECE ED. 31                                  0000100000049900000030000
503922857000126/05/202026/05/2020PAGO      000100000068260000006826                                                                                                                                                                                                                                                                                                            
20392289213425434LUCAS ELOI MEIRA FONA                             lucaseloimf@hotmail.com                                               000141209907290021982894700000002198289470FM24445400R ALUISIO NEIVA                                   1054      BLOCO 3, APTO 1003                                CENTRO                        SAO GONCALO                   RJ10000125/05/20200000020979PAC            000000408630000000000000000012027000000000000                       25/05/202000000209790000000000ISENTO      01
303922892100338980000010613     Marvel Edicao Especial Limitada Thor Ed. 01       0000100000099900000123400
303922892100338990000010623     Marvel Edicao Especial Limitada Thor Ed. 02       0000100000099900000123400
303922892100338990000010729     Marvel Edicao Especial Limitada Thor Ed. 03       0000100000099900000123400
503922892000125/05/202026/05/2020PAGO      000100000209790000020979                                                                                                                                                                                                                                                                                                            
20392289510553003WILSON JOSE GALLO                                 wilsongallodescalvado@gmail.com                                       000174100438140019358329540000001999195893FM13690000RUA FERNANDO GABRIELLI 319                        319       CASA                                              JARDIM BELEM                  DESCALVADO                    SP10000126/05/20200000013470PAC            000000165330000000000000000112027000000000000                       26/05/202000000134700000000000ISENTO      01
303922895100354420000007236     Guitar Collection Ed. 51                          0000100000044900000018500
303922895100354420000007422     Guitar Collection Ed. 52                          0000100000044900000018500
303922895100354420000008324     Guitar Collection Ed. 65                          0000100000044900000018500
503922895000126/05/202026/05/2020PAGO      000100000134700000013470                                                                                                                                                                                                                                                                                                            
20392289610776059LEONARDO SERPA                                    leos1975@yahoo.com                                                    000076954597120021243917020000002198438016FM22640101AV DAS AMERICAS                                   2000      LJ31                                              BARRA DA TIJUCA               RIO DE JANEIRO                RJ10000426/05/20200000032345PAC            000000360920000000000000000012021000000000000                       26/05/202000000323440000000000ISENTO      01
303922896100354420000010449     Livro Graphic Novels Marvel Ed. 117               0000100000047900000058200
303922896100354420000011891     LIVRO TEX ED. 45                                  0001000000059900000058200
503922896000426/05/202026/05/2020PAGO      000400000080860000032344                                                                                                                                                                                                                                                                                                            
20392381913416024TONY SANTOS DE PONTES                             tonydepontes@gmail.com                                                000023929577380021247567680000002196913068FM21230065R JOAO DALTON                                     95        204                                               IRAJA                         RIO DE JANEIRO                RJ30000119/05/20200000013986PAC            000000258400000000000000000000000000000000000      71088263         25/05/202000000139860000000000ISENTO      01
303923819100255630000010613     Marvel Edicao Especial Limitada Thor Ed. 01       0000100000099900000123400
303923819100255630000010623     Marvel Edicao Especial Limitada Thor Ed. 02       0000100000099900000123400
503923819000124/05/202026/05/2020PAGO      000100000139860000013986                                                                                                                                                                                                                                                                                                            
20392382013419012WALDEMAR MARQUART NETO                            waldemar_neto2@hotmail.com                                            000073795144310081999002090000008199900209FM51020190R TEN JOAO CICERO                                 717       2504                                              BOA VIAGEM                    RECIFE                        PE30000120/05/20200000124061PAC            000001392400000000000000000000000000000000000      71088461         25/05/202000001240610000000000ISENTO      01
303923820100260440000008980     Livro Graphic Novels Marvel Ed. 91                0000100000047900000064700
303923820100260440000008982     Livro Graphic Novels Marvel Ed. 92                0000100000047900000064700
303923820100260440000009400     Livro Graphic Novels Marvel Ed. 95                0000100000047900000064700
303923820100260440000009402     Livro Graphic Novels Marvel Ed. 96                0000100000047900000058200
303923820100260440000009414     Livro Graphic Novels Marvel Ed. 98                0000100000047900000058200
303923820100260440000009632     Livro Graphic Novels Marvel Ed. 99                0000100000047900000058200
303923820100260440000009716     Livro Graphic Novels Marvel Ed. 101               0000100000047900000058200
303923820100260440000009718     Livro Graphic Novels Marvel Ed. 102               0000100000047900000058200
303923820100260450000009865     Livro Graphic Novels Marvel Ed. 104               0000100000047900000058200
303923820100260450000009927     Livro Graphic Novels Marvel Ed. 105               0000100000047900000058200
303923820100260450000009929     Livro Graphic Novels Marvel Ed. 106               0000100000047900000058200
303923820100260450000009973     Livro Graphic Novels Marvel Ed. 107               0000100000047900000058200
303923820100260450000009975     Livro Graphic Novels Marvel Ed. 108               0000100000047900000058200
303923820100260450000010111     Livro Graphic Novels Marvel Ed. 110               0000100000047900000058200
303923820100260450000010197     Livro Graphic Novels Marvel Ed. 111               0000100000047900000058200
303923820100260450000010199     Livro Graphic Novels Marvel Ed. 112               0000100000047900000058200
303923820100260450000010315     Livro Graphic Novels Marvel Ed. 113               0000100000047900000058200
303923820100260450000010317     Livro Graphic Novels Marvel Ed. 114               0000100000047900000058200
303923820100260460000010451     Livro Graphic Novels Marvel Ed. 118               0000100000047900000058200
303923820100260460000010449     Livro Graphic Novels Marvel Ed. 117               0000100000047900000058200
303923820100260460000010349     Livro Graphic Novels Marvel Ed. 116               0000100000047900000058200
303923820100260460000010347     Livro Graphic Novels Marvel Ed. 115               0000100000047900000058200
303923820100260460000010627     Livro Graphic Novels Marvel Ed. 120               0000100000047900000058200
303923820100260460000010799     Livro Graphic Novels Marvel Ed. 121               0000100000047900000058200
303923820100260460000010801     Livro Graphic Novels Marvel Ed. 122               0000100000047900000058200
303923820100260460000010859     Livro Graphic Novels Marvel Ed. 123               0000100000047900000058200
303923820100260460000010861     Livro Graphic Novels Marvel Ed. 124               0000100000047900000058200
303923820100260460000010904     Livro Graphic Novels Marvel Ed. 125               0000100000047900000058200
303923820100260470000010910     Livro Graphic Novels Marvel Ed. 126               0000100000047900000058200
303923820100260470000011171     Livro Graphic Novels Marvel Ed. 127               0000100000047900000058200
303923820100260470000011174     Livro Graphic Novels Marvel Ed. 128               0000100000047900000058200
303923820100260470000011165     Livro Graphic Novels Marvel Ed. 129               0000100000047900000058200
303923820100260470000011168     Livro Graphic Novels Marvel Ed. 130               0000100000047900000058200
303923820100260470000011428     Livro Graphic Novels Marvel Ed. 131               0000100000047900000058200
303923820100260470000011434     Livro Graphic Novels Marvel Ed. 132               0000100000047900000058200
303923820100260470000011437     Livro Graphic Novels Marvel Ed. 134               0000100000047900000058200
303923820100260470000011524     Livro Graphic Novels Marvel Ed. 135               0000100000047900000058200
503923820000125/05/202026/05/2020PAGO      000100001240610000124061                                                                                                                                                                                                                                                                                                            
20392382111765406 FABIO CASTILHO                                   fabio_cgc@yahoo.com.br                                                000269366488860019996298560000001999629856FM13085260R DO SOL                                          148       SOBRADO 157                                       JARDIM DO SOL                 CAMPINAS                      SP30000120/05/20200000011447SEDEX          000000146700000000000000000000000000000000000      71088489         25/05/202000000114470000000000ISENTO      01
303923821100261120000010879     LIVRO TEX ED. 17                                  0000100000049900000058200
303923821100261120000010882     LIVRO TEX ED. 18                                  0000100000049900000058200
503923821000125/05/202026/05/2020PAGO      000100000114470000011447                                                                                                                                                                                                                                                                                                            
20392382213420223EVERALDO DUQUE VILAR FILHO                        everaldoduque@hotmail.com                                             000022001694180081301052610000008198801636FM53240110R VULCAO                                          87        101                                               BONSUCESSO                    OLINDA                        PE30000121/05/20200000010549PAC            000000511300000000000000000000000000000000000      71089027         25/05/202000000105490000000000ISENTO      01
303923822100275260000010627     Livro Graphic Novels Marvel Ed. 120               0000100000047900000058200
303923822100275260000011452     Livro Homem Aranha Ed. 40                         0000100000047900000061700
303923822100275260000011069     Os Viloes Mais Poderosos da Marvel                0000100000054900000058200
503923822000126/05/202026/05/2020PAGO      000100000105490000010549                                                                                                                                                                                                                                                                                                            
20392382313387550GUSTAVO BELCHIOR                                  gustavo_belchior00@outlook.com                                        000032002201390062982504810000006298250481FM75075200R ARGENTINA                                       1174      QD 14 LT 02                                       BOA VISTA                     ANAPOLIS                      GO30000122/05/20200000013412PAC            000000318700000000000000000000000000000000000      71089678         25/05/202000000134120000000000ISENTO      01
303923823100291530000009402     Livro Graphic Novels Marvel Ed. 96                0000100000047900000058200
303923823100291530000009414     Livro Graphic Novels Marvel Ed. 98                0000100000047900000058200
303923823100291530000009975     Livro Graphic Novels Marvel Ed. 108               0000100000047900000058200
303923823100291530000010111     Livro Graphic Novels Marvel Ed. 110               0000100000047900000058200
503923823000127/05/202026/05/2020PAGO      000100000134120000013412                                                                                                                                                                                                                                                                                                            
20392382411770684BRENO NEVES CORREIA DE ARAUJO                     neves210@hotmail.com                                                  000099385664050081309323540000008199730077FM54420001R GOIANA                                          4405      APT 701                                           PIEDADE                       JABOATAO DOS GUARARAPES       PE30000123/05/20200000013412PAC            000000564100000000000000000000000000000000000      71090105         25/05/202000000134120000000000ISENTO      01
303923824100301750000011461     Livro Homem Aranha Ed. 37                         0000100000047900000061700
303923824100301760000011458     Livro Homem Aranha Ed. 38                         0000100000047900000061700
303923824100301760000011455     Livro Homem Aranha Ed. 39                         0000100000047900000061700
303923824100301760000011452     Livro Homem Aranha Ed. 40                         0000100000047900000061700
503923824000128/05/202026/05/2020PAGO      000100000134120000013412                                                                                                                                                                                                                                                                                                            
20392382513403457ROBSON MINGHINI                                   r.minghini@gmail.com                                                  000269941298880011279995650000001199689169FM03184010R RUI MARTINS                                     137       164A                                              ALTO DA MOOCA                 SAO PAULO                     SP30000123/05/20200000039920SEDEX          000000240800000000000000000000000000000000000      71090155         25/05/202000000399200000000000ISENTO      01
303923825100303150000009406     LIVRO TEX ED. 03                                  0000100000049900000058200
303923825100303150000009404     Livro Tex Ed. 04                                  0000100000049900000058200
303923825100303150000010223     LIVRO TEX ED. 06                                  0000100000049900000058200
303923825100303150000010319     LIVRO TEX ED. 07                                  0000100000049900000058200
303923825100303150000010385     LIVRO TEX ED. 10                                  0000100000049900000058200
303923825100303160000010383     LIVRO TEX ED. 09                                  0000100000049900000058200
303923825100303160000010321     LIVRO TEX ED. 08                                  0000100000049900000058200
303923825100303160000010619     LIVRO TEX ED. 11                                  0000100000049900000058200
303923825100303160000010741     LIVRO TEX ED. 13                                  0000100000049900000058200
303923825100303160000010980     LIVRO TEX ED. 19                                  0000100000049900000058200
303923825100303160000010992     LIVRO TEX ED. 22                                  0000100000049900000058200
303923825100303160000011078     LIVRO TEX ED. 23                                  0000100000049900000058200
303923825100303160000011473     LIVRO TEX ED. 25                                  0000100000049900000058200
303923825100303160000011470     Livro Tex Ed. 26                                  0000100000049900000058200
303923825100303160000011464     LIivro Tex Ed. 28                                 0000100000049900000058200
303923825100303170000011604     LIVRO TEX ED. 40                                  0000100000049900000058200
503923825000128/05/202026/05/2020PAGO      000100000399200000039920                                                                                                                                                                                                                                                                                                            
20392382613420160DANILO BENEDITO ALONSO                            daniloalonso@gmail.com                                                000288008768620061986461170000006198646117FM18690000RUA GUERINO BIAZON                                317       CASA                                              CENTRO                        ITATINGA                      SP30000123/05/20200000011529PAC            000000174100000000000000000000000000000000000      71090216         25/05/202000000115290000000000ISENTO      01
303923826100305240000010113     Os Viloes Mais Poderosos da Marvel                0000100000054900000058200
303923826100305240000010447     Os Viloes Mais Poderosos da Marvel                0000100000054900000058200
303923826100305240000011069     Os Viloes Mais Poderosos da Marvel                0000100000054900000058200
503923826000128/05/202026/05/2020PAGO      000100000115290000011529                                                                                                                                                                                                                                                                                                            
20392382711001905FABIANO MARTINS DOS ANJOS                         fabiano.quimica@gmail.com                                             000816157101590061349101330000006199617382FM72145805Q QNM                                             2         QNM 38 CONJUNTO E CASA 2                          TAGUATINGA NORTE              BRASILIA                      DF30000123/05/20200000013412PAC            000000258400000000000000000000000000000000000      71090436         25/05/202000000134120000000000ISENTO      01
303923827100313130000009678     Livro Homem-Aranha Ed. 07                         0000100000047900000061700
303923827100313130000009973     Livro Graphic Novels Marvel Ed. 107               0000100000047900000058200
303923827100313130000010001     Livro Homem-Aranha Ed. 13                         0000100000047900000061700
303923827100313130000011512     Livro Marvel Heroes Ed. 100                       0000100000047900000058200
503923827000128/05/202026/05/2020PAGO      000100000134120000013412                                                                                                                                                                                                                                                                                                            
20392382810946398GUILHERME DA SILVA GARCIA                         garcia2987@hotmail.com                                                000064662829100048999341980000004899934198FM88190000RUA DAS AROEIRAS                                  91        APTO 02                                           PALMAS                        GOVERNADOR CELSO RAMOS        SC30000123/05/20200000020118PAC            000000408600000000000000000000000000000000000      71090487         25/05/202000000201180000000000ISENTO      01
303923828100314650000009718     Livro Graphic Novels Marvel Ed. 102               0000100000047900000058200
303923828100314650000009927     Livro Graphic Novels Marvel Ed. 105               0000100000047900000058200
303923828100314660000010197     Livro Graphic Novels Marvel Ed. 111               0000100000047900000058200
303923828100314660000010799     Livro Graphic Novels Marvel Ed. 121               0000100000047900000058200
303923828100314660000010801     Livro Graphic Novels Marvel Ed. 122               0000100000047900000058200
303923828100314660000010859     Livro Graphic Novels Marvel Ed. 123               0000100000047900000058200
503923828000128/05/202026/05/2020PAGO      000100000201180000020118                                                                                                                                                                                                                                                                                                            
20392382910824476MARCO ANTONIO FERREIRA                            marcoantonioferreira692@gmail.com                                     000672381816490000000000000000003196751928FM31035200R GUSTAVO DA SILVEIRA                             1000      APART.302, BL.E-30                                HORTO FLORESTAL               BELO HORIZONTE                MG30000124/05/20200000018632PAC            000000216200000000000000000000000000000000000      71090550         25/05/202000000186320000000000ISENTO      01
303923829100316180000010041     Chevrolet Collection Ed. 505                      0000100000054900000051600
303923829100316180000010227     Chevrolet Collection Ed. 507                      0000100000054900000051600
303923829100316180000011348     Chevrolet Collection Ed. 511                      0000100000054900000051600
503923829000129/05/202026/05/2020PAGO      000100000186320000018632                                                                                                                                                                                                                                                                                                            
20392383010824476MARCO ANTONIO FERREIRA                            marcoantonioferreira692@gmail.com                                     000672381816490000000000000000003196751928FM31035200R GUSTAVO DA SILVEIRA                             1000      APART. 302, BL. E-30                              HORTO FLORESTAL               BELO HORIZONTE                MG30000124/05/20200000022544PAC            000000258400000000000000000000000000000000000      71090552         25/05/202000000225440000000000ISENTO      01
303923830100316180000008948     Chevrolet Collection Ed. 43                       0000100000049900000051600
303923830100316180000010585     Chevrolet Collection Ed. 62                       0000100000049900000051600
303923830100316180000010587     Chevrolet Collection Ed. 63                       0000100000049900000051600
303923830100316180000010691     Chevrolet Collection Ed. 65                       0000100000049900000051600
503923830000129/05/202026/05/2020PAGO      000100000225440000022544                                                                                                                                                                                                                                                                                                            
20392383113423228MARCUS ELOI DOURADO                               nidourado@hotmail.com                                                 000615989925200071301128730000007198717051FM41701015AV ALPHAVILLE                                     296                                                         ALPHAVILLE I                  SALVADOR                      BA30000124/05/20200000017392PAC            000000242200000000000000000000000000000000000      71090556         25/05/202000000173920000000000ISENTO      01
303923831100316290000010821     LIVRO TEX ED. 15                                  0000100000049900000058200
303923831100316290000011464     LIivro Tex Ed. 28                                 0000100000049900000058200
303923831100316290000011521     Livro Tex Ed. 29                                  0000100000049900000058200
503923831000129/05/202026/05/2020PAGO      000100000173920000017392                                                                                                                                                                                                                                                                                                            
20392383213423298KARYNE CARDOSO DE ANDRADE                         karynecap@hotmail.com                                                 000114715884320082999398270000008299334940FF57036590R IND CLIMERIO SARMENTO                           138       APARTAMENTO 205                                   JATIUCA                       MACEIO                        AL30000124/05/20200000010059PAC            000000686100000000000000000000000000000000000      71090623         25/05/202000000100590000000000ISENTO      01
303923832100318640000008578     Livro Homem-Aranha Ed. 01                         0000100000047900000061700
303923832100318640000008580     Livro Homem-Aranha Ed. 02                         0000100000047900000061700
303923832100318640000008582     Livro Homem-Aranha Ed. 03                         0000100000047900000061700
503923832000129/05/202026/05/2020PAGO      000100000100590000010059                                                                                                                                                                                                                                                                                                            
20392383311734875MURILO BRISSI                                     mbrissi@hotmail.com                                                   000375634828810012997613540000001299761354FM12327696R FRANS DE C HOLZWARTH                            57        SALA 306                                          JARDIM PEREIRA DO AMPARO      JACAREI                       SP30000124/05/20200000010059SEDEX          000000146700000000000000000000000000000000000      71090687         25/05/202000000100590000000000ISENTO      01
303923833100320940000008930     Livro Marvel Heroes Ed. 51                        0000100000047900000058200
303923833100320940000010199     Livro Graphic Novels Marvel Ed. 112               0000100000047900000058200
303923833100320940000011446     Livro Marvel Heroes Ed. 93                        0000100000047900000058200
503923833000129/05/202026/05/2020PAGO      000100000100590000010059                                                                                                                                                                                                                                                                                                            
20392383413401690ARTUR BARCELLOS MARTINS                           artturbarcellos@gmail.com                                             000051669837000021996274380000002199165878FM23045160R OLINDA ELLIS                                    125       BL 2 APT 208                                      CAMPO GRANDE                  RIO DE JANEIRO                RJ30000124/05/20200000011742PAC            000000216200000000000000000000000000000000000      71090767         25/05/202000000117420000000000ISENTO      01
303923834100324160000010195     Livro Homem-Aranha Ed. 18                         0000100000047900000061700
303923834100324160000011452     Livro Homem Aranha Ed. 40                         0000100000047900000061700
503923834000129/05/202026/05/2020PAGO      000100000117420000011742                                                                                                                                                                                                                                                                                                            
20392383510831468MARCO ANTONIO MENEZES DIAS                        marcoamdias.1963@gmail.com                                            000737630987040021964670870000002196467087FM22790879EST VER ALCEU DE CARVALHO                         555       QUADRA I CASA 316 B                               RECREIO DOS BANDEIRANTES      RIO DE JANEIRO                RJ30000124/05/20200000040236PAC            000000360900000000000000000000000000000000000      71090918         25/05/202000000402360000000000ISENTO      01
303923835100328900000010197     Livro Graphic Novels Marvel Ed. 111               0000100000047900000058200
303923835100328900000010451     Livro Graphic Novels Marvel Ed. 118               0000100000047900000058200
303923835100328900000010347     Livro Graphic Novels Marvel Ed. 115               0000100000047900000058200
303923835100328900000010801     Livro Graphic Novels Marvel Ed. 122               0000100000047900000058200
303923835100328900000010861     Livro Graphic Novels Marvel Ed. 124               0000100000047900000058200
303923835100328900000010904     Livro Graphic Novels Marvel Ed. 125               0000100000047900000058200
303923835100328900000011171     Livro Graphic Novels Marvel Ed. 127               0000100000047900000058200
303923835100328900000011174     Livro Graphic Novels Marvel Ed. 128               0000100000047900000058200
303923835100328900000011165     Livro Graphic Novels Marvel Ed. 129               0000100000047900000058200
303923835100328900000011168     Livro Graphic Novels Marvel Ed. 130               0000100000047900000058200
303923835100328910000011428     Livro Graphic Novels Marvel Ed. 131               0000100000047900000058200
303923835100328910000011524     Livro Graphic Novels Marvel Ed. 135               0000100000047900000058200
503923835000129/05/202026/05/2020PAGO      000100000402360000040236                                                                                                                                                                                                                                                                                                            
20392383613423741LUIZ FERNANDO TOSO                                luizfernandot98@gmail.com                                             000347431728880015996365860000000000000000FM18017232R ROSARIA V FACIABEN                              470                                                         GRANJA OLGA III               SOROCABA                      SP30000124/05/20200000015837SEDEX          000000146700000000000000000000000000000000000      71090947         25/05/202000000158370000000000ISENTO      01
303923836100329310000005828     Livro Graphic Novels Marvel Ed. 40                0000100000047900000063200
303923836100329310000007044     Livro Graphic Novels Marvel Ed. 59                0000100000047900000070000
303923836100329310000011524     Livro Graphic Novels Marvel Ed. 135               0000100000047900000058200
503923836000129/05/202026/05/2020PAGO      000100000158370000015837                                                                                                                                                                                                                                                                                                            
20392383713423767RODRIGO DE ANDRADE DIAS                           rad.ect@gmail.com                                                     000341871498640011982985890000001198298589FM01509001R JOSE GETULIO                                    217       AP52                                              LIBERDADE                     SAO PAULO                     SP30000124/05/20200000143710SEDEX          000000480000000000000000000000000000000000000      71090951         25/05/202000001437100000000000ISENTO      01
303923837100329530000008578     Livro Homem-Aranha Ed. 01                         0000100000047900000061700
303923837100329530000008580     Livro Homem-Aranha Ed. 02                         0000100000047900000061700
303923837100329530000008582     Livro Homem-Aranha Ed. 03                         0000100000047900000061700
303923837100329530000008584     Livro Homem-Aranha Ed. 04                         0000100000047900000061700
303923837100329540000009600     Livro Homem-Aranha Ed. 05                         0000100000047900000061700
