104-06-2020 10:37:56
20393680810722398GILCILIANO DE OLIVEIRA                            ecrgo@ecrgo.com                                                       000138479688660016323696080000001699727477FM14091283R ARNALDO VICTALIANO                              971       141                                               JARDIM CASTELO BRANCO         RIBEIRAO PRETO                SP10000302/06/20200000022455PAC            000000222230000000000000000062023000000000000                       02/06/202000000224550000000000ISENTO      01
303936808100494650000010697     Chevrolet Collection Ed. 68                       0000600000049900000051600
503936808000302/06/202002/06/2020PAGO      000300000074850000022455                                                                                                                                                                                                                                                                                                            
20393684113314866UERITON J RODRIGUES                               uerosrodrigues@gmail.com                                              000307700168390015988137040000001598813704FM18054050R ANTONIO VILLEGA                                 527       527                                               JARDIM TROPICAL               SOROCABA                      SP10000230/05/20200000036180SEDEX          000000228130000000000000000102026000000000000                       02/06/202000000361800000000000ISENTO      01
303936841100441170000008948     Chevrolet Collection Ed. 43                       0000300000049900000051600
303936841100441170000010041     Chevrolet Collection Ed. 505                      0000100000054900000051600
303936841100441170000010227     Chevrolet Collection Ed. 507                      0000200000054900000051600
303936841100441170000010585     Chevrolet Collection Ed. 62                       0000300000049900000051600
303936841100441170000010587     Chevrolet Collection Ed. 63                       0000300000049900000051600
303936841100441170000011348     Chevrolet Collection Ed. 511                      0000200000054900000051600
503936841000202/06/202002/06/2020PAGO      000200000180900000036180                                                                                                                                                                                                                                                                                                            
20393686513277280LUIS CLAUDIO WOLFF FILHO                          loja_amuletu@hotmail.com                                              000330690690530051999961130000000000000000FM95780000RUA RAMIRO BARCELOS                               2084      SALA 01                                           CENTRO                        MONTENEGRO                    RS10000402/06/20200000073970PAC            000000495730000000000000000052027000000000000                       02/06/202000000739720000000000ISENTO      01
303936865100497120000011686     Ford F100 Ed. 36                                  0001000000056900000020000
303936865100497120000011688     Ford F100 Ed. 37                                  0000300000056900000020000
303936865100497120000011690     Ford F100 Ed. 38                                  0000300000056900000020000
303936865100497120000011692     Ford F100 Ed. 39                                  0001000000056900000020000
503936865000402/06/202002/06/2020PAGO      000400000184930000073972                                                                                                                                                                                                                                                                                                            
20393689213423700MARCELO MITSUO MISU                               marcelo.mitsuo@gmail.com                                              000357695318350011994030170000001199403017FM05533000AV ELISEU DE ALMEIDA                              3307      96B                                               INSTITUTO DE PREVIDENCIA      SAO PAULO                     SP10000402/06/20200000034580SEDEX          000000235520000000000000000032027000000000000                       02/06/202000000345800000000000ISENTO      01
303936892100497440000011084     Livro Marvel Heroes Ed. 91                        0000100000047900000058200
303936892100497440000011087     Livro Marvel Heroes Ed. 92                        0000100000047900000058200
303936892100497440000011461     Livro Homem Aranha Ed. 37                         0000100000047900000061700
303936892100497440000011455     Livro Homem Aranha Ed. 39                         0000100000047900000061700
303936892100497440000011452     Livro Homem Aranha Ed. 40                         0000100000047900000061700
303936892100497450000011440     Livro Marvel Heroes Ed. 95                        0000100000047900000058200
303936892100497450000011449     Livro Marvel Heroes Ed. 96                        0000100000047900000058200
303936892100497450000011506     Livro Marvel Heroes Ed. 97                        0000100000047900000058200
303936892100497450000011515     Livro Marvel Heroes Ed. 98                        0000100000047900000058200
303936892100497450000011509     Livro Marvel Heroes Ed. 99                        0000100000047900000058200
303936892100497450000011512     Livro Marvel Heroes Ed. 100                       0000100000047900000058200
303936892100497450000010113     Os Viloes Mais Poderosos da Marvel                0000100000054900000058200
303936892100497450000010447     Os Viloes Mais Poderosos da Marvel                0000100000054900000058200
303936892100497450000011069     Os Viloes Mais Poderosos da Marvel                0000100000054900000058200
503936892000402/06/202002/06/2020PAGO      000400000086450000034580                                                                                                                                                                                                                                                                                                            
20393700613434123JOHNNY ANDER PEREIRA ABDALLAH                     johnny.ander@gmail.com                                                000616258331720065981168740000006598116874FM78055200R MOGI DAS CRUZES                                 05        QUADRA 14                                         CPA I                         CUIABA                        MT10000402/06/20200000031750PAC            000000787930000000000000000062020000000000000                       02/06/202000000317520000000000ISENTO      01
303937006100500110000005748     Livro Graphic Novels Marvel Ed. 38                0000100000047900000063200
303937006100500110000006036     Livro Graphic Novels Marvel Ed. 43                0000100000047900000070000
303937006100500110000006648     Livro Graphic Novels Marvel Ed. 53                0000100000047900000065000
303937006100500110000006900     Livro Graphic Novels Marvel Ed. 58                0000100000047900000070000
303937006100500110000009402     Livro Graphic Novels Marvel Ed. 96                0000100000047900000058200
303937006100500110000009414     Livro Graphic Novels Marvel Ed. 98                0000100000047900000058200
303937006100500110000009975     Livro Graphic Novels Marvel Ed. 108               0000100000047900000058200
303937006100500120000010613     Marvel Edicao Especial Limitada Thor Ed. 01       0000100000099900000123400
303937006100500120000010623     Marvel Edicao Especial Limitada Thor Ed. 02       0000100000099900000123400
303937006100500120000010729     Marvel Edicao Especial Limitada Thor Ed. 03       0000100000099900000123400
503937006000402/06/202002/06/2020PAGO      000400000079380000031752                                                                                                                                                                                                                                                                                                            
20393704310877638ISRAEL DE MORAES FERREIRA                         israelkd@hotmail.com                                                  000017238821000021374641130000002198742798FM26553140R JOSE A CARNEIRO                                 30                                                          CENTRO                        MESQUITA                      RJ10000102/06/20200000007489PAC            000000219930000000000000000012027000000000000                       02/06/202000000074890000000000ISENTO      01
303937043100501150000011527     One Piece Ed. 46                                  0000100000052900000030000
503937043000102/06/202002/06/2020PAGO      000100000074890000007489                                                                                                                                                                                                                                                                                                            
20393706513434173ANDRE VARGAS                                      avargaspessoal@gmail.com                                              000433722280490000000000000000001199138040FM01153000R VITORINO CARMILO                                566       22A                                               BARRA FUNDA                   SAO PAULO                     SP10000102/06/20200000011047SEDEX          000000146720000000000000000092026000000000000                       02/06/202000000110470000000000ISENTO      01
303937065100501460000006232     Livro Marvel Heroes Ed. 07                        0000100000047900000066800
303937065100501460000008930     Livro Marvel Heroes Ed. 51                        0000100000047900000058200
503937065000102/06/202002/06/2020PAGO      000100000110470000011047                                                                                                                                                                                                                                                                                                            
20393714013434722CASSIO MEDINA DE SOUZA                            cassiomedina123@gmail.com                                             000134540106080033984058720000003398405872FM35338000RUA DR ALMERIO DE REZENDE                         62        CENTRO                                            CENTRO                        UBAPORANGA                    MG10000303/06/20200000022477PAC            000000408630000000000000000112026000000000000                       03/06/202000000224760000000000ISENTO      01
303937140100502910000010613     Marvel Edicao Especial Limitada Thor Ed. 01       0000100000099900000123400
303937140100502910000010623     Marvel Edicao Especial Limitada Thor Ed. 02       0000100000099900000123400
303937140100502910000010729     Marvel Edicao Especial Limitada Thor Ed. 03       0000100000099900000123400
503937140000303/06/202003/06/2020PAGO      000300000074920000022476                                                                                                                                                                                                                                                                                                            
20393719112855813VITO NITTI FILHO                                  vitonitti@hotmail.com                                                 000042706408200011479674090000001197133369FM08780000AV VER NARCISO Y GUIMARAES                        1000      LOJA 01 HIPER MERCADO DAVO                        CENTRO CIVICO                 MOGI DAS CRUZES               SP10000403/06/20200000030190SEDEX          000000215820000000000000000032025000000000000                       03/06/202000000301920000000000ISENTO      01
303937191100503510000008948     Chevrolet Collection Ed. 43                       0000200000049900000051600
303937191100503510000009004     Chevrolet Collection Ed. 46                       0000100000049900000051600
303937191100503510000010585     Chevrolet Collection Ed. 62                       0000300000049900000051600
303937191100503510000010587     Chevrolet Collection Ed. 63                       0000100000049900000051600
303937191100503510000010697     Chevrolet Collection Ed. 68                       0000400000049900000051600
303937191100503510000011348     Chevrolet Collection Ed. 511                      0000100000054900000051600
503937191000403/06/202003/06/2020PAGO      000400000075480000030192                                                                                                                                                                                                                                                                                                            
20393719513383930ARIEL GARBAYO                                     neffe64@gmail.com                                                     000339757951150061396372810000006199145728FM70747020Q SQN                                             308       B APTO 603                                        ASA NORTE                     BRASILIA                      DF10000103/06/20200000022455PAC            000000276030000000000000000122027000000000000                       03/06/202000000224550000000000ISENTO      01
303937195100503560000011078     LIVRO TEX ED. 23                                  0000100000049900000058200
303937195100503560000011081     LIVRO TEX ED. 24                                  0000100000049900000058200
303937195100503560000011473     LIVRO TEX ED. 25                                  0000100000049900000058200
303937195100503560000011470     Livro Tex Ed. 26                                  0000100000049900000058200
303937195100503560000011467     Livro Tex Ed. 27                                  0000100000049900000058200
303937195100503560000011549     LIVRO TEX Ed. 31                                  0000100000049900000058200
503937195000103/06/202003/06/2020PAGO      000100000224550000022455                                                                                                                                                                                                                                                                                                            
20393721213435038RUBENS ANDRE SILVA MONTEIRO                       rubensandre@gmal.com                                                  000705493893340000000000000000008598106226FM60763460AV TEN ANDERSON                                   115       APTO. 104                                         CONJUNTO ESPERANCA            FORTALEZA                     CE10000403/06/20200000031135PAC            000000516030000000000000000062021000000000000                       03/06/202000000311360000000000ISENTO      01
303937212100503620000007328     Livro Graphic Novels Marvel Ed. 63                0000100000047900000064700
303937212100503620000007914     Livro Graphic Novels Marvel Ed. 71                0000100000047900000064700
303937212100503620000008458     Livro Graphic Novels Marvel Ed. 81                0000100000047900000064700
303937212100503630000008744     Livro Graphic Novels Marvel Ed. 86                0000100000047900000064700
303937212100503630000009402     Livro Graphic Novels Marvel Ed. 96                0000100000047900000058200
303937212100503630000009414     Livro Graphic Novels Marvel Ed. 98                0000100000047900000058200
303937212100503630000009602     Livro Homem-Aranha Ed. 06                         0000100000047900000061700
303937212100503630000010197     Livro Graphic Novels Marvel Ed. 111               0000100000047900000058200
303937212100503630000010193     Livro Homem-Aranha Ed. 17                         0000100000047900000061700
303937212100503630000010315     Livro Graphic Novels Marvel Ed. 113               0000100000047900000058200
303937212100503630000010449     Livro Graphic Novels Marvel Ed. 117               0000100000047900000058200
303937212100503630000010349     Livro Graphic Novels Marvel Ed. 116               0000100000047900000058200
303937212100503630000011512     Livro Marvel Heroes Ed. 100                       0000100000047900000058200
503937212000403/06/202003/06/2020PAGO      000400000077840000031136                                                                                                                                                                                                                                                                                                            
20393728011692125LUIZ ANTONIO ALBAMONTE GOMES                      luizalbamonte@hotmail.com                                             000717988117150021318181000000002199128728FM20031040R EVARISTO DA VEIGA                               30        BANCA DE JORNAIS                                  CENTRO                        RIO DE JANEIRO                RJ10000402/06/20200000031715PAC            000000258420000000000000000042024000000000000                       03/06/202000000317160000000000ISENTO      01
303937280100502600000007726     Guitar Collection Ed. 53                          0000100000044900000018500
303937280100502600000008098     Guitar Collection Ed. 61                          0000100000044900000018500
303937280100502600000004639     Guitar Collection Ed. 05                          0000100000044900000016200
303937280100502610000008948     Chevrolet Collection Ed. 43                       0000100000049900000051600
303937280100502610000011196     Os mitos da Ferrari Ed. 05                        0000100000149900000050000
303937280100502610000011199     Os mitos da Ferrari Ed. 06                        0000100000149900000050000
303937280100502610000011202     Os mitos da Ferrari Ed. 07                        0000100000149900000050000
503937280000402/06/202003/06/2020PAGO      000400000079290000031716                                                                                                                                                                                                                                                                                                            
20393731410990081FERNANDO LUIZ FERREIRA SILVEIRA                   fernando.lfs@hotmail.com                                              000114130516000031342635080000003199357623FM31155480R PRF ANTONIO MARCIO                              145       APT.101                                           PALMARES                      BELO HORIZONTE                MG10000103/06/20200000011742PAC            000000216230000000000000000022027000000000000                       03/06/202000000117420000000000ISENTO      01
303937314100504750000009602     Livro Homem-Aranha Ed. 06                         0000100000047900000061700
303937314100504750000010197     Livro Graphic Novels Marvel Ed. 111               0000100000047900000058200
503937314000103/06/202003/06/2020PAGO      000100000117420000011742                                                                                                                                                                                                                                                                                                            
20393775712204673MARCIANO DOS SANTOS                               onaicram45@gmail.com                                                  000149910878800019360883040000001999945171FM13720000AGNALDO RIBEIRO DA CUNHA                          75        CASA                                              BUENOS AIRES                  SAO JOSE DO RIO PARDO         SP30000128/05/20200000030585PAC            000000222200000000000000000000000000000000000      71093870         02/06/202000000305850000000000ISENTO      01
303937757100403200000007298     Guitar Collection Ed. 47                          0000100000044900000016500
303937757100403210000007234     Guitar Collection Ed. 49                          0000100000044900000018500
303937757100403210000007998     Guitar Collection Ed. 57                          0000100000044900000018500
303937757100403210000008320     Guitar Collection Ed. 63                          0000100000044900000018500
303937757100403210000004972     Guitar Collection Ed. 08                          0000100000044900000015900
303937757100403210000009010     Guitar Collection Ed. 77                          0000100000044900000044600
303937757100403210000009014     Guitar Collection Ed. 79                          0000100000044900000044600
303937757100403210000008614     One Piece Ed. 01                                  0000100000044900000030000
303937757100403210000010827     Turma da Monica - Colecao Oficial de Miniaturas Ed0000100000049900000037000
303937757100403210000010825     Turma da Monica - Colecao Oficial de Miniaturas Ed0000100000049900000037000
303937757100403210000009100     Ford F100 Ed. 1                                   0000100000049900000060000
303937757100403220000009268     Ford F100 Ed. 4                                   0000100000049900000020000
303937757100403220000011293     Ford F100 Ed. 19                                  0000100000052900000020000
503937757000102/06/202003/06/2020PAGO      000100000305850000030585                                                                                                                                                                                                                                                                                                            
20393775813424645JORGE CARUSO                                      jorgecaruso@uol.com.br                                                000064830458240011388449320000001198355000FM05688030R CAMILLO NADER                                   78        APTO 131                                          VILA MORUMBI                  SAO PAULO                     SP30000101/06/20200000031955SEDEX          000000228100000000000000000000000000000000000      71096461         02/06/202000000319550000000000ISENTO      01
303937758100470970000006490     Livro Marvel Heroes Ed. 14                        0000100000047900000065900
303937758100470980000006682     Livro Marvel Heroes Ed. 16                        0000100000047900000064700
303937758100470980000006732     Livro Marvel Heroes Ed. 17                        0000100000047900000066800
303937758100470980000006734     Livro Marvel Heroes Ed. 18                        0000100000047900000065800
303937758100470980000006984     Livro Marvel Heroes Ed. 20                        0000100000047900000069600
303937758100470980000010269     Marvel Edicao Especial Limitada Vingadores Ed. 02 0000100000099900000123400
303937758100470980000010323     Marvel Edicao Especial Limitada Vingadores Ed. 03 0000100000099900000123400
303937758100470980000010873     Marvel Edicao Especial Limitada Capitao America - 0000100000099900000097600
303937758100470980000010891     Marvel Edicao Especial Limitada Capitao America - 0000100000099900000076800
503937758000106/06/202003/06/2020PAGO      000100000319550000031955                                                                                                                                                                                                                                                                                                            
20393775910905480PAULO CESAR CARONE DA CUNHA                       paulo.carone@bol.com.br                                               000265869238240019320156440000001998200725FM13034520R EUGENIO F CAMARGO                               511       APART. 23                                         VILA ITALIA                   CAMPINAS                      SP30000101/06/20200000004781SEDEX          000000109100000000000000000000000000000000000      71096850         02/06/202000000047810000000000ISENTO      01
303937759100482300000009724     Descobrindo A Filosofia - Ed. 19                  0000100000036900000035000
503937759000106/06/202003/06/2020PAGO      000100000047810000004781                                                                                                                                                                                                                                                                                                            
20393776013433056HIAGO HENRIQUE JUSTO DE PAULA                     hiagojusto.paula@gmail.com                                            000378681338800011972259410000001197225941FM03077100R GUABIJU                                         56                                                          TATUAPE                       SAO PAULO                     SP30000101/06/20200000011047SEDEX          000000146700000000000000000000000000000000000      71096918         02/06/202000000110470000000000ISENTO      01
303937760100484620000006036     Livro Graphic Novels Marvel Ed. 43                0000100000047900000070000
303937760100484620000006314     Livro Graphic Novels Marvel Ed. 48                0000100000047900000068500
503937760000106/06/202003/06/2020PAGO      000100000110470000011047                                                                                                                                                                                                                                                                                                            
20393776110988081FRANCISCO LAJUS                                   franclajus@gmail.com                                                  000246115909250000000000000000004898401883FM88036410R PRF BENTO A VIEIRA                              75        CASA                                              TRINDADE                      FLORIANOPOLIS                 SC30000102/06/20200000025327PAC            000000318700000000000000000000000000000000000      71097391         02/06/202000000253270000000000ISENTO      01
303937761100495440000010363     Descobrindo A Filosofia - Ed. 52                  0000100000036900000035000
303937761100495440000010359     Descobrindo A Filosofia - Ed. 50                  0000100000036900000035000
303937761100495440000010629     Descobrindo A Filosofia - Ed. 53                  0000100000036900000035000
303937761100495440000010631     Descobrindo A Filosofia - Ed. 54                  0000100000036900000035000
303937761100495440000010633     Descobrindo A Filosofia - Ed. 55                  0000100000036900000035000
303937761100495440000010635     Descobrindo A Filosofia - Ed. 56                  0000100000036900000035000
503937761000107/06/202003/06/2020PAGO      000100000253270000025327                                                                                                                                                                                                                                                                                                            
20393776210931283ROBSON MOTA GONCALVES                             skamudongo.games@gmail.com                                            000939824021150062840822440000006284082244FM74593550AV ZORCA VUKOJICIC                                0         QD 122 LT 12                                      JARDIM BALNEARIO MEIA PONTE   GOIANIA                       GO30000102/06/20200000031135PAC            000000393100000000000000000000000000000000000      71097464         02/06/202000000311350000000000ISENTO      01
303937762100497520000010199     Livro Graphic Novels Marvel Ed. 112               0000100000047900000058200
303937762100497520000010451     Livro Graphic Novels Marvel Ed. 118               0000100000047900000058200
303937762100497520000010347     Livro Graphic Novels Marvel Ed. 115               0000100000047900000058200
303937762100497520000010799     Livro Graphic Novels Marvel Ed. 121               0000100000047900000058200
303937762100497520000010801     Livro Graphic Novels Marvel Ed. 122               0000100000047900000058200
303937762100497520000010859     Livro Graphic Novels Marvel Ed. 123               0000100000047900000058200
303937762100497520000010861     Livro Graphic Novels Marvel Ed. 124               0000100000047900000058200
303937762100497520000010904     Livro Graphic Novels Marvel Ed. 125               0000100000047900000058200
303937762100497530000010910     Livro Graphic Novels Marvel Ed. 126               0000100000047900000058200
303937762100497530000011171     Livro Graphic Novels Marvel Ed. 127               0000100000047900000058200
303937762100497530000011174     Livro Graphic Novels Marvel Ed. 128               0000100000047900000058200
303937762100497530000011165     Livro Graphic Novels Marvel Ed. 129               0000100000047900000058200
303937762100497530000011168     Livro Graphic Novels Marvel Ed. 130               0000100000047900000058200
503937762000107/06/202003/06/2020PAGO      000100000311350000031135                                                                                                                                                                                                                                                                                                            
20393776313434067DANIELE CURNIS                                    danielcurnis@gmail.com                                                000210220112000000000000000000009299115957FM69057001AV MARIO YPIRANGA                                 700       -                                                 ADRIANOPOLIS                  MANAUS                        AM30000102/06/20200000023836PAC            000000387600000000000000000000000000000000000      71097478         02/06/202000000238360000000000ISENTO      01
303937763100497690000010823     LIVRO TEX ED. 16                                  0000100000049900000058200
303937763100497690000010879     LIVRO TEX ED. 17                                  0000100000049900000058200
303937763100497690000010882     LIVRO TEX ED. 18                                  0000100000049900000058200
303937763100497690000010980     LIVRO TEX ED. 19                                  0000100000049900000058200
503937763000107/06/202003/06/2020PAGO      000100000238360000023836                                                                                                                                                                                                                                                                                                            
20393783113410067WELINGTON PAGNOZZI                                wcpagnozzi@hotmail.com                                                000098521909200041326271950000004199706578FM82520130R JOAQUIM A GUIMARAES                             367       CASA                                              JARDIM SOCIAL                 CURITIBA                      PR10000103/06/20200000041192PAC            000000216230000000000000000122025000000000000                       03/06/202000000411920000000000ISENTO      01
303937831100506770000011670     Ford F100 Ed. 33                                  0000100000052900000020000
303937831100506770000011672     Ford F100 Ed. 34                                  0000100000052900000020000
303937831100506770000011680     Ford F100 Ed. 35                                  0000100000056900000020000
303937831100506770000011688     Ford F100 Ed. 37                                  0000100000056900000020000
303937831100506770000011690     Ford F100 Ed. 38                                  0000100000056900000020000
303937831100506770000011692     Ford F100 Ed. 39                                  0000100000056900000020000
303937831100506770000011694     Ford F100 Ed. 40                                  0000100000056900000020000
503937831000103/06/202003/06/2020PAGO      000100000411920000041192                                                                                                                                                                                                                                                                                                            
20393783713370139MARCIO DIAS                                       marcio.cobranca@bol.com.br                                            000133883188750013356132220000001399702920FM11380140R COSTA REGO                                      298       CASA                                              VILA SAO JORGE                SAO VICENTE                   SP10000103/06/20200000005958SEDEX          000000116820000000000000000032024000000000000                       03/06/202000000059580000000000ISENTO      01
303937837100506810000008496     Livro Marvel Heroes Ed. 44                        0000100000047900000058300
503937837000103/06/202003/06/2020PAGO      000100000059580000005958                                                                                                                                                                                                                                                                                                            
20393788110890686ALEX SILVA DE BARROS                              alexsilvadebarros@yahoo.com.br                                        000071690567120021265200910000002198313321FM25010240R ALM VANDENKOLK                                  99        BL 03 AP 402                                      VILA PAULA                    DUQUE DE CAXIAS               RJ10000403/06/20200000031335PAC            000000682520000000000000000052024000000000000                       03/06/202000000313360000000000ISENTO      01
303937881100507660000008580     Livro Homem-Aranha Ed. 02                         0000100000047900000061700
303937881100507660000008582     Livro Homem-Aranha Ed. 03                         0000100000047900000061700
303937881100507660000009600     Livro Homem-Aranha Ed. 05                         0000100000047900000061700
303937881100507660000009602     Livro Homem-Aranha Ed. 06                         0000100000047900000061700
303937881100507660000009678     Livro Homem-Aranha Ed. 07                         0000100000047900000061700
303937881100507660000009680     Livro Homem-Aranha Ed. 08                         0000100000047900000061700
303937881100507670000009773     Livro Homem-Aranha Ed. 09                         0000100000047900000061700
303937881100507670000010267     Livro Homem-Aranha Ed. 20                         0000100000047900000061700
303937881100507670000010265     Livro Homem-Aranha Ed. 19                         0000100000047900000061700
303937881100507670000010451     Livro Graphic Novels Marvel Ed. 118               0000100000047900000058200
303937881100507670000010385     LIVRO TEX ED. 10                                  0000100000049900000058200
303937881100507670000010859     Livro Graphic Novels Marvel Ed. 123               0000100000047900000058200
303937881100507670000011607     LIVRO TEX ED. 39                                  0000100000049900000058200
503937881000403/06/202003/06/2020PAGO      000400000078340000031336                                                                                                                                                                                                                                                                                                            
20393794410721152MARCELO DA SILVA BASTOS                           bierbastos@gmail.com                                                  000873196837680024330235110000002498834343FM25670201R PEDRAS BRANCAS                                  577       CASA 16                                           MOSELA                        PETROPOLIS                    RJ10000403/06/20200000032440PAC            000000529730000000000000000102026000000000000                       03/06/202000000324400000000000ISENTO      01
303937944100508320000008948     Chevrolet Collection Ed. 43                       0000100000049900000051600
303937944100508320000010585     Chevrolet Collection Ed. 62                       0000100000049900000051600
303937944100508320000011348     Chevrolet Collection Ed. 511                      0001000000054900000051600
503937944000403/06/202003/06/2020PAGO      000400000081100000032440                                                                                                                                                                                                                                                                                                            
20393799410884610RODRIGO DOS SANTOS SILVEIRA                       rodrigosilveira1510@gmail.com                                         000980305400780051371158470000005199693335FM96824140R DAS BROMELIAS                                   102       CASA                                              COUNTRY                       SANTA CRUZ DO SUL             RS10000203/06/20200000016286PAC            000000318710000000000000000102024000000000000                       03/06/202000000162860000000000ISENTO      01
303937994100509530000010859     Livro Graphic Novels Marvel Ed. 123               0000100000047900000058200
303937994100509530000010861     Livro Graphic Novels Marvel Ed. 124               0000100000047900000058200
303937994100509530000010904     Livro Graphic Novels Marvel Ed. 125               0000100000047900000058200
303937994100509540000010910     Livro Graphic Novels Marvel Ed. 126               0000100000047900000058200
503937994000203/06/202003/06/2020PAGO      000200000081430000016286                                                                                                                                                                                                                                                                                                            
20393800013435260PEDRO NOGUEIRA DE GOIS JUNIOR                     p.gois.junior@bol.com.br                                              000036714494890083988488370000008398848837FM58087110AV ANA NERY                                       364                                                         OITIZEIRO                     JOAO PESSOA                   PB10000303/06/20200000022477PAC            000000848120000000000000000082020000000000000                       03/06/202000000224760000000000ISENTO      01
303938000100509660000010613     Marvel Edicao Especial Limitada Thor Ed. 01       0000100000099900000123400
303938000100509660000010623     Marvel Edicao Especial Limitada Thor Ed. 02       0000100000099900000123400
303938000100509660000010729     Marvel Edicao Especial Limitada Thor Ed. 03       0000100000099900000123400
503938000000303/06/202003/06/2020PAGO      000300000074920000022476                                                                                                                                                                                                                                                                                                            
20393805210847124LUCIANO ALVES SEADE                               luciano.seade@gmail.com                                               000907081210040051302257980000005198182939FM90820190R JATAI                                           225       307                                               CRISTAL                       PORTO ALEGRE                  RS10000103/06/20200000006758PAC            000000196830000000000000000042028000000000000                       03/06/202000000067580000000000ISENTO      01
303938052100510660000011452     Livro Homem Aranha Ed. 40                         0000100000047900000061700
503938052000103/06/202003/06/2020PAGO      000100000067580000006758                                                                                                                                                                                                                                                                                                            
20393808213435302MARCELO SERVIDONI                                 servidoni64@gmail.com                                                 000075434998510019326213790000001999209700FM13098341R TARUMA                                          605                                                         LOTEAMENTO ALPHAVILLE         CAMPINAS                      SP10000103/06/20200000052395SEDEX          000000228120000000000000000042025000000000000                       03/06/202000000523950000000000ISENTO      01
303938082100510970000009236     Turma da Monica - Colecao Oficial de Miniaturas - 0000100000049900000037000
303938082100510970000008890     Turma da Monica - Colecao Oficial de Miniaturas - 0000100000049900000037000
303938082100510970000008892     Turma da Monica - Colecao Oficial de Miniaturas - 0000100000049900000037000
303938082100510970000009280     Turma da Monica - Colecao Oficial de Miniaturas - 0000100000049900000037000
303938082100510970000009282     Turma da Monica - Colecao Oficial de Miniaturas - 0000100000049900000037000
303938082100510970000009692     Turma da Monica - Colecao Oficial de Miniaturas - 0000100000049900000037000
303938082100510970000009751     Turma da Monica - Colecao Oficial de Miniaturas - 0000100000049900000037000
303938082100510970000009753     Turma da Monica - Colecao Oficial de Miniaturas - 0000100000049900000037000
303938082100510970000009755     Turma da Monica - Colecao Oficial de Miniaturas - 0000100000049900000037000
303938082100510980000009989     Turma da Monica - Colecao Oficial de Miniaturas - 0000100000049900000037000
303938082100510980000009991     Turma da Monica - Colecao Oficial de Miniaturas Ed0000100000049900000037000
303938082100510980000009993     Turma da Monica - Colecao Oficial de Miniaturas Ed0000100000049900000037000
303938082100510980000009995     Turma da Monica - Colecao Oficial de Miniaturas Ed0000100000049900000037000
303938082100510980000009997     Turma da Monica - Colecao Oficial de Miniaturas Ed0000100000049900000037000
303938082100510980000010329     Turma da Monica - Colecao Oficial de Miniaturas Ed0000100000049900000037000
303938082100510980000010331     Turma da Monica - Colecao Oficial de Miniaturas Ed0000100000049900000037000
303938082100510980000010337     Turma da Monica Ed. 45                            0000100000049900000037000
303938082100510980000010705     Turma da Monica - Colecao Oficial de Miniaturas Ed0000100000049900000037000
303938082100510980000010647     Turma da Monica - Colecao Oficial de Miniaturas Ed0000100000049900000037000
303938082100510990000010645     Turma da Monica - Colecao Oficial de Miniaturas Ed0000100000049900000037000
303938082100510990000010707     Turma da Monica - Colecao Oficial de Miniaturas Ed0000100000049900000037000
503938082000103/06/202003/06/2020PAGO      000100000523950000052395                                                                                                                                                                                                                                                                                                            
9000028
