123-07-2020 06:08:09
20400678413398888ARINELHO DE ARAUJO XAVIER                         arinelhoxavieraj@gmail.com                                            000427753534870083866951580000000000000000FM58407363R MANOEL G GUIMARAES                              19        5                                                 JOSE PINHEIRO                 CAMPINA GRANDE                PB10000111/06/20200000021831PAC            000000686130000000000000000112026000000000000                       11/06/202000000218310000000000ISENTO      02
304006784100625880000010319     LIVRO TEX ED. 07                                  0000100000049900000058200
304006784100625890000010741     LIVRO TEX ED. 13                                  0000100000049900000058200
304006784100625890000010992     LIVRO TEX ED. 22                                  0000100000049900000058200
504006784000111/06/202022/07/2020PAGO      000100000218310000021831                                                                                                                                                                                                                                                                                                            
20400707310905480PAULO CESAR CARONE DA CUNHA                       paulo.carone@bol.com.br                                               000265869238240019320156440000001998200725FM13034520R EUGENIO F CAMARGO                               511       APART. 23                                         VILA ITALIA                   CAMPINAS                      SP30000121/06/20200000004781SEDEX          000000109100000000000000000000000000000000000      71107062         22/06/202000000047810000000000ISENTO      02
304007073100776630000009983     Descobrindo A Filosofia - Ed. 32                  0000100000036900000035000
504007073000126/06/202022/07/2020PAGO      000100000047810000004781                                                                                                                                                                                                                                                                                                            
20400707613444853DENIS DA SILVA PEREIRA                            denis.silva_pereira@outlook.com                                       000419107928020011268078160000001199434452FM06449220R EUCALIPTO                                       244       CASA 1                                            PARQUE VIANA                  BARUERI                       SP30000113/06/20200000072870SEDEX          000000480000000000000000000000000000000000000      71102848         15/06/202000000728700000000000ISENTO      02
304007076100657570000008578     Livro Homem-Aranha Ed. 01                         0000100000047900000061700
304007076100657570000008580     Livro Homem-Aranha Ed. 02                         0000100000047900000061700
304007076100657570000008582     Livro Homem-Aranha Ed. 03                         0000100000047900000061700
304007076100657570000008584     Livro Homem-Aranha Ed. 04                         0000100000047900000061700
304007076100657570000009600     Livro Homem-Aranha Ed. 05                         0000100000047900000061700
304007076100657570000009602     Livro Homem-Aranha Ed. 06                         0000100000047900000061700
304007076100657570000009678     Livro Homem-Aranha Ed. 07                         0000100000047900000061700
304007076100657580000009680     Livro Homem-Aranha Ed. 08                         0000100000047900000061700
304007076100657580000009773     Livro Homem-Aranha Ed. 09                         0000100000047900000061700
304007076100657580000009775     Livro Homem-Aranha Ed. 10                         0000100000047900000061700
304007076100657580000009897     Livro Homem-Aranha Ed. 11                         0000100000047900000061700
304007076100657580000009899     Livro Homem-Aranha Ed. 12                         0000100000047900000061700
304007076100657580000010001     Livro Homem-Aranha Ed. 13                         0000100000047900000061700
304007076100657580000010193     Livro Homem-Aranha Ed. 17                         0000100000047900000061700
304007076100657580000010265     Livro Homem-Aranha Ed. 19                         0000100000047900000061700
304007076100657580000010327     Livro Homem-Aranha Ed. 22                         0000100000047900000061700
304007076100657580000010325     Livro Homem-Aranha Ed. 21                         0000100000047900000061700
304007076100657590000010615     Livro Homem-Aranha Ed. 25                         0000100000047900000061700
304007076100657590000010613     Marvel Edicao Especial Limitada Thor Ed. 01       0000100000099900000123400
304007076100657590000010623     Marvel Edicao Especial Limitada Thor Ed. 02       0000100000099900000123400
304007076100657590000010729     Marvel Edicao Especial Limitada Thor Ed. 03       0000100000099900000123400
304007076100657590000010745     Livro Homem-Aranha Ed. 27                         0000100000047900000061700
304007076100657590000011093     Livro Homem Aranha Ed. 36                         0000100000047900000061700
304007076100657590000011458     Livro Homem Aranha Ed. 38                         0000100000047900000061700
304007076100657590000011455     Livro Homem Aranha Ed. 39                         0000100000047900000061700
304007076100657590000011452     Livro Homem Aranha Ed. 40                         0000100000047900000061700
504007076000118/06/202022/07/2020PAGO      000100000728700000072870                                                                                                                                                                                                                                                                                                            
20400708311001905FABIANO MARTINS DOS ANJOS                         fabiano.quimica@gmail.com                                             000816157101590061349101330000006199617382FM72145805QNM 38 CONJUNTO E                                 S/N       CS 02 SETOR M                                     TAGUATINGA NORTE              BRASILIA                      DF30000123/05/20200000013412PAC            000000258400000000000000000000000000000000000      71090436         25/05/202000000134120000000000ISENTO      02
304007083100313130000009678     Livro Homem-Aranha Ed. 07                         0000100000047900000061700
304007083100313130000009973     Livro Graphic Novels Marvel Ed. 107               0000100000047900000058200
304007083100313130000010001     Livro Homem-Aranha Ed. 13                         0000100000047900000061700
304007083100313130000011512     Livro Marvel Heroes Ed. 100                       0000100000047900000058200
504007083000128/05/202022/07/2020PAGO      000100000134120000013412                                                                                                                                                                                                                                                                                                            
20400710712580588MARCEL VICTOR GUARNIERI BORGATTO                  ccl842008@hotmail.com                                                 000227330898110011379610850000001195480338FM05004000R DR CANDIDO ESPINHEIRA                           755       AP 13                                             PERDIZES                      SAO PAULO                     SP10000112/06/20200000023980SEDEX          000000203030000000000000000102026000000000000                       12/06/202000000239800000000000ISENTO      02
304007107100644250000011084     Livro Marvel Heroes Ed. 91                        0000100000047900000058200
304007107100644260000011087     Livro Marvel Heroes Ed. 92                        0000100000047900000058200
304007107100644260000011446     Livro Marvel Heroes Ed. 93                        0000100000047900000058200
304007107100644260000011443     Livro Marvel Heroes Ed. 94                        0000100000047900000058200
304007107100644260000011440     Livro Marvel Heroes Ed. 95                        0000100000047900000058200
304007107100644260000011449     Livro Marvel Heroes Ed. 96                        0000100000047900000058200
304007107100644260000011506     Livro Marvel Heroes Ed. 97                        0000100000047900000058200
304007107100644260000011515     Livro Marvel Heroes Ed. 98                        0000100000047900000058200
304007107100644260000011509     Livro Marvel Heroes Ed. 99                        0000100000047900000058200
304007107100644260000011512     Livro Marvel Heroes Ed. 100                       0000100000047900000058200
504007107000112/06/202022/07/2020PAGO      000100000239800000023980                                                                                                                                                                                                                                                                                                            
9000005
