113-07-2020 06:08:15
20398856810548289MATEUS FOLONI MARAFIGA DUTRA                      mateusmarafiga@gmail.com                                              000433628498900014366261920000001499639179FM17250000AV 15 DE NOVEMBRO                                 1269      A                                                 CENTRO                        BARIRI                        SP30000113/04/20200000019960PAC            000000000000000000000000000000000000000000000      71067428         13/04/202000000199600000000000ISENTO      02
303988568997105660000008188     Turma da Monica - Colecao Oficial de Miniaturas - 0000100000049900000037000
303988568997105670000008524     Turma da Monica - Colecao Oficial de Miniaturas - 0000100000049900000037000
303988568997105680000008694     Turma da Monica - Colecao Oficial de Miniaturas - 0000100000049900000037000
303988568997105690000009989     Turma da Monica - Colecao Oficial de Miniaturas - 0000100000049900000037000
503988568000118/04/202011/07/2020PAGO      000100000199600000019960                                                                                                                                                                                                                                                                                                            
20398857010857262IGOR PIMENTA DE SOUZA                             igorpimentas@gmail.com                                                000040331889080041306848520000004199813284FM81630500R IMA FLAVIA BORLET                               1984      BLOCO 2 AP.202                                    XAXIM                         CURITIBA                      PR30000109/06/20200000091010PAC            000001165500000000000000000000000000000000000      71101007         15/06/202000000910100000000000ISENTO      02
303988570100600810000007260     Livro Graphic Novels Marvel Ed. 61                0000100000047900000064700
303988570100600810000007262     Livro Graphic Novels Marvel Ed. 62                0000100000047900000064700
303988570100600810000007328     Livro Graphic Novels Marvel Ed. 63                0000100000047900000064700
303988570100600810000007330     Livro Graphic Novels Marvel Ed. 64                0000100000047900000064700
303988570100600810000007398     Livro Graphic Novels Marvel Ed. 65                0000100000047900000064700
303988570100600810000007400     Livro Graphic Novels Marvel Ed. 66                0000100000047900000064700
303988570100600820000007652     Livro Graphic Novels Marvel Ed. 67                0000100000047900000064700
303988570100600820000007654     Livro Graphic Novels Marvel Ed. 68                0000100000047900000064700
303988570100600820000007778     Livro Graphic Novels Marvel Ed. 69                0000100000047900000064700
303988570100600820000007914     Livro Graphic Novels Marvel Ed. 71                0000100000047900000064700
303988570100600820000007916     Livro Graphic Novels Marvel Ed. 72                0000100000047900000064700
303988570100600820000008458     Livro Graphic Novels Marvel Ed. 81                0000100000047900000064700
303988570100600820000008744     Livro Graphic Novels Marvel Ed. 86                0000100000047900000064700
303988570100600820000008780     Livro Graphic Novels Marvel Ed. 88                0000100000047900000064700
303988570100600820000008980     Livro Graphic Novels Marvel Ed. 91                0000100000047900000064700
303988570100600820000008982     Livro Graphic Novels Marvel Ed. 92                0000100000047900000064700
303988570100600830000009226     Livro Graphic Novels Marvel Ed. 93                0000100000047900000064700
303988570100600830000009400     Livro Graphic Novels Marvel Ed. 95                0000100000047900000064700
303988570100600830000009402     Livro Graphic Novels Marvel Ed. 96                0000100000047900000058200
303988570100600830000009414     Livro Graphic Novels Marvel Ed. 98                0000100000047900000058200
303988570100600830000009634     Livro Graphic Novels Marvel Ed. 100               0000100000047900000058200
303988570100600830000009716     Livro Graphic Novels Marvel Ed. 101               0000100000047900000058200
303988570100600830000009718     Livro Graphic Novels Marvel Ed. 102               0000100000047900000058200
303988570100600830000009863     Livro Graphic Novels Marvel Ed. 103               0000100000047900000058200
303988570100600830000009927     Livro Graphic Novels Marvel Ed. 105               0000100000047900000058200
303988570100600830000009929     Livro Graphic Novels Marvel Ed. 106               0000100000047900000058200
303988570100600840000009973     Livro Graphic Novels Marvel Ed. 107               0000100000047900000058200
303988570100600840000009975     Livro Graphic Novels Marvel Ed. 108               0000100000047900000058200
303988570100600840000010109     Livro Graphic Novels Marvel Ed. 109               0000100000047900000058200
303988570100600840000010197     Livro Graphic Novels Marvel Ed. 111               0000100000047900000058200
303988570100600840000010199     Livro Graphic Novels Marvel Ed. 112               0000100000047900000058200
303988570100600840000010315     Livro Graphic Novels Marvel Ed. 113               0000100000047900000058200
303988570100600840000010317     Livro Graphic Novels Marvel Ed. 114               0000100000047900000058200
303988570100600840000010451     Livro Graphic Novels Marvel Ed. 118               0000100000047900000058200
303988570100600840000010449     Livro Graphic Novels Marvel Ed. 117               0000100000047900000058200
303988570100600840000010349     Livro Graphic Novels Marvel Ed. 116               0000100000047900000058200
303988570100600850000010347     Livro Graphic Novels Marvel Ed. 115               0000100000047900000058200
303988570100600850000010627     Livro Graphic Novels Marvel Ed. 120               0000100000047900000058200
503988570000114/06/202011/07/2020PAGO      000100000910100000091010                                                                                                                                                                                                                                                                                                            
9000002
