107-07-2020 06:08:12
20398022913208408FELYPE AUGUSTO LEITAO                             felypeleitao@gmail.com                                                000375109568380011953511570000001195351157FM08041440R CHICO LOPES                                     14        N/A                                               JARDIM LUCINDA                SAO PAULO                     SP30000130/05/20200000114960SEDEX          000000838800000000000000000000000000000000000      71095061         01/06/202000001149600000000000ISENTO      02
303980229100432770000005108     Livro Graphic Novels Marvel Ed. 27                0000100000047900000075600
303980229100432770000006204     Livro Graphic Novels Marvel Ed. 45                0000100000047900000063500
303980229100432770000006312     Livro Graphic Novels Marvel Ed. 47                0000100000047900000068500
303980229100432780000006314     Livro Graphic Novels Marvel Ed. 48                0000100000047900000068500
303980229100432780000006428     Livro Graphic Novels Marvel Ed. 49                0000100000047900000068000
303980229100432780000006492     Livro Graphic Novels Marvel Ed. 51                0000100000047900000075600
303980229100432780000006650     Livro Graphic Novels Marvel Ed. 54                0000100000047900000065000
303980229100432780000007046     Livro Graphic Novels Marvel Ed. 60                0000100000047900000070000
303980229100432780000007262     Livro Graphic Novels Marvel Ed. 62                0000100000047900000064700
303980229100432780000007914     Livro Graphic Novels Marvel Ed. 71                0000100000047900000064700
303980229100432780000008458     Livro Graphic Novels Marvel Ed. 81                0000100000047900000064700
303980229100432780000008460     Livro Graphic Novels Marvel Ed. 82                0000100000047900000064700
303980229100432780000008620     Livro Graphic Novels Marvel Ed. 84                0000100000047900000064700
303980229100432790000008744     Livro Graphic Novels Marvel Ed. 86                0000100000047900000064700
303980229100432790000008780     Livro Graphic Novels Marvel Ed. 88                0000100000047900000064700
303980229100432790000008980     Livro Graphic Novels Marvel Ed. 91                0000100000047900000064700
303980229100432790000008982     Livro Graphic Novels Marvel Ed. 92                0000100000047900000064700
303980229100432790000009400     Livro Graphic Novels Marvel Ed. 95                0000100000047900000064700
303980229100432790000009402     Livro Graphic Novels Marvel Ed. 96                0000100000047900000058200
303980229100432790000009414     Livro Graphic Novels Marvel Ed. 98                0000100000047900000058200
303980229100432790000009632     Livro Graphic Novels Marvel Ed. 99                0000100000047900000058200
303980229100432790000009716     Livro Graphic Novels Marvel Ed. 101               0000100000047900000058200
303980229100432790000009863     Livro Graphic Novels Marvel Ed. 103               0000100000047900000058200
303980229100432800000009865     Livro Graphic Novels Marvel Ed. 104               0000100000047900000058200
303980229100432800000009929     Livro Graphic Novels Marvel Ed. 106               0000100000047900000058200
303980229100432800000009973     Livro Graphic Novels Marvel Ed. 107               0000100000047900000058200
303980229100432800000009975     Livro Graphic Novels Marvel Ed. 108               0000100000047900000058200
303980229100432800000010109     Livro Graphic Novels Marvel Ed. 109               0000100000047900000058200
303980229100432800000010111     Livro Graphic Novels Marvel Ed. 110               0000100000047900000058200
303980229100432800000010197     Livro Graphic Novels Marvel Ed. 111               0000100000047900000058200
303980229100432800000010199     Livro Graphic Novels Marvel Ed. 112               0000100000047900000058200
303980229100432800000010315     Livro Graphic Novels Marvel Ed. 113               0000100000047900000058200
303980229100432800000010317     Livro Graphic Novels Marvel Ed. 114               0000100000047900000058200
303980229100432810000010451     Livro Graphic Novels Marvel Ed. 118               0000100000047900000058200
303980229100432810000010449     Livro Graphic Novels Marvel Ed. 117               0000100000047900000058200
303980229100432810000010349     Livro Graphic Novels Marvel Ed. 116               0000100000047900000058200
303980229100432810000010627     Livro Graphic Novels Marvel Ed. 120               0000100000047900000058200
303980229100432810000010799     Livro Graphic Novels Marvel Ed. 121               0000100000047900000058200
303980229100432810000010801     Livro Graphic Novels Marvel Ed. 122               0000100000047900000058200
303980229100432810000010859     Livro Graphic Novels Marvel Ed. 123               0000100000047900000058200
303980229100432810000010861     Livro Graphic Novels Marvel Ed. 124               0000100000047900000058200
303980229100432810000010904     Livro Graphic Novels Marvel Ed. 125               0000100000047900000058200
303980229100432810000010910     Livro Graphic Novels Marvel Ed. 126               0000100000047900000058200
303980229100432820000011171     Livro Graphic Novels Marvel Ed. 127               0000100000047900000058200
303980229100432820000011174     Livro Graphic Novels Marvel Ed. 128               0000100000047900000058200
303980229100432820000011168     Livro Graphic Novels Marvel Ed. 130               0000100000047900000058200
303980229100432820000011428     Livro Graphic Novels Marvel Ed. 131               0000100000047900000058200
303980229100432820000011434     Livro Graphic Novels Marvel Ed. 132               0000100000047900000058200
503980229000104/06/202006/07/2020PAGO      000100001149600000114960                                                                                                                                                                                                                                                                                                            
9000001
